:020000040800F2
:1000000068C300209D010008CF240008E51F0008F8
:10001000CD240008D1030008652F0008000000006F
:100020000000000000000000000000005D29000842
:100030007504000800000000D12400085F290008B2
:10004000B7010008B7010008B7010008B7010008B0
:10005000B7010008B7010008B7010008B7010008A0
:10006000B7010008B7010008B7010008B701000890
:10007000B7010008B7010008B7010008B701000880
:10008000B7010008B7010008B7010008B701000870
:10009000B7010008B7010008B7010008B701000860
:1000A000B7010008B7010008B7010008B701000850
:1000B000B7010008B7010008B7010008B701000840
:1000C000B7010008B7010008B7010008B701000830
:1000D000B7010008B70100082D2F0008B70100087C
:1000E000B7010008B7010008B7010008B701000810
:1000F000B7010008B7010008B7010008B701000800
:10010000B7010008E1240008052A0008B70100082B
:10011000B7010008B7010008112A00081D2A0008CD
:10012000D5030008B7010008B7010008E103000883
:10013000B70100080000000000000000B70100083F
:10014000B7010008B7010008B7010008B7010008AF
:10015000B7010008ED030008B7010008B701000867
:10016000B7010008B7010008B7010008B70100088F
:10017000B7010008B701000800000000B70100083F
:10018000B7010008B7010008DFF80CD000F07AF8DA
:1001900000480047A52F000868C300200648804794
:1001A00006480047FEE7FEE7FEE7FEE7FEE7FEE75C
:1001B000FEE7FEE7FEE7FEE7E929000889010008FF
:1001C0002DE9F05F0546002092469B46884606468C
:1001D000814640241BE0284641464746224600F01F
:1001E00041F853465A46C01A914110D31146184659
:1001F000224600F028F82D1A67EB01084F462246E8
:100200000120002100F01FF817EB00094E41201ECD
:10021000A4F10104DFDC484631462A464346BDE8E6
:10022000F09FD2B201E000F8012B491EFBD27047CB
:100230000022F6E710B513460A4604461946FFF7B2
:10024000F0FF204610BD202A04DB203A00FA02F11C
:10025000002070479140C2F1200320FA03F31943B4
:1002600090407047202A04DB203A21FA02F0002156
:10027000704721FA02F3D040C2F1200291400843B6
:1002800019467047064C074D06E0E06840F0010350
:1002900094E8070098471034AC42F6D3FFF778FF94
:1002A000F82F000818300008464910B54A6822F4B3
:1002B00040324A604A6843681A434A6001684A68A3
:1002C00022F480724A6001684A68036942EA0322A4
:1002D0004A6001684A6822F040724A6001684A68D0
:1002E00083681A434A6001688A6822F400628A605F
:1002F00001688A68C3681A438A60816A6FF0706215
:10030000D14201688A6822F070628A6001688A6856
:100310000CD0836A1A438A6001688A6822F04052CE
:100320008A6001688A68C36A1A4301E022F0405279
:100330008A6001688A6822F002028A6001688A681D
:10034000037E42EA43028A6090F820100029016887
:100350004A680FD042F400624A6001684A6822F499
:1003600060424A6001684A68174C436A04EB4333B1
:100370001A4301E022F400624A600168CA6A22F46A
:100380007002CA620168CA6A838B104C04EB035383
:100390001A43CA6201688A6822F400728A6001689E
:1003A0008A6890F8303042EA43228A6001688A689D
:1003B00022F480628A6001688A68406942EA80208B
:1003C000886010BD0023014000E0FFFF0000F0FF47
:1003D000FEE70000014800F0A1B900008400002001
:1003E000014800F09BB9000064010020014800F0C2
:1003F00095B90000C401002001681823CAB2103A60
:10040000B2FBF3F2054B6FF30901032A9B5CC36552
:1004100000D9091D8165084670470000D62F0008E5
:1004200010B5014600208B698A6A4FF0C07453B141
:10043000B3F5005F15D072B1012A0CD0022A0AD0A0
:10044000032A09D104E01AB1012A06D0022A03D1F5
:10045000C96AC90100D5012010BDC96AA142FAD0FC
:1004600010BD002AF7D0012AF2D0022AF3D0032AC5
:10047000F3D010BD70477047002200F001B80000B3
:1004800030B50E4B054601205C7A002C14D1587A09
:100490001C54587A03EB800045605D7A03F1080034
:1004A0002A54587A421C5A72303008703A204870E8
:1004B0002F208870CC70002030BD0000300000205C
:1004C00078B50024009490F83C20012A19D001222C
:1004D00080F83C200A6807230568092A13D9EE68CA
:1004E0000A3A02EB420293409E43EE600B788A6820
:1004F0000A3B03EB43039A400368DD682A43DA6052
:1005000010E0022078BD2E6902EB420293409E4328
:100510002E610B788A6803EB43039A4003681D69D8
:100520002A431A614A681F23072A13D205686E6B93
:10053000521E02EB820293409E436E630B790A883F
:100540005B1E92B203EB83039A4003685D6B2A4300
:100550005A6327E005680D2A12D22E6BD21F02EBD8
:10056000820293409E432E630B790A88DB1F92B26E
:1005700003EB83039A4003681D6B2A431A6311E05F
:10058000EE6A0D3A02EB820293409E43EE620B79D3
:100590000A880D3B92B203EB83039A400368DD6A3D
:1005A0002A43DA62164B0568144A9D4206D10D684B
:1005B000122D03D1556845F48005556005689D42AC
:1005C00018D10B68102B01D0112B13D1536843F4B1
:1005D00000035360096810290CD10A490A4A0968C6
:1005E000B1FBF2F101EB8101490000E0491E0091ED
:1005F0000029FBD180F83C40002078BD0023014059
:10060000002001402C00002040420F0070B5040083
:100610004FF0000503D0206C002610B107E0012048
:1006200070BD204600F01CF8666484F83C60206CC5
:10063000C00610D4206C20F4885040F002002064E2
:100640002046FFF731FE6664206C20F0020040F087
:100650000100206400E0012584F83C60284670BD5C
:1006600070B586B0064614216846FFF7E1FD1D49C6
:100670003068884233D11C480025016841F48071FC
:100680000160006800F48070059017481438016814
:1006900041F0010101600068694600F00100059029
:1006A000F22000900320CDE90105104800F082F906
:1006B000104C0F48C4E900050015A560C4E90350BB
:1006C000400060618000C4E906052562204665623D
:1006D00000F0F4F808B1FFF7CEFEB463A66306B0ED
:1006E00070BD00000020014044380240000002407C
:1006F000106402408400002090F83510022903D0D5
:100700008021416501207047052180F8351000687F
:10071000016821F001010160002070472DE9F843D4
:1007200004464FF00009CDF8009063484FF416518D
:10073000A56D0068B0FBF1F72E6894F85C100820F6
:1007400000FA01F131420FD021680A6852070BD537
:100750000A6822F004020A6094F85C108840A860DD
:10076000606D40F00100606594F85C104FF0010886
:1007700008FA01F0304208D021684969090604D519
:10078000A860606D40F00200606594F85C10042081
:100790008840304208D021680968890704D5A860DC
:1007A000606D40F00400606594F85C101020884093
:1007B000304218D021680968090714D5A86020685C
:1007C0000168490304D50068000308D5A16C07E05F
:1007D0000168C90503D4016821F008010160216C9A
:1007E00009B12046884794F85C10202088403042A8
:1007F00031D021680968C9062DD5A86094F8350064
:1008000005282068016806D0490347D50068000321
:100810001DD4616C1CE021F0160101602068416963
:1008200021F080014161206C08B9A06C20B12068E2
:10083000016821F00801016094F85C103F208840B5
:10084000A86084F8349084F83580216D1FE0E16B56
:1008500009B120468847606D00282BD0606DC00725
:1008600014D0052084F835002068016821F00101CA
:1008700001600098401C0090B84203D820680068CE
:10088000C007F6D184F8349084F83580E16C0029F3
:1008900010D001B02046BDE8F04308470168C90503
:1008A000D5D4016821F01001016084F8349084F8F7
:1008B0003580CCE7BDE8F8832C0000202DE9F0411D
:1008C000044600F059F906465CB1002584F834501E
:1008D000022084F835002068016821F001010160E0
:1008E0000DE00120BDE8F08100F046F9801B0528ED
:1008F00005D920206065032084F83500F2E72068E0
:100900000068C007F0D12268116820480140D4E98E
:1009100001031843D4E9033633431843636918438A
:10092000A3691843E3691843236A18430843616ABB
:10093000042903D1D4E90B1319430843106020683C
:100940004069666A20F0070130460E4301270428FB
:100950000CD1A06A0643E06A40B12046FFF760FD73
:1009600020B14020606584F83570BAE720684661A0
:100970002046FFF741FD94F85C203F2191408160C3
:10098000656584F835700020ACE700003F8010F00A
:1009900070B5044600F0F0F80546601C02D004482B
:1009A0000078044400F0E8F8401BA042FAD370BD80
:1009B000200000202DE9F84F00224FF00108032508
:1009C0004FF00F0E0B6808FA02F42340A3426ED1D9
:1009D0004E68012E05D0022E03D0112E01D0122E0A
:1009E00012D186684FEA420C05FA0CF7BE43CF6875
:1009F00007FA0CF7374387604668A6430C79C4F3BF
:100A00000014944034434460C668570005FA07FC5C
:100A10008C6826EA0C06BC403443C4604C68022C47
:100A200001D0122C13D1D40800EB8404A346D4F8CF
:100A3000209054074FEAD46A0EFA0AF629EA06090A
:100A40000E6906FA0AF646EA0906CBF8206006683F
:100A50000C7926EA0C0604F00304BC40344304601D
:100A60004C68E40065D5364C266846F4804626601E
:100A7000246822F0030604F480440094314C34448A
:100A8000A446D4F808489607370F0EFA07F6B44381
:100A90002D4EB04201D1002624E02C4EB04201D1AF
:100AA00001261FE02A4EB04202D102261AE040E0A1
:100AB000284EB04201D1032614E0274EB04201D1A6
:100AC00004260FE0254EB04201D105260AE0244E4F
:100AD000B04201D1062605E0224EB04201D10726E0
:100AE00000E00826BE402643CCF808681E4E346855
:100AF0004F689C43FF0300D51C4334601A4C241DEF
:100B000026684F689E43BF0300D51E432660164EDD
:100B1000083634684F689C43FF0200D51C4334609C
:100B2000114E0C3634684F689C43BF0200D51C43FD
:100B30003460521C102AFFF445AFBDE8F88F000066
:100B400044380240003001400000024000040240EE
:100B500000080240000C0240001002400014024055
:100B600000180240001C0240003C01400AB18161B3
:100B700070470904FBE700000148806870470000E7
:100B8000200000200248816802781144816070478B
:100B9000200000200B4810B5016841F4007101608D
:100BA000016841F480610160016841F48071016075
:100BB000032000F0CDFB002000F006F800F082FBDF
:100BC000002010BD003C024070B50D4D04464FF4AE
:100BD0007A712878B1FBF0F00A490968B1FBF0F0AE
:100BE00000F062FE48B9102C07D200222146501EA8
:100BF00000F08EFB00206C6070BD012070BD000015
:100C0000200000202C000020704700002DE9FF414B
:100C10000D46002104460320039184F83400762019
:100C20000095CDE901100B460A46206801F05EFCF4
:100C3000B5F5805F15D0B5F5006F15D0BDB1A06BCF
:100C400040F00060C4F838004FF6FF7701260398A3
:100C5000B84216D184F83460A06B40F08060A06385
:100C600042E02A49206804E02949206801E0294936
:100C7000206801F03BFD0028E6D0A16B0143A16391
:100C8000E2E7401C0390B4F84C000104206801F036
:100C9000E2FC10B1A16B0143A1630021206801F0C7
:100CA0001CFCB6EBD01FD2D04FF0FF31039112E005
:100CB00003980028CED0401E0390B4F84C000104E5
:100CC000206801F0C8FC10B1A16B0143A1630021B1
:100CD000206801F002FCC005EAD5A06B40B1216894
:100CE0000D48886384F83460012004B0BDE8F081C9
:100CF000211DD4E905070EC9CDE9005002972068EF
:100D000001F0F4FB84F834600020EEE70002B70342
:100D10000001B7030000B703FF054000704770B53E
:100D200050F8602F920F0A7050F81029C2F38362B6
:100D30004A700269C2F301628A700269120CCA70B9
:100D4000028A120A0A71027C4A714269120DCA8033
:100D50004269C2F303420A72828AC2F3C0324A7203
:100D6000828AC2F380328A72828AC2F34032CA72A5
:100D7000828AC2F300320A7300254D73828A836926
:100D80009205120D42EA93720A618269C2F3C2624D
:100D90000A758269C2F302624A758269C2F34252DD
:100DA0008A758269C2F38242CA758269C2F3C2320D
:100DB0000A760A69521C02600B7E03F007039B1C33
:100DC0009A4002600B7A012403F00F0604FA06F33E
:100DD00043605B0A5A4382606202C260028BC2F3C4
:100DE00080324A76028BC2F3C6128A76027E02F005
:100DF0007F02CA76C269D20F0A77C269C2F3417212
:100E00004A77C269C2F382628A77C269C2F38352A7
:100E1000CA77C269C2F3405281F8202081F821507C
:100E2000C269C2F3004281F82220828BC2F3C03231
:100E300081F82320828BC2F3803281F82420828BB8
:100E4000C2F3403281F82520828BC2F3003281F850
:100E50002620828BC2F3812281F82720828BC2F365
:100E6000012281F82820007FC0F3460081F8290084
:100E700081F82A40002070BD70B50446B0F84C00DF
:100E800000250104206801F0E6FB18B1A16B0143C5
:100E9000A16304E00021206801F01FFB0546C5F3B3
:100EA000432070BDF8B5056B04460068416B09042A
:100EB0001BD5290719D5D4E90A56002E14D00027CE
:100EC000206801F02DFB05F8010B010A05F8011B54
:100ED000010C05F8021B000E361F7F1C05F8010CE3
:100EE000082FEDD3C4E90A56F8BD416B4FF0010657
:100EF000CA0540F23A3141D5320282632068C26BA2
:100F00008A43C2632068C16A21F00101C1622806D8
:100F100015D5A80609D5206801F0CEFB28B1A16B34
:100F20000143A1632046FFF7F9FEA807DCD1206842
:100F3000C16A21F00801C16284F834601AE0280710
:100F4000D2D515F0220F09D0206801F0B5FB28B1E9
:100F5000A16B0143A1632046FFF7E0FE216840F248
:100F60003A50886384F83460A80703D0204600F024
:100F7000A7F9F8BD204600F0A4F9F8BD426B520471
:100F800023D52A0721D5D4E90856002EF5D000270D
:100F900015F8010B009015F8011B361F40EA0120DF
:100FA000009015F8021B40EA0140009015F8011C62
:100FB00040EA016000906946206801F0C4FA7F1C95
:100FC000082FE5D3C4E90856F8BD426B40F23A2336
:100FD0001A42F9D0426B920703D5A26B42F002028B
:100FE000A263426B120703D5A26B42F00802A26310
:100FF000426B920603D5A26B42F02002A263426BC1
:10100000D20603D5A26B42F01002A263426B920596
:1010100003D5A26B42F00802A26340F23A728263E7
:101020002068C26B8A43C263206801F045FBA16B54
:101030000843A063280705D584F834602046FFF7ED
:101040006DFEF8BD2806FCD5206C58B1104901652D
:10105000206CFFF751FB0028F3D0206CBDE8F8406E
:1010600000F0E5BFE06B58B10A490165E06BFFF79E
:1010700043FB0028E5D0E06BBDE8F84000F0B3BFCB
:101080000020A06384F834602046FFF7BDFDF8BD62
:101090002F200008E71F000870B5040004D094F862
:1010A0003400002510B105E0012070BD25772046F1
:1010B00000F064F8032084F83400204600F00AF8B9
:1010C0000128F2D0A5632563012084F834000020B4
:1010D00070BD00002DE9FE430026044676200096F0
:1010E000CDE9016031460B460A46206801F0FEF961
:1010F00001283DD01F4FC7F8A060206801F008FA12
:10110000012835D00125C7F8A0500096206801F0CD
:101110001FFA38BB1BE00098411C0091B84202D175
:101120004FF080701EE04146206801F039FA10B19E
:101130004FF0805016E00021206801F0CEF9C10F79
:10114000E9D0C021B1EB106F06D1656405E04FF620
:10115000FF77DFF82480DEE76664204600F08BFF2F
:10116000002805D084F83450A16B0143A16301200D
:10117000BDE8FE83008025420080FFC02DE9F04FCE
:1011800087B0054614216846FFF752F8464928689B
:1011900088427DD145480068444940F400600860B9
:1011A000086800F4006005904048143800683F4922
:1011B00040F0040014390860086800F0040005904D
:1011C000086840F0080008600868022400F0080081
:1011D00005904FF4F850CDE9000402AA0020032640
:1011E0004FF00C0882E8410169463148FFF7E2FB05
:1011F00002AA002082E841010427CDE90074694673
:101200002C48FFF7D7FB2D4C2B484FF00068C4E962
:10121000000800204FF48069A060C4E90309B80207
:101220004FF4804BC4E9050BC4E909764FF0200A5E
:101230000020C4E907A07E05B7102046C4E90B676B
:10124000FFF73CFB08B1FFF716F9EC63A5631B4CF5
:10125000194860344830C4E900084020A0600020EC
:10126000C4E90309C4E907A00420606204F128026C
:10127000032082E8C1004FF48051C4E9051B2046D9
:10128000FFF71CFB08B1FFF7F6F82C64002200E022
:1012900007E011463120A56300F03AF8312000F054
:1012A00029F807B0BDE8F08F002C01404438024017
:1012B00000080240000C0240586402406401002013
:1012C000704770470A4808B5016841F480410160E1
:1012D000006800F4804000900548001F016841F05C
:1012E00080510160006800F08050009008BD00004F
:1012F00044380240002809DB00F01F020121914020
:101300004009800000F1E020C0F8001170470000A3
:10131000F0B40E4B1B680C46C3F30223C3F1070560
:10132000042D00D90425191D072901D2002300E04E
:10133000DB1E012606FA05F1491E214099409E4018
:10134000761E16403143F0BC01F00DBE0CED00E0FE
:10135000064900F0070208684FF6FF03184040EA0C
:101360000220034A10430860704700000CED00E0C3
:101370000000FA052DE9F0470E46050065D0DFF8BC
:101380001481D8F80000F7B200F00F00B04207D285
:1013900088F80070D8F8000000F00F00B04254D177
:1013A00028683D4C810712D5400703D5206840F4DA
:1013B000E05020602878000703D5206840F46040A2
:1013C00020602068A96820F0F00008432060287899
:1013D000C0072DD0304968680839012812D002288A
:1013E00013D0032811D00968890700292DDA216854
:1013F00021F0030101432160FFF7BEFB814641F26A
:10140000883A0EE009688903EFE709688901ECE78B
:10141000FFF7B2FBA0EB0901514502D90320BDE85B
:10142000F0872068696800F00C00B0EB810FEFD105
:10143000D8F80010404601F00F01B14207D90770FB
:10144000006800F00F00B04201D00120E7E72878E3
:10145000400705D52068E96820F4E0500843206083
:101460002878000706D52068296920F4604040EA02
:10147000C100206000F038F82168084AC1F3031168
:10148000515CC8400649086006480068FFF79CFBAD
:101490000020C4E7003C024008380240DE2F00086C
:1014A0002C00002024000020044805490068096839
:1014B000044AC1F38221515CC84070472C000020CF
:1014C00008380240EE2F0008044805490068096802
:1014D000044AC1F34231515CC84070472C000020DF
:1014E00008380240EE2F0008154810B5006810F0CB
:1014F0000C02144813D01449042A0FD0082A0ED124
:101500000F4C241F2268236802F03F025B0207D5BC
:101510002068C0F38810A0FB010106E0084610BD5A
:101520002168C1F38811A1FB00010023FEF748FEEA
:101530002168C1F30141491C4900B0FBF1F010BD25
:10154000083802400024F40040787D012DE9F84F6E
:1015500004006ED02078DFF83C93C007A9F10405A1
:101560004AD009F104000168C1F38101012908D0C2
:101570000068C0F3810002280AD1D9F800004002B7
:1015800006D52868800337D560680028E1D033E0AD
:101590006068B0F5803F10D0B0F5A02F286810D05B
:1015A00020F480302860286820F48020286060685B
:1015B000A8B1FFF7E1FA06460DE0286840F4803054
:1015C000F4E740F480202860F7E700BFFFF7D4FA83
:1015D000801B642873D828688003F7D50CE0FFF7D8
:1015E000CBFA064605E000BFFFF7C6FA801B642869
:1015F000F0D828688003F7D42078DFF89C82800731
:101600004FF0000A3ED5A348001D016811F00C0FF1
:1016100008D00068C0F3810002280BD1D9F800007F
:10162000400207D42868800716D5E068012800D159
:1016300012E02BE1E068B8B10120C8F80000FFF724
:101640009BFA064605E000BFFFF796FA801B0228CA
:10165000C0D828688007F7D52868216920F0F800ED
:1016600040EAC10028600DE0C8F800A0FFF784FA46
:10167000064604E0FFF780FA801B02281FD828687E
:101680008007F7D42078000722D5824E834861690D
:10169000703671B101210160FFF76EFA074604E070
:1016A000FFF76AFAC01B022809D830688007F7D50F
:1016B0000EE0C0F800A0FFF75FFA074605E082E001
:1016C000FFF75AFAC01B02287DD830688007F7D48C
:1016D0002078400768D5DFF8BCB100270BF13C0B40
:1016E000DBF80000C0000BD4DBF8001041F08051A3
:1016F000CBF80010DBF80000012700F080500090CC
:10170000674E3068C00510D4306840F48070306097
:10171000FFF732FA009005E0FFF72EFA0099401A21
:10172000022850D83068C005F6D55A4EA0686C36ED
:1017300001280FD00528306810D020F0010030605B
:10174000306820F004003060A068B8B1FFF714FAE8
:1017500000900FE0306840F00100F4E740F0040032
:101760003060F7E7FFF708FA0099411A41F2883034
:10177000814266D830688007F4D50EE0FFF7FCF9A7
:10178000009007E0FFF7F8F90099411A41F288301C
:10179000814256D830688007F4D42FB1DBF80010AE
:1017A00021F08051CBF80010A069C8B33949091D58
:1017B0000968C1F3810102294AD00228504607D0A6
:1017C000C8F8600000E03CE0FFF7D6F904463BE0D3
:1017D0004746C8F86000FFF7CFF9064605E000BFAE
:1017E000FFF7CAF9801B02282BD828688001F7D49C
:1017F000D4E907010843A16A2A4A490802EB0141DA
:10180000626A41EA8211084394F82C1040EA0161AF
:10181000C9F8001001203866FFF7AEF9044606E06B
:1018200036E000BFFFF7A8F9001B022809D8286896
:101830008001F7D52CE000BFFFF79EF9001B0228BE
:1018400002D90320BDE8F88F28688001F4D41FE096
:101850000128F7D0D9F80000E26900F48001914234
:1018600014D1226A00F03F0191420FD147F6C071B6
:10187000626A0140914209D1A26A00F4403191426A
:1018800004D1E16A00F07060884201D00120D9E7FC
:101890000020D7E70438024000004742800E47424C
:1018A000007000400000FFFF10B5401EB0F1807FC7
:1018B00001D3012010BD4FF0E02460610F216017BB
:1018C00001F051FB0020A06107202061002010BD25
:1018D0007047704770B590F83C20012A32D001243F
:1018E00080F83C40022280F83D2003685A689D68D9
:1018F00022F070060A6832435A60134B02689A421B
:1019000014D0B2F1804F11D0104B9A420ED0104B30
:101910009A420BD00F4B9A4208D00F4B9A4205D0F7
:101920000E4B9A4202D00E4B9A4204D1496825F0E0
:1019300080031943916080F83D40002180F83C10FD
:10194000084670BD022070BD000001400004004048
:1019500000080040000C004000040140004001402D
:101960000018004010B5040003D094F83D0010B1F9
:1019700007E0012010BD002084F83C00204600F064
:101980000DF8022084F83D00211D206801F04CF87C
:10199000012084F83D00002010BD000008B51E4A5B
:1019A00001681E4891420ED1016841F008010160B2
:1019B0000068002200F00800009011463220FFF776
:1019C000A7FC322022E0164A91420ED1016841F074
:1019D000100101600068002200F010000090114624
:1019E0003620FFF795FC362010E00E4A914211D1C7
:1019F000016841F0200101600068002200F0200031
:101A0000009011463720FFF783FC3720BDE80840DF
:101A1000FFF770BC08BD0000000C004040380240D9
:101A2000001000400014004070B5044690F83C00DF
:101A3000012817D0012584F83C50022084F83D008D
:101A40002068826822F0770222F47F428260086870
:101A5000502830D00DDC20284DD005DC98B310285C
:101A60003BD148E0022070BD302844D0402834D11A
:101A700039E0602828D0702806D0B0F5805F2CD0DF
:101A8000B0F5005F29D10AE0CB68D1E901212068D7
:101A900001F02EF82068816841F0770109E0CB68F9
:101AA000D1E90121206801F023F82068816841F420
:101AB0008041816011E0CA684968206801F0ECF853
:101AC0005021206807E016E0CA684968206801F0E4
:101AD000F4F86021206801F015F884F83D500020EA
:101AE00084F83C0070BDCA684968206801F0D4F8E9
:101AF00040212068EFE7226801461046EBE7704777
:101B000070B50446006801694FF00005C9438907B4
:101B100015D4C168C943890711D4E91E01610120A8
:101B20002077206880698007204602D0FFF7E7FF12
:101B300004E000F0C1F8204600F056F9257720684F
:101B40000169C943490717D4C168C943490713D478
:101B50006FF004010161022020772068806910F491
:101B6000407F204602D0FFF7CAFF04E000F0A4F84F
:101B7000204600F039F9257720680169C943090733
:101B800016D4C168C943090712D46FF00801016176
:101B9000042020772068C0698007204602D0FFF724
:101BA000AEFF04E000F088F8204600F01DF925772C
:101BB00020680169C943C90617D4C168C943C90669
:101BC00013D46FF010010161082020772068C069EC
:101BD00010F4407F204602D0FFF791FF04E000F0B0
:101BE0006BF8204600F000F9257720680169C943A9
:101BF000C90708D1C168C943C90704D1891E016159
:101C0000204600F0F2F820680169C943090609D4AA
:101C1000C168C943090605D46FF0800101612046FF
:101C2000FFF756FE20680169C943490609D4C16817
:101C3000C943490605D46FF040010161204600F018
:101C4000D5F820680169C94389060BD4C168C94326
:101C5000890607D46FF0200101612046BDE870407D
:101C6000FFF737BE70BD000010B586B004461421E2
:101C70006846FEF7DDFA0D492068884214D10C4809
:101C80000021026842F002020260006800F00200D7
:101C90000590102000900220CDE90101CDE903104C
:101CA00069460448FEF786FE06B010BD00040040F9
:101CB0003038024000040240704770B5044690F886
:101CC0003C000D4601280DD0012684F83C6002201E
:101CD00084F83D0042B1042A18D0082A2AD00C2AE0
:101CE0004DD139E0022070BD206800F013FF20685C
:101CF000816941F0080181612068816921F0040156
:101D00008161206881692A69114311E0206800F02F
:101D100031FF2068816941F4006181612068816937
:101D200021F480618161206881692A6941EA022188
:101D3000816124E0206800F053FF2068C16941F010
:101D40000801C1612068C16921F00401C1612068F6
:101D5000C1692A69114311E0206800F075FF20680D
:101D6000C16941F40061C1612068C16921F48061E9
:101D7000C1612068C1692A6941EA0221C16184F810
:101D80003D60002084F83C0070BD10B5040003D015
:101D900094F83D0010B107E0012010BD002084F848
:101DA0003C00204600F00CF8022084F83D00211D84
:101DB000206800F039FE012084F83D00002010BDAD
:101DC00008B500680649884208D10648016841F014
:101DD00002010160006800F00200009008BD0000F0
:101DE0000004004040380240704770477047704719
:101DF00070B5026804461068D168536910F00F0F7F
:101E000052D003F0010501F490762E435FD0C20753
:101E100005D0CA0503D5E26B42F00102E263420736
:101E200005D5DA0703D0E26B42F00202E2638207D3
:101E300005D5DA0703D0E26B42F00402E263020741
:101E400007D501F020022A4303D0E26B42F00802DA
:101E5000E263E26B002A33D0800604D5880602D5FF
:101E6000204600F052FF20684069E16BC0F380100B
:101E7000090700D428B3204600F039FF20684169E3
:101E800049061AD5416921F040014161606BA0B15A
:101E90001B490165606BFEF72FFC002810D0606BBA
:101EA000016DBDE870400847830610D58B060ED53E
:101EB0002046BDE8704000F028BF2046FFF797FF9E
:101EC00070BD2046FFF793FF0020E06370BD03065E
:101ED00006D50B0604D52046BDE8704000F0F4BFDF
:101EE0004006F3D54806F1D5D168204621F04001DF
:101EF000D160202184F8391000F073F870BD000023
:101F0000DF2C000870B5040004D094F839000025D7
:101F100010B106E0012070BD84F83850204600F072
:101F200023F8242084F839002068C16821F4005186
:101F3000C160204600F034FF2068016921F490411F
:101F400001612068416921F02A0141612068C1686E
:101F500041F40051C160E563202084F8390084F821
:101F60003A00002070BD000010B586B00446142170
:101F70006846FEF75DF917492068884228D116485F
:101F80000021026842F400320260006800F4003070
:101F9000059011481038026842F0010202600068A2
:101FA00000F0010005900C2000900220CDE9010115
:101FB000032003900720049069460848FEF7FAFCC6
:101FC000002211462620FFF7A3F92620FFF792F9F9
:101FD00006B010BD004400404038024000000240FE
:101FE00070477047FEE770B5846B0025E06B00B169
:101FF000E563206C002816D12046FEF73DFFA5635F
:10200000012184F83410062801D005280BD120685E
:1020100000F052FBA16B0843A063A06B0028204690
:1020200002D0FEF7F1FD70BDFEF778FE70BD70B511
:10203000846B0025206C00B12564E06B002816D16C
:102040002046FEF719FFA563012184F83410062805
:1020500001D005280BD1206800F02EFBA16B0843AE
:10206000A063A06B0028204602D0FEF7CDFD70BD16
:10207000FEF754FE70BD10B590B004460120ADF8D7
:102080003800206800F025FA002849D0206800F0C8
:10209000B6FA002842D10021206800F01EFA20671D
:1020A0000421206800F019FA60670821206800F018
:1020B00014FAA0670C21206800F00FFAE0670EA95F
:1020C000206800F0E1FA002828D1BDF83800E0646B
:1020D0000104206800F0A9FA00281FD1002120681F
:1020E00000F0FBF920660421206800F0F6F9606634
:1020F0000821206800F0F1F9A0660C21206800F0AA
:10210000ECF9E0660421206800F0E7F9000DA06416
:1021100003A92046FEF703FE28B1A06B10B010BD46
:102120004FF08060FAE7B4F84C0000230204206806
:1021300000F04CFA0028F1D104F1100007C88DE836
:10214000070094E80F0000F0D1F90020E6E7000056
:102150007FB5002415480094019402941249039419
:1021600001604FF48031C0E901140461047680F805
:1021700020400F49C0E90A140125C561C46080F8F8
:1021800030404561FEF742FA08B1FEF774F90420C9
:10219000CDE90005694602940448FEF791F900284C
:1021A00001D0FEF768F97FBD002001403C0000200F
:1021B0000100000F114808B5016841F48001016079
:1021C0000068002200F48000009011463820FFF7DC
:1021D0009FF83820FFF78EF8002211463B20FFF7CA
:1021E00097F83B20FFF786F8002211464520FFF7BD
:1021F0008FF8BDE808404520FFF77CB83038024032
:1022000010B504490448FEF737F90249491E087021
:1022100010BD00001900002004000020F0B587B0B8
:1022200014216846FEF704F82E480024016841F0A6
:1022300001010160016801F001010591016841F0AF
:1022400002010160016801F002010591016841F09D
:1022500004010160016801F004010591016841F089
:10226000080101600068204E00F0080047F2204598
:102270000590002229463046FEF778FC1B4F0022CD
:1022800040213846FEF772FC48F2030000901848DF
:10229000CDE9010469463046FEF78CFB0095012527
:1022A000CDE90154694630460394FEF783FBE8020A
:1022B000CDE90004694630460294FEF77BFB4020DE
:1022C0000090CDE90154694638460394FEF772FB4D
:1022D0008020CDE90004694638460294FEF76AFB87
:1022E00007B0F0BD30380240000402400008024050
:1022F000000011100E4810B50C490160002141602A
:102300008160C160016141618161FEF7C5FE08B174
:10231000FEF7B1F84FF400610548FEF777FC00289E
:1023200003D0BDE81040FEF7A6B810BD002C014058
:10233000E400002010B58AB0002407941C216846F0
:102340000894FDF775FF1648144901605321C0E950
:10235000011440F6C411C0E903148461FFF715FDB0
:1023600008B1FEF788F8079407A90D480894FFF70D
:10237000B1FA08B1FEF77FF86020CDE900040294BD
:102380000022694606480494FFF797FC08B1FEF75F
:1023900072F80348FFF768FC0AB010BD0004004063
:1023A0002402002010B586B0002417480094019440
:1023B0000294039404941349059401605321C0E9E5
:1023C00001144CF25031C0E903148461FFF7CAFADA
:1023D00008B1FEF750F84FF48050009069460A4863
:1023E000FFF722FB08B1FEF746F8049404A906485B
:1023F0000594FFF76FFA002801D0FEF73CF806B00D
:1024000010BD0000000C0040640200201CB5002438
:102410000E4800940C49019401605321C0E9011455
:102420004CF250318461C160FFF79CFA08B1FEF7AD
:1024300022F80094694605480194FFF74BFA0028FA
:1024400001D0FEF718F81CBD00100040A4020020C7
:102450001CB500240E4800940C490194C0E90014F6
:102460004FF6FF71C0E902418461FFF77BFA08B1C2
:10247000FEF701F80094694605480194FFF72AFA2F
:10248000002801D0FDF7F7FF1CBD0000001400403C
:10249000E40200200C4810B50A4901604FF4E13114
:1024A0004160002181600C22C160C0E90412816199
:1024B000C161FFF727FD002803D0BDE81040FDF7FC
:1024C000DABF10BD0044004024030020FEE770473F
:1024D0007047006800F00300704708444069704787
:1024E0000148FEF7DFBC0000E400002070B50DF1EC
:1024F000100C11439CE870002343194329434268A0
:10250000314347F6FF639A430A434260002070BD9F
:1025100010B5032101600220FEF73AFA002010BD39
:10252000D0F8800070470A688260D1E901231A431D
:10253000D1E903310B43C1681A436FF30B01114317
:10254000C160002070470968C0F880100020704703
:1025500030B585B000240546009401944FF48060A6
:102560000294CDE9034069462846FFF7DCFF0B489B
:102570004FF4FA510068B0FBF1F041F28831484362
:10258000401E03D24FF0004005B030BD696B090614
:10259000F6D5C520A8632046F6E700002C000020F1
:1025A00010B586B004460120CDE90010402002900D
:1025B000002003904FF48060049069462046FFF7A6
:1025C000B2FF204600F064F906B010BD10B586B029
:1025D00004460720CDE9002040200290002003900F
:1025E0004FF48060049069462046FFF79CFF41F25B
:1025F00088320721204600F093F806B010BD10B5D0
:1026000086B0044600210220CDE90010C020CDE9AB
:1026100002014FF48060049069462046FFF783FF73
:10262000204600F00DF906B010BD10B586B0044686
:102630000920CDE90010C0200290002003904FF443
:102640008060049069462046FFF76DFF204600F049
:10265000F7F806B010BD10B586B004460D20CDE9E0
:10266000001040200290002003904FF480600490FE
:1026700069462046FFF757FF41F288320D21204678
:1026800000F04EF806B010BD30B585B00C460546DA
:1026900000210320CDE900104020CDE90201000116
:1026A000049069462846FFF73EFF2246032128464C
:1026B00000F010F905B030BD10B586B00446002119
:1026C0000C20CDE900104020CDE90201000104906A
:1026D00069462046FFF727FF034A0C21204600F0F9
:1026E0001FF806B010BD000000E1F50510B586B07A
:1026F00004460620CDE900104020029000200390FF
:102700004FF48060049069462046FFF70CFF41F2C9
:1027100088320621204600F003F806B010BD000004
:10272000454B10B51B684FF4FA54B3FBF4F3534315
:102730005B1E02D24FF0004010BD426B12F0450FFD
:10274000F6D01205F4D4426B520703D504218163FD
:10275000084610BD426BD20702D00121816305E01B
:10276000C52282630269D2B28A4201D0012010BD23
:102770000021FFF7B2FE3149084201D1002010BD0F
:10278000002802DA4FF0007010BD410001D5402052
:1027900010BD810001D5802010BDC10002D54FF4CD
:1027A000807010BD010102D54FF4007010BD4101D1
:1027B00002D54FF4806010BDC10102D54FF4006016
:1027C00010BD010202D54FF4805010BD410202D568
:1027D0004FF4005010BD810202D54FF4804010BD6F
:1027E000C10202D54FF4004010BD410302D54FF4A1
:1027F000003010BD810302D54FF4802010BDC1030D
:1028000002D54FF4002010BD010402D54FF4801012
:1028100010BD410402D54FF4001010BD810402D553
:102820004FF4800010BD000702D54FF4000010BD2A
:102830004FF4803010BD00002C00002008E0FFFDA8
:1028400012494FF4FA520968B1FBF2F141F28832B1
:102850005143491E02D24FF000407047426B12F0C4
:10286000450FF6D01205F4D4416B490703D5042176
:10287000816308467047416BC90703D0012181631A
:1028800008467047C5218163002070472C00002056
:102890000F494FF4FA520968B1FBF2F141F2883264
:1028A0005143491E02D24FF000407047426B12F074
:1028B000450FF6D01205F4D4416B490703D5042126
:1028C000816308467047C52181630020704700007E
:1028D0002C00002030B5204B4FF4FA541B68B3FB9A
:1028E000F4F341F2883463435B1E02D24FF00040A0
:1028F00030BD446B14F0450FF6D02405F4D4436B7F
:102900005B0703D504218163084630BD436BDB07B9
:1029100002D00121816303E00369DBB28B4201D065
:10292000012030BDC52181630021FFF7D6FD10F4E1
:10293000604F04D0410406D54FF4005030BD000C68
:102940001080002030BD000402D54FF4805030BD0F
:102950004FF4803030BD00002C0000207047FEF79F
:1029600011B9000030B593B030216846FDF760FC26
:1029700014210CA8FDF75CFC19480025016841F002
:1029800080510160006800F0805011901548016886
:1029900041F4804101600068022400F480401190FD
:1029A0000120039010200490009406940820CDE9A3
:1029B0000750A820CDE9090407200B906846FEF7D0
:1029C000C5FD0CA90F2081E831004FF4A0500F90F5
:1029D000E002109005210CA8FEF7CCFC13B030BD2E
:1029E00040380240007000400548016841F4700121
:1029F000016003494FF000608039086070470000B3
:102A000088ED00E00148FFF77BB800006402002079
:102A10000148FFF775B80000A40200200148FFF745
:102A20006FB80000E4020020F0B50268254C264D86
:102A3000264E274F274B4FF0804CA04209D06045CF
:102A400007D0A84205D0B04203D0B84201D0984286
:102A500004D122F0700E4A6842EA0E02A0421BD056
:102A6000604519D0A84217D0B04215D0B84213D053
:102A7000984211D0184DA8420ED0184DA8420BD044
:102A8000174DA84208D0174DA84205D0164DA842B0
:102A900002D0164DA84203D122F44075CA682A43D9
:102AA0004D6922F080022A4302608A68C2620A6885
:102AB0008262A04201D0984201D1096901630121DB
:102AC0004161F0BD000001400004004000080040EA
:102AD000000C00400004014000400140004401405F
:102AE0000048014000180040001C00400020004049
:102AF00010B5846842EA032224F47F440A43224347
:102B0000826010BD826822F070020A4342F0070121
:102B100081607047F0B5026A22F001020262036A26
:102B200042688469124E24F073050C682C4323F02C
:102B300002058B682B430D4DA84201D0B04205D150
:102B400023F00807CB683B4323F00403A84201D0DD
:102B5000B04205D14D6922F4407215438A692A4377
:102B600042608461496841630362F0BD0000014036
:102B700000040140F0B5026A22F010020262026A0B
:102B8000436884690D6824F4E64444EA05248D68AA
:102B900022F0200242EA05120F4D104EA84201D049
:102BA000B04206D1CF6822F0800242EA071222F03A
:102BB0004002A84201D0B04207D14D6923F44063DE
:102BC00043EA85038D6943EA85034360846149686C
:102BD00081630262F0BD000000000140000401407A
:102BE000F0B5026A22F480720262026A4368C46924
:102BF00022F4007224F073050C68124E2C438D6889
:102C000042EA05220E4DA84201D0B04206D1CF685B
:102C100022F4006242EA072222F48062A84201D034
:102C2000B04207D14D6923F4405343EA05138D693F
:102C300043EA05134360C4614968C1630262F0BDA1
:102C4000000001400004014030B5026A22F48052C5
:102C50000262046A4268C3690D6823F4E64343EAEA
:102C600005238D6824F4005444EA0534084DA84235
:102C700002D0084DA84204D14D6922F4804242EAB4
:102C800085124260C36149680164046230BD00007E
:102C9000000001400004014010B5036A046A24F0FA
:102CA00001040462846924F0F00444EA021423F06D
:102CB0000A020A438461026210BD10B5036A23F060
:102CC000100303628369046A23F4704343EA023207
:102CD00024F0A00343EA01118261016210BD10B526
:102CE000806B0021C185C184FFF781F810BD0168A8
:102CF000CA6822F49072CA6001684A6922F001022F
:102D00004A61202180F83A10704710B590F83A10C7
:102D1000222901D0022010BD8168B1F5805F11D059
:102D20000169002901681FD0496801F07F03816AA9
:102D30004A1C82620B70C18D491E0904090CC185B1
:102D400018D02BE00269816A002A0268526805D017
:102D5000D2B20A80816A491C8162ECE7C2F30802A0
:102D60000A80816A891CF7E74A68816A4B1C836282
:102D70000A70E0E70168CA6822F02002CA600168B0
:102D8000CA6822F48072CA6001684A6922F00102AE
:102D90004A61202180F83A10FFF722F9002010BD87
:102DA0002DE9F041044600680169E26821F44051D0
:102DB000114301612169A068E26908436169114317
:102DC00008432168CA6849F20C639A430243CA6007
:102DD00020684169A26921F4407111434161E069B1
:102DE000192764253226B0F5004F354A3549206849
:102DF0004FF0000806D0884201D0904236D1FEF74D
:102E000063FB35E0884201D0904202D1FEF75CFBC3
:102E100001E0FEF749FB61684A18A0FB070148EB97
:102E20000803FDF7CDF90146B0FBF5F00201B1FB57
:102E3000F5F06FF01803584301EB800006EBC0007B
:102E4000B0FBF5F000F0F80002EB4002B1FBF5F04A
:102E5000584301EB800006EBC000B0FBF5F000F03A
:102E60000700216810448860BDE8F081FEF71CFB74
:102E700061688B0F8A00A0FB0701FDF7A1F90146ED
:102E8000B0FBF5F06FF01802504301EB800006EB49
:102E90000010B0FBF5F000F0F002B1FBF5F002EB32
:102EA0000012B1FBF5F06FF01803584301EB8000FE
:102EB00006EB0010B0FBF5F000F00F00D1E70000CA
:102EC000001401400010014090F83910212901D070
:102ED000022070478168B1F5805F016A0BD04A1CFF
:102EE0000262026809785160C18C491E0904090C0C
:102EF000C1840ED017E009880268C1F3080151604F
:102F000001690029016A02D0491C0162ECE7891CB1
:102F1000FBE70168CA6822F08002CA600068C168E5
:102F200041F04001C1600020704700000148FEF7F9
:102F30005FBF0000240300200248012101700078D7
:102F400070470000000000200120704700207047FB
:102F50000248012101700078704700000000002045
:102F600000207047FEE70907090E002804DB00F186
:102F7000E02080F80014704700F00F0000F1E0201E
:102F800080F8141D704702E008C8121F08C1002A0B
:102F9000FAD170477047002001E001C1121F002ADA
:102FA000FBD17047FDF7F6FDFFF7DCFCFFF736F9C4
:102FB000FFF700F9FFF7CCF8FFF76CFAFFF79AF983
:102FC000FFF7B8F9FFF744FAFFF71AF9FFF7EAF944
:102FD000FFF71CFAFEE700061016000610160000A8
:102FE00000000000000001020304060708090000B9
:102FF0000000010203040000183000080000002057
:1030000030000000862F0008483000083000002003
:1030100038C30000962F000801000000392F000877
:10302000512F00084D2F0008612F0008492F00087C
:10303000000000000000000001000000100000007F
:08304000000000000024F40070
:040000050800018965
:00000001FF
