:020000040800F2
:10000000F0C800209D010008072F0008892A000879
:10001000052F000847070008053E00080000000003
:10002000000000000000000000000000733900081C
:100030001108000800000000092F000875390008A9
:10004000B7010008B7010008B7010008B7010008B0
:10005000B7010008B70100081308000821080008CC
:10006000B7010008B7010008B7010008B701000890
:10007000B7010008B7010008B7010008B701000880
:10008000B7010008B70100083D050008B7010008E6
:10009000B7010008B7010008B7010008B701000860
:1000A000B7010008B7010008B7010008B701000850
:1000B000B7010008B7010008B7010008B701000840
:1000C000B7010008B7010008B7010008B701000830
:1000D000B7010008B7010008CD3D0008B7010008CE
:1000E00019080008B7010008B7010008B7010008A7
:1000F000B7010008B7010008B7010008B701000800
:10010000B70100083D2F0008193A0008B7010008A0
:10011000B7010008B7010008253A0008313A000885
:1001200049070008B7010008B70100085507000893
:10013000B70100080000000000000000B70100083F
:10014000B7010008B7010008B7010008B7010008AF
:10015000B701000861070008B7010008B7010008EF
:10016000B7010008B7010008B7010008B70100088F
:10017000B7010008B701000800000000B70100083F
:10018000B7010008B7010008DFF80CD000F07CF9D7
:100190000048004771560008F0C800200648804714
:1001A00006480047FEE7FEE7FEE7FEE7FEE7FEE75C
:1001B000FEE7FEE7FEE7FEE7FD39000889010008DB
:1001C0002DE9F05F0546002092469B46884606468C
:1001D000814640241BE0284641464746224600F01F
:1001E000E5F853465A46C01A914110D311461846B5
:1001F000224600F0CCF82D1A67EB01084F46224644
:100200000120002100F0C3F817EB00094E41201E29
:10021000A4F10104DFDC484631462A464346BDE8E6
:10022000F09FD2B201E000F8012B491EFBD27047CB
:100230000022F6E710B513460A4604461946FFF7B2
:10024000F0FF204610BD10B5044604E00B7800F81E
:10025000013B03B1491C521EF8D2204610BD2DE9C6
:10026000FE4F81EA030404F0004421F000410094B1
:100270004FF0000B23F0004350EA01045ED052EA35
:1002800003045BD0C3F30A54C1F30A552C44A4F20F
:10029000F3340194A0FB0254C1F3130141F4801123
:1002A000C3F3130343F4801301FB024400FB034E2A
:1002B000840A970A44EA815447EA8357A4FB0768F3
:1002C00002958D0A05FB07854FEA932C04FB0C541D
:1002D0002705029D4FEA065847EA1637B5EB080591
:1002E0006EEB070C870E920E47EA811742EA8312E3
:1002F000A7FB0201B6EB0B0164EB00042B0D43EAF4
:100300000C335E1844EB1C50DA465146E7FB020101
:10031000C5F313044FEA0B3343EA14534FEA043294
:10032000019C43EA0603A4F10C040294009CCDE96D
:1003300000B400F05AF803B0BDE8F08F0020014689
:10034000F9E70EB540F2334102910021CDE90011E9
:100350000A460B4600F049F803B000BDC1F30A524B
:1003600010B5C1F3130140F2FF3341F480119A42FA
:1003700001DA002010BD40F233439A42A2F2334228
:1003800003DC524200F012F810BD904010BD202A4C
:1003900004DB203A00FA02F1002070479140C2F1DC
:1003A000200320FA03F3194390407047202A04DB0E
:1003B000203A21FA02F00021704721FA02F3D040DE
:1003C000C2F12002914008431946704710B5141E2F
:1003D00073F1000408DA401C41F1000192185B41FE
:1003E0001A4301D120F0010010BD2DE9F04D9246D5
:1003F0009B4611B1B1FA81F202E0B0FA80F22032EC
:100400009046FFF7C4FF04460F4640EA0A0041EA5F
:100410000B0153465A46084313D0114653EA0100D4
:1004200019D0C8F140025046FFF7C0FF05460E46FE
:10043000504659464246FFF7AAFF084305D001201F
:1004400004E020463946BDE8F08D0020054346EA29
:10045000E0762C4337430A986305E40AA0EB0800D2
:100460000022FD0A44EA47540A3002D50020014622
:10047000E9E7010510196941DDE9084500196941FD
:10048000BDE8F04DA2E70000064C074D06E0E0682D
:1004900040F0010394E8070098471034AC42F6D3CB
:1004A000FFF776FE000903082009030810B501468E
:1004B000806B026C12F0500F05D0026CD20626D56C
:1004C00000F0BCFA10BD016C41F4007101640168D8
:1004D0008A6812F0405F17D1027EAAB9CA6A12F484
:1004E000700F02D08A6852050ED44A6822F02002AA
:1004F0004A60016C21F480710164016CC90403D469
:10050000016C41F00101016400F096FA10BD806BAE
:10051000C26CBDE810400846104710B5806B402102
:100520000164416C41F00401416400F087FA10BDA0
:1005300010B5806B00F081FA10BD0000014800F09A
:100540007EBA000090000020464910B54A6822F4A7
:1005500040324A604A6843681A434A6001684A6800
:1005600022F480724A6001684A68036942EA032201
:100570004A6001684A6822F040724A6001684A682D
:1005800083681A434A6001688A6822F400628A60BC
:1005900001688A68C3681A438A60816A6FF0706272
:1005A000D14201688A6822F070628A6001688A68B4
:1005B0000CD0836A1A438A6001688A6822F040522C
:1005C0008A6001688A68C36A1A4301E022F04052D7
:1005D0008A6001688A6822F002028A6001688A687B
:1005E000037E42EA43028A6090F8201000290168E5
:1005F0004A680FD042F400624A6001684A6822F4F7
:1006000060424A6001684A68174C436A04EB43330E
:100610001A4301E022F400624A600168CA6A22F4C7
:100620007002CA620168CA6A838B104C04EB0353E0
:100630001A43CA6201688A6822F400728A600168FB
:100640008A6890F8303042EA43228A6001688A68FA
:1006500022F480628A6001688A68406942EA8020E8
:10066000886010BD0023014000E0FFFF0000F0FFA4
:1006700010B501248021044800F07CFE012800D040
:100680000024204610BD0000000802407047000012
:100690000146014801F006BB3801002010B50448AE
:1006A00001F012FB042801D0012010BD002010BD74
:1006B0003801002010B500F015F8012801D0012004
:1006C00010BD074801F01AFC040006D14FF4006188
:1006D000034801F09FF900B10124204610BD00003D
:1006E0003801002008B501208DF80000FFF7C0FF99
:1006F00010B900208DF800009DF8000008BD000032
:1007000038B50024009313460A460146034801F019
:10071000DDFC00B10124204638BD00003801002076
:100720007047000038B50024009313460A4601467E
:10073000034801F0CFFD00B10124204638BD000080
:10074000380100207047FEE7014800F041BB00007F
:10075000D8000020014800F03BBB0000BC01002095
:10076000014800F035BB00001C020020016818237E
:10077000CAB2103AB2FBF3F2054B6FF30901032A38
:100780009B5CC36500D9091D816508467047000060
:10079000EF5B000810B5014600208B698A6A4FF0B4
:1007A000C07453B1B3F5005F15D072B1012A0CD0FB
:1007B000022A0AD0032A09D104E01AB1012A06D07C
:1007C000022A03D1C96AC90100D5012010BDC96A36
:1007D000A142FAD010BD002AF7D0012AF2D0022A95
:1007E000F3D0032AF3D010BD30B50468256825F492
:1007F00080252560046863608368402B036803D00C
:1008000099600068C26030BD9A600068C16030BD08
:100810007047012000F0C6BC4FF4004000F0C2BC9D
:10082000022000F0BFBC7047002200F001B80000B9
:1008300030B50E4B054601205C7A002C14D1587A55
:100840001C54587A03EB800045605D7A03F1080080
:100850002A54587A421C5A72303008703A20487034
:100860002F208870CC70002030BD0000E0080020F0
:1008700070B50C46054659212046FFF7D9FCA32048
:100880002070952060708020A0702878E0706878D3
:1008900020710422601D6968FFF7D5FC102204F165
:1008A0000900A968FFF7CFFC04F11900E968BDE869
:1008B00070404022FFF7C7BC70B509480068094A7C
:1008C00080B2116854684CF25033A1FB032604FB3C
:1008D0000363002501FB05311018694170BD00005C
:1008E00024140040480000207047000078B5002420
:1008F000009490F83C20012A19D0012280F83C2075
:100900000A6807230568092A13D9EE680A3A02EB38
:10091000420293409E43EE600B788A680A3B03EBE9
:1009200043039A400368DD682A43DA6010E002203E
:1009300078BD2E6902EB420293409E432E610B78F4
:100940008A6803EB43039A4003681D692A431A61CE
:100950004A681F23072A13D205686E6B521E02EBEA
:10096000820293409E436E630B790A885B1E92B2AB
:1009700003EB83039A4003685D6B2A435A6327E0C5
:1009800005680D2A12D22E6BD21F02EB8202934011
:100990009E432E630B790A88DB1F92B203EB83031D
:1009A0009A4003681D6B2A431A6311E0EE6A0D3A00
:1009B00002EB820293409E43EE620B790A880D3B64
:1009C00092B203EB83039A400368DD6A2A43DA623A
:1009D000164B0568144A9D4206D10D68122D03D1AD
:1009E000556845F48005556005689D4218D10B682F
:1009F000102B01D0112B13D1536843F40003536023
:100A0000096810290CD10A490A4A0968B1FBF2F1B8
:100A100001EB8101490000E0491E00910029FBD152
:100A200080F83C40002078BD0023014000200140B8
:100A30008000002040420F0070477047704770B53B
:100A40000446006801684268C1F34001C2F34012E5
:100A500051B34AB3216CC90603D4216C41F400712F
:100A60002164816811F0405F17D1217EA9B9C16A64
:100A700011F4700F02D0816849050ED4416821F04D
:100A800020014160206C20F480702064206CC00440
:100A900003D4206C40F0010020642046FFF7CCFF17
:100AA00021686FF012000860206801684268C1F395
:100AB0008001C2F3C01289B382B3216CC90603D48A
:100AC000216C41F400512164816811F4401F1ED152
:100AD000816B11F4401F02D08168490517D4416829
:100AE000490514D4816811F0405F10D1217E71B99D
:100AF000416821F080014160206C20F48050206426
:100B0000206CC00503D4206C40F001002064204616
:100B1000FFF7EAFE21686FF00C00086020680168AA
:100B2000426811F0010FC2F380120ED06AB1006862
:100B3000C0070AD0206C40F480302064204600F0CA
:100B400046F821686FF0010008602068016842687B
:100B5000C1F34011C2F3806200290DD0002A0BD0EE
:100B6000616C41F0020161646FF020050560204670
:100B7000FFF764FF2068056070BD70B504004FF09A
:100B8000000503D0206C002610B107E0012070BDE5
:100B9000204600F01DF8666484F83C60206CC006B6
:100BA00010D4206C20F4885040F0020020642046CD
:100BB000FFF7CAFC6664206C20F0020040F00100E0
:100BC000206400E0012584F83C60284670BD704731
:100BD00070B586B0064614216846FFF729FB224906
:100BE000306888423DD121480025016841F4807178
:100BF0000160006800F4807005901C48143801689A
:100C000041F0010101600068694600F001000590B3
:100C1000F22000900320CDE90105154800F0CEFA3E
:100C2000154C1448C4E900050015A560C4E903503B
:100C3000800060618000A0618011E0614002C4E931
:100C40000805204600F094F908B1FFF7ECFDB46305
:100C5000002211461220A66300F00CFC122000F0C6
:100C6000FBFB06B070BD000000200140443802408C
:100C70000000024010640240D8000020F8B50E4683
:100C800000210446009190F83C00012807D0012083
:100C900084F83C0020688368DB0702D011E0022062
:100CA000F8BD836843F0010383603748374B006821
:100CB000B0FBF3F000EB400000E0401E0090002885
:100CC000FBD120688368DB075CD0236C40F20165B0
:100CD000AB4343F4807323644068400505D5206C22
:100CE00020F4005040F480502064206CC00404D5EF
:100CF000606C20F00600606400E0616484F83C10E1
:100D0000A16B2448224DC863A16B23480864A16BE2
:100D10002248C86421686FF022000860206841689A
:100D200041F0806141602068816841F48071816098
:100D30002168134632464C31A06B00F083F9686895
:100D40001749C006206806D088421BD1816811F07F
:100D5000405F13D016E08842F8D0124A904203D187
:100D6000D1F80423D206F1D00F4A90420AD1D1F82B
:100D7000041301F01F011029E8D303E0816841F05A
:100D8000804181600020F8BD8000002040420F00BB
:100D900000230140AD040008310500081B050008D0
:100DA00000200140002101400022014090F8351050
:100DB000022903D08021416501207047052180F878
:100DC00035100068016821F00101016000207047C2
:100DD0002DE9F84304464FF00009CDF80090634830
:100DE0004FF41651A56D0068B0FBF1F72E6894F82A
:100DF0005C10082000FA01F131420FD021680A6826
:100E000052070BD50A6822F004020A6094F85C10BD
:100E10008840A860606D40F00100606594F85C1047
:100E20004FF0010808FA01F0304208D02168496902
:100E3000090604D5A860606D40F00200606594F872
:100E40005C1004208840304208D021680968890776
:100E500004D5A860606D40F00400606594F85C10F3
:100E600010208840304218D021680968090714D53D
:100E7000A86020680168490304D50068000308D50C
:100E8000A16C07E00168C90503D4016821F00801DD
:100E90000160216C09B12046884794F85C1020203D
:100EA0008840304231D021680968C9062DD5A86034
:100EB00094F8350005282068016806D0490347D515
:100EC000006800031DD4616C1CE021F01601016074
:100ED0002068416921F080014161206C08B9A06C53
:100EE00020B12068016821F00801016094F85C10CD
:100EF0003F208840A86084F8349084F83580216DC4
:100F00001FE0E16B09B120468847606D00282BD0B7
:100F1000606DC00714D0052084F835002068016892
:100F200021F0010101600098401C0090B84203D8F4
:100F300020680068C007F6D184F8349084F83580C2
:100F4000E16C002910D001B02046BDE8F04308470D
:100F50000168C905D5D4016821F01001016084F849
:100F6000349084F83580CCE7BDE8F8838000002019
:100F70002DE9F041044600F00FFA06465CB1002569
:100F800084F83450022084F835002068016821F08C
:100F9000010101600DE00120BDE8F08100F0FCF9E5
:100FA000801B052805D920206065032084F83500C2
:100FB000F2E720680068C007F0D122681168204875
:100FC0000140D4E901031843D4E9033633431843FD
:100FD00063691843A3691843E3691843236A1843F4
:100FE0000843616A042903D1D4E90B131943084368
:100FF000106020684069666A20F0070130460E43A1
:10100000012704280CD1A06A0643E06A40B12046BB
:10101000FFF7C0FB20B14020606584F83570BAE767
:10102000206846612046FFF7A1FB94F85C203F2131
:1010300091408160656584F835700020ACE7000060
:101040003F8010F02DE9F0410446866D90F83400A1
:10105000002501280DD0012084F8340094F8357063
:101060000020012F07D084F8340002252846BDE86F
:10107000F0810220FBE7022784F835706065204686
:10108000FFF7B2FB94F85C103F208840B060206806
:10109000016841F016010160206C20B120680168F0
:1010A00041F0080101602068016841F00101016020
:1010B000DCE7000070B5044600F06EF90546601CE0
:1010C00002D004480078044400F066F9401BA042B6
:1010D000FAD370BD7400002070B5304C304D01283B
:1010E0001DD0022838D04FF40046B04216D1314608
:1010F000284600F03FF901284BD03146284600F041
:1011000039F900280AD1FFF7D7FBC4E90E01D4E969
:101110000C23801A61EB0301C4E9100170BD0121A9
:10112000284600F027F9012811D00121284600F0B7
:1011300021F90028F2D1FFF7BFFBC4E90201D4E98D
:101140000023801A61EB0301C4E9040170BDFFF7BD
:10115000B3FBC4E9000170BD0221284600F00AF982
:10116000012811D00221284600F004F90028F2D10C
:10117000FFF7A2FBC4E90801D4E90623801A61EB5A
:101180000301C4E90A0170BDFFF796FBC4E906013B
:1011900070BDFFF791FBC4E90C0170BD0000002099
:1011A00000040240044910B50A68024202D00860F7
:1011B000FFF792FF10BD0000143C01402DE9F84FED
:1011C00000224FF0010803254FF00F0E0B6808FABC
:1011D00002F42340A3426ED14E68012E05D0022EA8
:1011E00003D0112E01D0122E12D186684FEA420C84
:1011F00005FA0CF7BE43CF6807FA0CF73743876050
:101200004668A6430C79C4F3001494403443446008
:10121000C668570005FA07FC8C6826EA0C06BC4035
:101220003443C4604C68022C01D0122C13D1D40872
:1012300000EB8404A346D4F8209054074FEAD46A04
:101240000EFA0AF629EA06090E6906FA0AF646EACD
:101250000906CBF8206006680C7926EA0C0604F033
:101260000304BC40344304604C68E40065D5364C4C
:10127000266846F480462660246822F0030604F4BB
:1012800080440094314C3444A446D4F8084896076E
:10129000370F0EFA07F6B4432D4EB04201D10026A7
:1012A00024E02C4EB04201D101261FE02A4EB0426C
:1012B00002D102261AE040E0284EB04201D10326B6
:1012C00014E0274EB04201D104260FE0254EB04273
:1012D00001D105260AE0244EB04201D1062605E0E0
:1012E000224EB04201D1072600E00826BE40264328
:1012F000CCF808681E4E34684F689C43FF0300D545
:101300001C4334601A4C241D26684F689E43BF035B
:1013100000D51E432660164E083634684F689C433D
:10132000FF0200D51C433460114E0C3634684F6800
:101330009C43BF0200D51C433460521C102AFFF4AA
:1013400045AFBDE8F88F000044380240003001404E
:10135000000002400004024000080240000C02406D
:10136000001002400014024000180240001C02401D
:10137000003C01400069084000D0012070474269EC
:1013800031EA020200D10904816170470AB181612A
:1013900070470904FBE700000148806870470000BF
:1013A000740000200248816802781144816070470F
:1013B000740000200B4810B5016841F40071016011
:1013C000016841F480610160016841F4807101604D
:1013D000032000F06FF8002000F006F800F024F879
:1013E000002010BD003C024070B50D4D04464FF486
:1013F0007A712878B1FBF0F00A490968B1FBF0F086
:1014000001F04EF848B9102C07D200222146501E98
:1014100000F030F800206C6070BD012070BD00004D
:1014200074000020800000200A4808B5016841F4DB
:1014300080410160006800F4804000900548001F72
:10144000016841F080510160006800F08050009018
:1014500008BD000044380240002809DB00F01F02EC
:10146000012191404009800000F1E020C0F8001106
:1014700070470000F0B40E4B1B680C46C3F3022308
:10148000C3F10705042D00D90425191D072901D230
:10149000002300E0DB1E012606FA05F1491E21406B
:1014A00099409E40761E16403143F0BC02F03EBD8E
:1014B0000CED00E0064900F0070208684FF6FF0354
:1014C000184040EA0220034A1043086070470000B9
:1014D0000CED00E00000FA052DE9F0470E4605008E
:1014E00065D0DFF81481D8F80000F7B200F00F00E3
:1014F000B04207D288F80070D8F8000000F00F0062
:10150000B04254D128683D4C810712D5400703D51D
:10151000206840F4E05020602878000703D5206858
:1015200040F4604020602068A96820F0F000084383
:1015300020602878C0072DD0304968680839012814
:1015400012D0022813D0032811D009688907002976
:101550002DDA216821F0030101432160FFF71CFF10
:10156000814641F2883A0EE009688903EFE709688D
:101570008901ECE7FFF710FFA0EB0901514502D903
:101580000320BDE8F0872068696800F00C00B0EB2C
:10159000810FEFD1D8F80010404601F00F01B142A1
:1015A00007D90770006800F00F00B04201D0012099
:1015B000E7E72878400705D52068E96820F4E0507F
:1015C000084320602878000706D52068296920F4A0
:1015D000604040EAC100206000F038F82168084A05
:1015E000C1F30311515CC840064908600648006811
:1015F000FFF7FAFE0020C4E7003C02400838024032
:10160000F75B0008800000207800002004480549AE
:1016100000680968044AC1F38221515CC8407047E0
:101620008000002008380240075C00080448054993
:1016300000680968044AC1F34231515CC8407047F0
:101640008000002008380240075C0008154810B5EB
:10165000006810F00C02144813D01449042A0FD06B
:10166000082A0ED10F4C241F2268236802F03F0283
:101670005B0207D52068C0F38810A0FB010106E0DB
:10168000084610BD2168C1F38811A1FB00010023A9
:10169000FEF796FD2168C1F30141491C4900B0FBEA
:1016A000F1F010BD083802400024F40040787D01BC
:1016B0002DE9F84F04006ED02078DFF83C93C00786
:1016C000A9F104054AD009F104000168C1F38101C0
:1016D000012908D00068C0F3810002280AD1D9F896
:1016E0000000400206D52868800337D560680028CE
:1016F000E1D033E06068B0F5803F10D0B0F5A02FA6
:10170000286810D020F480302860286820F48020D9
:1017100028606068A8B1FFF73FFE06460DE0286824
:1017200040F48030F4E740F480202860F7E700BF01
:10173000FFF732FE801B642873D828688003F7D532
:101740000CE0FFF729FE064605E000BFFFF724FE88
:10175000801B6428F0D828688003F7D42078DFF84D
:101760009C8280074FF0000A3ED5A348001D016807
:1017700011F00C0F08D00068C0F3810002280BD1D3
:10178000D9F80000400207D42868800716D5E06821
:10179000012800D112E02BE1E068B8B10120C8F8BF
:1017A0000000FFF7F9FD064605E000BFFFF7F4FD76
:1017B000801B0228C0D828688007F7D528682169CF
:1017C00020F0F80040EAC10028600DE0C8F800A051
:1017D000FFF7E2FD064604E0FFF7DEFD801B02286E
:1017E0001FD828688007F7D42078000722D5824EBA
:1017F00083486169703671B101210160FFF7CCFD4A
:10180000074604E0FFF7C8FDC01B022809D830686E
:101810008007F7D50EE0C0F800A0FFF7BDFD074632
:1018200005E082E0FFF7B8FDC01B02287DD83068D4
:101830008007F7D42078400768D5DFF8BCB10027CF
:101840000BF13C0BDBF80000C0000BD4DBF8001000
:1018500041F08051CBF80010DBF80000012700F0C8
:1018600080500090674E3068C00510D4306840F456
:1018700080703060FFF790FD009005E0FFF78CFD71
:101880000099401A022850D83068C005F6D55A4E43
:10189000A0686C3601280FD00528306810D020F0E1
:1018A00001003060306820F004003060A068B8B1FA
:1018B000FFF772FD00900FE0306840F00100F4E7A0
:1018C00040F004003060F7E7FFF766FD0099411A29
:1018D00041F28830814266D830688007F4D50EE046
:1018E000FFF75AFD009007E0FFF756FD0099411AF7
:1018F00041F28830814256D830688007F4D42FB145
:10190000DBF8001021F08051CBF80010A069C8B3BB
:101910003949091D0968C1F3810102294AD0022809
:10192000504607D0C8F8600000E03CE0FFF734FD07
:1019300004463BE04746C8F86000FFF72DFD064629
:1019400005E000BFFFF728FD801B02282BD8286880
:101950008001F7D4D4E907010843A16A2A4A49085B
:1019600002EB0141626A41EA8211084394F82C10AB
:1019700040EA0161C9F8001001203866FFF70CFD4C
:10198000044606E036E000BFFFF706FD001B022814
:1019900009D828688001F7D52CE000BFFFF7FCFCD0
:1019A000001B022802D90320BDE8F88F28688001B7
:1019B000F4D41FE00128F7D0D9F80000E26900F460
:1019C0008001914214D1226A00F03F0191420FD16F
:1019D00047F6C071626A0140914209D1A26A00F4DF
:1019E0004031914204D1E16A00F07060884201D038
:1019F0000120D9E70020D7E7043802400000474221
:101A0000800E4742007000400000FFFF10B5FEF757
:101A10003DFE10BD2DE9FE43044603200F4684F829
:101A20003400606C03285AD0B7F5805F57D04FF46C
:101A3000006600254FF08068B7421CD100950195E3
:101A40000021206801F077FA800121D46946204600
:101A500001F0F2FD98BB0198400332D5B4F8500074
:101A60000104206801F0A2FA48BB0221206822E0AC
:101A7000A06B284327E01FB1A06B40F0006022E07C
:101A8000009501950021206801F055FA800101D5EB
:101A90003546EDE76946204601F0CEFD78B901985C
:101AA000C0030ED5B4F850000104206801F07EFA9E
:101AB00028B90021206801F0C6FA0028D8D00546D0
:101AC000D6E74546D4E7A063A06B012558B121684D
:101AD0000C48886384F834500120BDE8FE83A06B75
:101AE00040F08050EFE7211DD4E905060EC90097AC
:101AF000CDE90106206801F027FA84F8345000206F
:101B0000EBE70000FF05400070470000F0B5426EB3
:101B1000920F0A70426EC2F383624A70426EC2F341
:101B200001628A70426E120CCA70B0F86420120A08
:101B30000A7190F864204A71826E120DCA80826E1A
:101B4000C2F303420A72B0F86820C2F3C0324A728C
:101B5000B0F86820C2F380328A72B0F86820C2F30D
:101B60004032CA72B0F86820C2F300320A7300260D
:101B70004E73426C4FF40075012462B1012A3AD0D1
:101B8000026847499163816B41F08051816380F81D
:101B900034400120F0BDB0F86820C36E9205120DEC
:101BA00042EA93720A61C26EC2F3C2620A75C26EE1
:101BB000C2F302624A75C26EC2F342528A75C26EA5
:101BC000C2F38242CA75C26EC2F3C2320A760A6991
:101BD000521C42650B7E03F007039B1C9A40426532
:101BE0000B7A03F00F0704FA07F383655B0A5A4385
:101BF000C0E917250EE090F86820C36E9206920A9D
:101C000042EA13420A610A69521C92024265C0E923
:101C10001652056630F86C2FC2F3803201F8192F86
:101C20000288C2F3C6124A70027802F07F028A70FC
:101C30004268D20FCA704268C2F341720A714268A8
:101C4000C2F382624A714268C2F383528A71426867
:101C5000C2F34052CA710E724268C2F300424A7225
:101C60008288C2F3C0328A728288C2F38032CA721A
:101C70008288C2F340320A738288C2F300324A7308
:101C80008288C2F381228A738288C2F30122CA73D6
:101C90000079C0F3460008744C740020F0BD0000C9
:101CA000FF054000426C0A60826C4A60C26C8A6028
:101CB000026DCA60426D0A61826D4A61C26D8A61BD
:101CC000006EC8610020704770B50446B0F850003F
:101CD00000250104206801F0C0FA18B1A16B01438E
:101CE000A16304E00021206801F025F90546C5F351
:101CF000432070BDF8B5056B04460068416B0904CC
:101D00001BD5290719D5D4E90A56002E14D000276F
:101D1000206801F033F905F8010B010A05F8011BF1
:101D2000010C05F8021B000E361F7F1C05F8010C84
:101D3000082FEDD3C4E90A56F8BD416B4FF00006F9
:101D4000C9054FF0010744D5390281632068C16B92
:101D50004CF23A329143C1632068C16A21F001011B
:101D6000C16228071DD515F0220F09D0206801F0A7
:101D7000A5FA28B1A16B0143A1632046FFF7C4FE79
:101D8000216840F23A50886384F834702663A807CB
:101D900003D0204600F096FAF8BD204600F096FAEF
:101DA000F8BD2806FCD5A80609D5206801F086FAFA
:101DB00028B1A16B0143A1632046FFF7A5FEA80748
:101DC000EED12068C16A21F00801C16284F8347044
:101DD000E3E7416B490424D5290722D5D4E9085605
:101DE000002EDDD05FF0000715F8010B009015F80C
:101DF000011B361F40EA0120009015F8021B40EA43
:101E00000140009015F8011C40EA0160009069460D
:101E1000206801F0C6F87F1C082FE5D3C4E90856F6
:101E2000F8BD416B40F23A221142F9D0416B89076B
:101E300003D5A16B41F00201A163416B090703D5F2
:101E4000A16B41F00801A163416B890603D5A16B29
:101E500041F02001A163416BC90603D5A16B41F09C
:101E60001001A163416B890503D5A16B41F0080105
:101E7000A16340F23A7181632068C16B40F23A324B
:101E80009143C163206801F019FAA16B0843A06374
:101E9000280706D584F8347026632046FFF734FE01
:101EA000F8BD2806FCD515F0300F0CD0E16B1148B9
:101EB0000865E06BFEF77AFF0028F1D0E06BBDE823
:101EC000F84001F097BBA8070CD0216C0A480865C0
:101ED000206CFEF76BFF0028E2D0206CBDE8F840D4
:101EE00001F066BBA66384F8347026632046FFF7D2
:101EF0008DFDF8BDF5350008B135000870B504005A
:101F00000ED094F83400002518B92577204600F04B
:101F10003BF8032084F83400204600F00BF808B1A9
:101F2000012070BDA5632563012084F834000020E2
:101F300070BD0000FEB50025044676200095CDE971
:101F4000015029460B460A46206800F0FDFF08B103
:101F50000120FEBD0B4E46F8A05F206801F006F898
:101F600001253560204601F049FC20B9204601F0EA
:101F7000CDFB0028EDD084F83450A16B0143A16360
:101F8000E6E70000008025422DE9F04F87B00546C6
:101F900014216846FEF74CF94649286888427DD1ED
:101FA00045480068444940F400600860086800F44F
:101FB000006005904048143800683F4940F0040034
:101FC00014390860086800F004000590086840F0C3
:101FD000080008600868022400F0080005904FF42B
:101FE000F850CDE9000402AA002003264FF00C08A7
:101FF00082E8410169463148FFF7E0F802AA002073
:1020000082E841010427CDE9007469462C48FFF7B6
:10201000D5F82D4C2B484FF00068C4E9000800208B
:102020004FF48069A060C4E90309B8024FF4804B03
:10203000C4E9050BC4E909764FF0200A0020C4E981
:1020400007A07E05B7102046C4E90B67FEF790FF96
:1020500008B1FEF7E8FB2C64A5631B4C19486034FB
:102060004830C4E900084020A0600020C4E903090A
:10207000C4E907A00420606204F12802032082E87A
:10208000C1004FF48051C4E9051B2046FEF770FFE4
:1020900008B1FEF7C8FBEC63002200E007E0114640
:1020A0003120A563FFF7E6F93120FFF7D5F907B036
:1020B000BDE8F08F002C0140443802400008024087
:1020C000000C024058640240BC0100202DE9F04F92
:1020D00087B09B4616460D460446FFF75DF9009013
:1020E0003DB194F83400012807D0A06B40F00050B7
:1020F0000DE0A06B40F0006009E00027A763E16DF0
:1021000006EB0B00884204D9A06B40F00070A0637E
:1021100095E0032084F834002068C762606C0128D1
:1021200000D076024FF40071206800F073FFDFF8F2
:1021300090A1012140B12368C3F838A0A26B0243EB
:10214000A26384F834107AE04FF0FF3001904FEA38
:102150004B200290902003900220CDE904070691C5
:102160008846B94601A9206800F0CFFEBBF1010FF7
:1021700006D9022020633146206800F0DFFF05E029
:10218000C4F830803146206800F0F1FF30B1226899
:10219000C2F838A0A16B0143A1634CE0029E1EE08F
:1021A000406B000413D596B10027206800F0E6FECE
:1021B00005F8010B010A05F8011B010C05F8021BCB
:1021C000000E361F7F1C05F8010C082FEDD3FFF71A
:1021D000E3F80099411A109881421DD2E0B12068BD
:1021E000426B40F22A310A42DAD0416BC90509D567
:1021F000BBF1010F06D9616C032903D001F05EF831
:102200000028C4D12068416B09071AD5C0F838A04E
:10221000A06B40F0080051E02168C1F838A0A06B25
:1022200040F00040A06384F83480C4F8309003206C
:1022300007B0BDE8F08F84F83480C4F830900120F6
:10224000F6E7416B890705D5C0F838A0A06B40F0D0
:10225000020033E0416B89061CD5C0F838A0A06BA2
:1022600040F020002AE000BF00F088FE05F8010BD6
:10227000010A05F8011B010C05F8021B000E05F808
:10228000010C361FFFF788F80099411A1098814217
:102290000ED268B12068416B890201D5002EE3D1CE
:1022A000216840F23A50886384F834800020BFE708
:1022B0002168C1F838A0A06B40F00040A063BAE7E5
:1022C000FF05400010B5FEF72BFA10BD10B5FEF764
:1022D00039FA10BD2DE9FF4F8DB016460D46044664
:1022E000FFF75AF80B903DB194F83400012807D05D
:1022F000A06B40F000500DE0A06B40F0006009E0E2
:102300000027A7631098E16D3044884204D9A06B80
:1023100040F00070A0638BE0032084F83400206854
:10232000C762606C012800D076024FF4007120680B
:1023300000F070FEDFF864B1012140B12368C3F8FA
:1023400038B0A26B0243A26384F8341070E04FF0FF
:10235000FF30039010988946400204909020CDE908
:102360000507CDE90771BA4603A9206800F0CDFD45
:102370001098012806D9202020633146206800F0FB
:10238000B7FF05E0102020633146206800F0C9FF48
:102390005FEA000806D02168C1F838B0A06B40EAB7
:1023A000080071E0049E27E0406B40041CD5DEB1BC
:1023B0005FF0000715F8010B009015F8011B361FA0
:1023C00040EA0120009015F8021B40EA014000900D
:1023D00015F8011C40EA016000906946206800F091
:1023E000E0FD7F1C082FE5D3FEF7D6FF0B99411ABD
:1023F0001A98814220D2F8B12068416B40F21A321B
:102400001142D1D0416BC90523D51099012920D99A
:10241000616C03291DD000F051FFD0B12268C2F8D1
:1024200038B0A16B0143A16384F83490C4F830A0A4
:10243000012011B0BDE8F08F2168C1F838B0A06B61
:1024400040EA0800A06384F83490C4F830A0032068
:10245000EFE72068416B090705D5C0F838B0A06BDD
:1024600040F0080010E0416B890705D5C0F838B08E
:10247000A06B40F0020007E0416BC90606D5C0F82A
:1024800038B0A06B40F01000A063CDE740F23A51A5
:10249000816384F834900020CBE70000FF05400002
:1024A00010B5401EB0F1807F01D3012010BD4FF068
:1024B000E02460610F21601701F038FD0020A06169
:1024C00007202061002010BD7047704770B590F85C
:1024D0003C20012A32D0012480F83C40022280F8BE
:1024E0003D2003685A689D6822F070060A683243EE
:1024F0005A60134B02689A4214D0B2F1804F11D047
:10250000104B9A420ED0104B9A420BD00F4B9A426E
:1025100008D00F4B9A4205D00E4B9A4202D00E4B78
:102520009A4204D1496825F080031943916080F8EC
:102530003D40002180F83C10084670BD022070BD6F
:10254000000001400004004000080040000C004072
:1025500000040140004001400018004010B5040094
:1025600003D094F83D0010B107E0012010BD002019
:1025700084F83C00204600F00DF8022084F83D006D
:10258000211D206801F05AFA012084F83D00002046
:1025900010BD000008B51E4A01681E4891420ED1C8
:1025A000016841F0080101600068002200F00800A5
:1025B000009011463220FEF75DFF322022E0164ADD
:1025C00091420ED1016841F01001016000680022C3
:1025D00000F01000009011463620FEF74BFF362029
:1025E00010E00E4A914211D1016841F020010160D2
:1025F0000068002200F02000009011463720FEF70E
:1026000039FF3720BDE80840FEF726BF08BD0000AF
:10261000000C004040380240001000400014004010
:102620000168CA6842F00102CA600068816801F06E
:102630000701062903D0016841F001010160002073
:102640007047704770B50446006801694FF0000597
:10265000C943890715D4C168C943890711D4E91E44
:10266000016101202077206880698007204602D020
:10267000FFF7E7FF04E000F0C1F8204600F056F94C
:10268000257720680169C943490717D4C168C94340
:10269000490713D46FF004010161022020772068FC
:1026A000806910F4407F204602D0FFF7CAFF04E0A3
:1026B00000F0A4F8204600F039F925772068016978
:1026C000C943090716D4C168C943090712D46FF07A
:1026D00008010161042020772068C0698007204636
:1026E00002D0FFF7AEFF04E000F088F8204600F0CB
:1026F0001DF9257720680169C943C90617D4C16847
:10270000C943C90613D46FF0100101610820207776
:102710002068C06910F4407F204602D0FFF791FF87
:1027200004E000F06BF8204600F000F925772068FF
:102730000169C943C90708D1C168C943C90704D1A0
:10274000891E0161204600F015F920680169C9431E
:10275000090609D4C168C943090605D46FF0800190
:1027600001612046FFF7B0FE20680169C9434906B0
:1027700009D4C168C943490605D46FF0400101611D
:10278000204600F013F920680169C94389060BD47B
:10279000C168C943890607D46FF020010161204652
:1027A000BDE87040FFF791BE70BD000010B586B067
:1027B000044614216846FDF73BFD0D492068884218
:1027C00014D10C480021026842F002020260006845
:1027D00000F002000590102000900220CDE90101D8
:1027E000CDE9031069460448FEF7E8FC06B010BDC9
:1027F000000400403038024000040240704770B5C9
:10280000044690F83C000D4601280DD0012684F8BE
:102810003C60022084F83D0042B1042A18D0082A06
:102820002AD00C2A4DD139E0022070BD206801F079
:1028300077F92068816941F0080181612068816928
:1028400021F004018161206881692A69114311E046
:10285000206801F095F92068816941F40061816187
:102860002068816921F480618161206881692A6919
:1028700041EA0221816124E0206801F0B7F9206873
:10288000C16941F00801C1612068C16921F00401FA
:10289000C1612068C1692A69114311E0206801F013
:1028A000D9F92068C16941F40061C1612068C1693A
:1028B00021F48061C1612068C1692A6941EA02216D
:1028C000C16184F83D60002084F83C0070BD10B503
:1028D000040003D094F83D0010B107E0012010BDC2
:1028E000002084F83C00204600F00CF8022084F818
:1028F0003D00211D206801F0A1F8012084F83D0071
:10290000002010BD08B500680649884208D1064875
:10291000016841F002010160006800F002000090CF
:1029200008BD00000004004040380240704700002D
:1029300010B504460068012201F0E4F80B49206854
:10294000884202D00A49884203D1416C41F40041D7
:1029500041642068816801F00701062903D00168FD
:1029600041F001010160002010BD000000000140A5
:102970000004014010B5044600680949884201D1AD
:10298000FEF710FD07492068884207D10648016814
:102990004268491C42F100020160426010BD000023
:1029A000000C00400014004048000020704770B543
:1029B000040004D094F83900002510B106E001208D
:1029C00070BD84F83850204600F022F8242084F8A6
:1029D00039002068C16821F40051C160204601F02F
:1029E00061F92068016921F4904101612068416921
:1029F00021F02A0141612068C16841F40051C160A1
:102A0000E563202084F8390084F83A00002070BD86
:102A100010B586B0044614216846FDF709FC174935
:102A20002068884228D116480021026842F400320A
:102A30000260006800F40030059011481038026808
:102A400042F001020260006800F0010005900C20D5
:102A500000900220CDE9010103200390072004909B
:102A600069460848FEF7AAFB002211462620FEF719
:102A700001FD2620FEF7F0FC06B010BD004400402A
:102A80004038024000000240FEE7000070B500221E
:102A900014A1154802F034F8002821D1062213A110
:102AA000144802F059F810B1082804D006E0114883
:102AB00001F0A8FF02E00DA002F09FF9012209A198
:102AC000002002F01DF800280AD10B4D002400BFA1
:102AD00005EB041001F00CFA641CE4B20B2CF7D3E4
:102AE00070BD000000000000480400206C6F672EDD
:102AF00062696E007C060020C85A00087FB500217C
:102B00002A48009101910291274A03910260012411
:102B10004FF480320461C0E90121047680F820106E
:102B2000234AC0E90A210525C561C16080F830400B
:102B30004161FEF722F808B1FDF775FE0226009408
:102B4000CDE9014669461948FDF7D0FE08B1FDF709
:102B50006AFE0424CDE9004669461448FDF7C6FE26
:102B600008B1FDF760FE0320CDE9005069460F482B
:102B7000FDF7BCFE08B1FDF756FE0620CDE90004C6
:102B800069460A48FDF7B2FE08B1FDF74CFE072082
:102B9000CDE9000569460548FDF7A8FE002801D0EB
:102BA000FDF741FE7FBD00000020014090000020A5
:102BB0000100000F114808B5016841F4800101606F
:102BC0000068002200F48000009011463820FEF7D3
:102BD00051FC3820FEF740FC002211463B20FEF756
:102BE00049FC3B20FEF738FC002211464520FEF749
:102BF00041FCBDE808404520FEF72EBC30380240BD
:102C000070B586B014216846FDF712FB2B480024EE
:102C1000016841F001010160016801F001010591C5
:102C2000016841F002010160016801F002010591B3
:102C3000016841F004010160016801F0040105919F
:102C4000016841F00801016000681D4D00F00800B6
:102C500005900120CDE900051A4E694602943046E0
:102C6000FEF7ACFA0220CDE9000569460294304631
:102C7000FEF7A4FA4FF40040CDE90005694602943E
:102C80003046FEF79BFA002211460620FEF7F2FBC3
:102C90000620FEF7E1FB002211460720FEF7EAFBC3
:102CA0000720FEF7D9FB002211462820FEF7E2FBA1
:102CB0002820FEF7D1FB06B070BD0000303802407E
:102CC000000031100004024010B504490448FDF72B
:102CD000ABFD0249491E087010BD00006D000020C8
:102CE000F0070308F0B587B014216846FDF7A0FA95
:102CF00029480024016841F001010160016801F0E8
:102D000001010591016841F002010160016801F0D3
:102D100002010591016841F004010160016801F0C0
:102D200004010591016841F00801016000681B4E33
:102D300000F0080047F22045059000222946304661
:102D4000FEF724FB164F002240213846FEF71EFBFB
:102D500000950125CDE90154694630460394FEF7FC
:102D60002DFAE802CDE90004694630460294FEF7E8
:102D700025FA40200090CDE9015469463846039475
:102D8000FEF71CFA8020CDE900046946384602941B
:102D9000FEF714FA07B0F0BD3038024000040240DC
:102DA0000008024006480549016000214160816039
:102DB000C16001614161816170470000002C0140E8
:102DC0003801002010B58AB0002407941C21684601
:102DD0000894FDF72DFA18481649016040F2473172
:102DE000C0E901144FF4FA61C0E903148461FFF7EC
:102DF0006EFD08B1FDF717FD079407A90E4808946A
:102E0000FFF764FB08B1FDF70EFD602000909620EF
:102E10000190022002900022694604940648FFF7C0
:102E2000EEFC08B1FDF7FFFC0348FFF7BFFC0AB05A
:102E300010BD0000000400407C0200201CB50024EE
:102E40000E4800940C49019401605321C0E901141B
:102E50004CF250318461C160FFF780FB08B1FDF78F
:102E6000E2FC0094694605480194FFF72FFB002817
:102E700001D0FDF7D8FC1CBD00100040FC02002072
:102E80001CB500240E4800940C49019401605321A4
:102E9000C0E901144CF250318461C160FFF75EFB60
:102EA00008B1FDF7C0FC0094694605480194FFF79E
:102EB0000DFB002801D0FDF7B6FC1CBD001400403E
:102EC0003C03002010B50E4C0C480C2120604FF440
:102ED000E13060600020A060E060C4E90401A0610E
:102EE000E0612046FFF763FD08B1FDF79CFC206818
:102EF000C16841F02001C16010BD000000440040E5
:102F000008040020FEE7704770470A6842624A687A
:102F10008262D1E902231A43D1E904310B43C16A29
:102F20001A4321F0F7011143C16200207047006885
:102F300000F0030070470844406970470148FEF7FD
:102F4000D9BE00003801002070B50DF1100C1143FE
:102F50009CE870002343194329434268314347F6F4
:102F6000FF639A430A434260002070BD10B50321FD
:102F700001600220FEF79EF8002010BDD0F880000E
:102F800070470A688260D1E901231A43D1E903310D
:102F90000B43C1681A436FF30B011143C16000205A
:102FA00070470968C0F880100020704710B586B0DF
:102FB00004463720CDE90010402002900020039005
:102FC0004FF48060049069462046FFF7DAFF41F233
:102FD00088323721204600F0BDF906B010BD000050
:102FE00010B504460A4886B001432920CDE90010F7
:102FF00040200290002003904FF4806004906946C6
:103000002046FFF7BEFF204600F05CFA06B010BD78
:103010000000108010B586B004461020CDE90010E5
:1030200040200290002003904FF480600490694695
:103030002046FFF7A6FF41F288321021204600F01B
:1030400089F906B010BD10B586B004460620CDE95A
:10305000001040200290002003904FF48060049004
:1030600069462046FFF78DFF41F28832062120464F
:1030700000F070F906B010BD30B585B000240546EB
:10308000009401944FF480600294CDE903406946B6
:103090002846FFF776FF0B484FF4FA510068B0FB63
:1030A000F1F041F288314843401E03D24FF0004016
:1030B00005B030BD696B0906F6D5C520A86320466A
:1030C000F6E700008000002070B585B004464FF49C
:1030D000D570009001A908204025002681E86100F4
:1030E000C001049069462046FFF74BFF12484FF499
:1030F000FA510068B0FBF1F041F288314843401EBC
:1031000003D24FF0004005B070BD616B11F0450F68
:10311000F5D00905F3D4606B400701D5042003E026
:10312000606BC00702D00120A063ECE7606B400633
:1031300000D5A5633046E6E78000002010B586B0D4
:1031400004461220CDE90010402002900020039098
:103150004FF48060049069462046FFF712FF41F269
:1031600088321221204600F0F5F806B010BD10B5E7
:1031700086B004461120CDE90010402002900020C6
:1031800003904FF48060049069462046FFF7F9FEF3
:1031900041F288321121204600F0DCF806B010BD63
:1031A00010B586B004460720CDE9002040200290EB
:1031B000002003904FF48060049069462046FFF79A
:1031C000E0FE41F288320721204600F0C3F806B045
:1031D00010BD10B586B0044600210220CDE90010D4
:1031E000C020CDE902014FF480600490694620467A
:1031F000FFF7C7FE204600F03DF906B010BD10B540
:1032000086B004460920CDE90010C02002900020BD
:1032100003904FF48060049069462046FFF7B1FEAA
:10322000204600F027F906B010BD10B586B0044660
:1032300000213320CDE900104020CDE9020100013A
:10324000049069462046FFF79CFE41F28832332104
:10325000204600F07FF806B010BD10B586B00446D9
:103260000D20CDE9001040200290002003904FF483
:103270008060049069462046FFF783FE41F2883261
:103280000D21204600F066F806B010BD30B585B0BF
:103290000C46054600210320CDE900104020CDE971
:1032A00002010001049069462846FFF76AFE2246A3
:1032B0000321284600F028F905B030BD10B586B0CE
:1032C000044600210C20CDE900104020CDE9020188
:1032D0000001049069462046FFF753FE034A0C2183
:1032E000204600F037F806B010BD000000E1F505FB
:1032F00010B586B004461920CDE900104020029098
:10330000002003904FF48060049069462046FFF748
:1033100038FE41F288321921204600F01BF806B031
:1033200010BD10B586B004461820CDE9001040202D
:103330000290002003904FF480600490694620467C
:10334000FFF71FFE41F288321821204600F002F8F4
:1033500006B010BD454B10B51B684FF4FA54B3FBD3
:10336000F4F353435B1E02D24FF0004010BD426B9A
:1033700012F0450FF6D01205F4D4426B520703D574
:1033800004218163084610BD426BD20702D001219F
:10339000816305E0C52282630269D2B28A4201D00C
:1033A000012010BD0021FFF7C6FD3149084201D1BF
:1033B000002010BD002802DA4FF0007010BD41005F
:1033C00001D5402010BD810001D5802010BDC10075
:1033D00002D54FF4807010BD010102D54FF400708A
:1033E00010BD410102D54FF4806010BDC10102D56E
:1033F0004FF4006010BD010202D54FF4805010BDA3
:10340000410202D54FF4005010BD810202D54FF4A5
:10341000804010BDC10202D54FF4004010BD4103F1
:1034200002D54FF4003010BD810302D54FF4802047
:1034300010BDC10302D54FF4002010BD010402D518
:103440004FF4801010BD410402D54FF4001010BDA0
:10345000810402D54FF4800010BD000702D54FF45F
:10346000000010BD4FF4803010BD0000800000202F
:1034700008E0FFFD12494FF4FA520968B1FBF2F17E
:1034800041F288325143491E02D24FF0004070474A
:10349000426B12F0450FF6D01205F4D4416B490788
:1034A00003D50421816308467047416BC90703D0E7
:1034B0000121816308467047C52181630020704760
:1034C000800000200F494FF4FA520968B1FBF2F175
:1034D00041F288325143491E02D24FF000407047FA
:1034E000426B12F0450FF6D01205F4D4416B490738
:1034F00003D50421816308467047C52181630020FC
:10350000704700008000002030B5204B4FF4FA5483
:103510001B68B3FBF4F341F2883463435B1E02D2B1
:103520004FF0004030BD446B14F0450FF6D0240539
:10353000F4D4436B5B0703D504218163084630BD97
:10354000436BDB0702D00121816303E00369DBB237
:103550008B4201D0012030BDC52181630021FFF7DE
:10356000EAFC10F4604F04D0410406D54FF400503B
:1035700030BD000C1080002030BD000402D54FF497
:10358000805030BD4FF4803030BD000080000020FE
:1035900010B5064C01202070FDF780F818B920788E
:1035A00020F001002070207810BD00008C00002069
:1035B00010B5846B40F23A50216888632046FEF7CC
:1035C00083FB012184F8341000212163062801D0F7
:1035D000052805D12068FFF771FEA16B0843A063A1
:1035E000A06B0028204602D0FEF78EFA10BDFEF731
:1035F0000DFA10BD10B5846B40F23A502168886313
:103600002046FEF761FB012184F83410002121637C
:10361000062801D0052805D12068FFF74FFEA16BD1
:103620000843A063A06B0028204602D0FEF76CFA86
:1036300010BDFEF7EBF910BD2DE9F04F89B00D4636
:103640000446FDF7A9FE00268346009601963746FC
:1036500008212068FFF7DEFC002834D1B4F85000C0
:1036600001042068FFF7A2FC00282CD1401E4FF077
:103670000808CDE9020830204FF00209CDE904091D
:103680000120CDE9067002A92068FFF73EFC206802
:10369000FFF7CBFD002816D1EA4640F22A47206802
:1036A000416B394212D1416B890204D5FFF766FCA8
:1036B0004AF82600761CFDF76FFEA0EB0B00401CBD
:1036C000EDD14FF0004009B0BDE8F08F416B090724
:1036D00003D5C0F838800820F5E7416B890703D58A
:1036E000C0F838900220EEE7416B890603D520210F
:1036F00081630846E7E740F23A518163019800BAD6
:103700002860009800BA68600020DCE710B590B02F
:1037100004460120ADF838002068FFF708FC0028B7
:1037200054D0606C032842D02068FFF752FD002877
:103730004AD100212068FFF7FEFB60670421206862
:10374000FFF7F9FBA06708212068FFF7F4FBE067AB
:103750000C212068FFF7EFFBC4F88000606C0328A1
:1037600025D00EA92068FFF791FD00282CD1606CB0
:1037700003281CD0BDF83800206501042068FFF73D
:103780003EFD002820D100212068FFF7D4FB6066B1
:1037900004212068FFF7CFFBA06608212068FFF70F
:1037A000CAFBE0660C212068FFF7C5FB20670421F7
:1037B0002068FFF7C0FB000DE06403A92046FEF778
:1037C000A5F930B14FF0805010B010BD4FF08060BF
:1037D000FAE7B4F85000002302042068FFF7E0FC89
:1037E0000028F1D104F1100007C88DE8070094E823
:1037F0000F00FFF7A9FB0020E6E700002DE9F84FD6
:103800000026044600963546B0460068FFF734FCB3
:10381000002827D12068FFF757FC4FF0805B4FF05E
:1038200001094FF6FF7748B1A6642068FFF724FC32
:10383000002817D1A06C012802D020E0C4F84890DD
:1038400000212068FFF7B2FB58B918E0002120687A
:10385000FFF7ACFB002805D151462068FFF7C0FBFD
:1038600010B15846BDE8F88F00212068FFF763FBD0
:1038700005464FEAD0780098401C009002E0DFF83F
:103880002CA00098B84202D2B8F1000FDED0009808
:10389000B84202D34FF08070E4E7680002D5C4F864
:1038A000449000E066640020DCE70000000010C1E6
:1038B00070B5064C054601202070FCF7FBFE18B9D8
:1038C0002846FFF765FE2070207870BD8C00002030
:1038D00010B5124888B014460078C00702D0032003
:1038E00008B010BDC1B1012905D0022908D00329B3
:1038F0000CD00420F4E76846FCF7CAFE06980AE0FC
:103900006846FCF7C5FE0798208005E06846FCF78E
:10391000BFFE0798400A20600020E1E78C000020ED
:1039200070B51D46164608460124A31E2A46314698
:10393000FCF7E6FE28B900BFFCF7B0FE0028FBD17B
:103940000024204670BDFFF723BE000070B51D4661
:10395000164608460124A31E2A463146FCF7E2FE1D
:1039600028B900BFFCF79AFE0028FBD100242046AE
:1039700070BD7047FDF716BD30B593B03021684675
:10398000FCF756FC14210CA8FCF752FC1948002542
:10399000016841F080510160006800F08050119092
:1039A0001548016841F4804101600068022400F478
:1039B0008040119001200390102004900094069400
:1039C0000820CDE90750A820CDE9090407200B9075
:1039D0006846FDF76DFE0CA90F2081E831004FF419
:1039E000A0500F90E002109005210CA8FDF774FD87
:1039F00013B030BD403802400070004005480168F7
:103A000041F47001016003494FF0006080390860A3
:103A10007047000088ED00E00148FEF713BE00008B
:103A2000BC0200200148FEF70DBE0000FC02002091
:103A30000148FEF707BE00003C030020F0B5026815
:103A4000254C264D264E274F274B4FF0804CA04249
:103A500009D0604507D0A84205D0B04203D0B84293
:103A600001D0984204D122F0700E4A6842EA0E0258
:103A7000A0421BD0604519D0A84217D0B04215D043
:103A8000B84213D0984211D0184DA8420ED0184D0C
:103A9000A8420BD0174DA84208D0174DA84205D018
:103AA000164DA84202D0164DA84203D122F440750B
:103AB000CA682A434D6922F080022A4302608A685C
:103AC000C2620A688262A04201D0984201D10969AB
:103AD000016301214161F0BD00000140000400408C
:103AE00000080040000C004000040140004001407C
:103AF000004401400048014000180040001C004004
:103B00000020004010B501F01F030121046A994014
:103B10008C430462016A9A401143016210BD0000A7
:103B2000F0B5026A22F001020262036A4268846907
:103B3000124E24F073050C682C4323F002058B68A9
:103B40002B430D4DA84201D0B04205D123F0080708
:103B5000CB683B4323F00403A84201D0B04205D117
:103B60004D6922F4407215438A692A434260846198
:103B7000496841630362F0BD000001400004014058
:103B8000F0B5026A22F010020262026A4368846998
:103B90000D6824F4E64444EA05248D6822F02002EE
:103BA00042EA05120F4D104EA84201D0B04206D194
:103BB000CF6822F0800242EA071222F04002A842B7
:103BC00001D0B04207D14D6923F4406343EA850335
:103BD0008D6943EA850343608461496881630262B9
:103BE000F0BD00000000014000040140F0B5026A91
:103BF00022F480720262026A4368C46922F400728D
:103C000024F073050C68124E2C438D6842EA05229D
:103C10000E4DA84201D0B04206D1CF6822F4006216
:103C200042EA072222F48062A84201D0B04207D1C2
:103C30004D6923F4405343EA05138D6943EA0513A4
:103C40004360C4614968C1630262F0BD0000014085
:103C50000004014030B5026A22F480520262046A14
:103C60004268C3690D6823F4E64343EA05238D687F
:103C700024F4005444EA0534084DA84202D0084D0B
:103C8000A84204D14D6922F4804242EA8512426082
:103C9000C36149680164046230BD00000000014056
:103CA000000401402DE9F041044600680169E26822
:103CB00021F44051114301612169A068E269084380
:103CC0006169114308432168CA6849F20C639A4349
:103CD0000243CA6020684169A26921F4407111431E
:103CE0004161E069192764253226B0F5004F354A55
:103CF000354920684FF0000806D0884201D0904234
:103D000036D1FDF793FC35E0884201D0904202D1D4
:103D1000FDF78CFC01E0FDF779FC61684A18A0FB17
:103D2000070148EB0803FCF74BFA0146B0FBF5F03E
:103D30000201B1FBF5F06FF01803584301EB80006E
:103D400006EBC000B0FBF5F000F0F80002EB40021B
:103D5000B1FBF5F0584301EB800006EBC000B0FB6F
:103D6000F5F000F00700216810448860BDE8F0819C
:103D7000FDF74CFC61688B0F8A00A0FB0701FCF784
:103D80001FFA0146B0FBF5F06FF01802504301EB4B
:103D9000800006EB0010B0FBF5F000F0F002B1FB84
:103DA000F5F002EB0012B1FBF5F06FF01803584389
:103DB00001EB800006EB0010B0FBF5F000F00F0007
:103DC000D1E70000001401400010014038B50C4C50
:103DD00020680168C943890609D44068C1B2A4F1CA
:103DE0008C0001F0A1F921686FF0200008602068C4
:103DF0000168C943090702D401684068009038BDD2
:103E000008040020FEE7000004494A6A824201D209
:103E100001207047002048627047000000100040F9
:103E20002DE9F0410D4606462DED028B002228A11A
:103E3000284800F065FE20B10120BDEC028BBDE8F2
:103E4000F081322224A1264800F086FE08B102202B
:103E5000F3E7244A1EA0111D00F0E8FD08B103207D
:103E6000EBE7204C206881694789891E01FB07F038
:103E7000FCF767FA9FED1C8B53EC182BFCF7EFF95E
:103E8000FCF76CFAA060616807FB01F0FCF759FAD7
:103E900053EC182BFCF7E3F9FCF760FAE06060B133
:103EA00004F110032A4631460D4800F0F9FF0C4892
:103EB00000F0A8FD18B10520BFE70420BDE70122EE
:103EC00003A1002000F01CFE0028B6D00620B4E7B5
:103ED00000000000480400206C6F672E62696E00CD
:103EE0007C06002050000020000000000000E03FA1
:103EF00000B597B06946FCF7BBFC59216846FFF74F
:103F00008FFF17B000BD00007FB5074D78CD8DE85D
:103F10007800CDF80300CDF80710ADF80B200D2187
:103F20006846FFF77DFF7FBD785B00080907090E33
:103F3000002804DB00F1E02080F80014704700F056
:103F40000F0000F1E02080F8141D704702E008C85F
:103F5000121F08C1002AFAD170477047002001E003
:103F600001C1121F002AFBD17047000010B50446A2
:103F70000020E070401E2063204601F0EEFB08B1F7
:103F8000042010BD04F2322001F06CFBA0F52A41A0
:103F9000553901D0032010BD94F83400E92805D02C
:103FA000EB2814D194F83600902810D104F16A005F
:103FB00001F04DFB0749B1EB002F06D004F186005C
:103FC00001F045FB0449884201D1002010BD0220C8
:103FD00010BD0000004641544641543300E0401CEF
:103FE00002780AB18A42FAD1D0B27047F0B5002205
:103FF000144D134605EB021426685EB10768BE42F5
:1040000009D166688768BE4205D1A4684669B44292
:1040100004D000E00123521C022AEBD3022A01D073
:1040200069B904E04BB9022907D01220F0BD05EBB5
:1040300002108089B0F5807F01D00020F0BD1020F3
:10404000F0BD0000C008002030B50021054B0C4633
:1040500003EB01121568854200D11460491C022946
:10406000F6D330BDC00800200268490AC06A5289F0
:10407000B1FBF2F1001D04C81AB1914203D3891AB1
:10408000F8E7002070470068084470478269891E7D
:10409000921E8A4201D800207047C26A408901FB03
:1040A000002070472DE9F05F82460C4601F11A00AE
:1040B00001F0D8FA78BB2078012700F03F00401EBD
:1040C00000EB8001DFF8589001EBC00500264FF6A9
:1040D000FF7B00BF19F80600204401F0C3FA8046B8
:1040E0006FB1FF2D17D200F0C9FF07463AF815004F
:1040F0006D1C00F0C3FF87420DD1474601E0D84553
:1041000009D1761C0D2EE5D32078400606D52FB1B7
:104110003AF8150010B10020BDE8F09F0120FBE740
:10412000105C00082DE9F04105680F00804606D0BC
:1041300001F0BAF9022809D20120BDE8F0812E6908
:1041400016B1A869B04207D8012605E0411CF4D099
:10415000A9698142F1D83E463446A869641CA04250
:1041600002D80224022E0AD32146404601F09CF9CF
:1041700038B10128E1D0411CDFD0B442EDD100209C
:10418000DBE74FF0FF3632462146284601F038FB88
:1041900030B957B122463946284601F031FB20B1EB
:1041A00001280FD001242046C7E72C61D5E905017D
:1041B000891E884201D8401E6861287940F00100BC
:1041C0002871F0E73446EEE72DE9F84F82460068A3
:1041D0000F680024C66888462546785D6D1C202837
:1041E0002AD32F2823D05C2821D0FF2C49D2A0F13C
:1041F00081017D290BD8795D6D1C01EB0020A1F1B7
:10420000400280B23F2A02D380397F2939D201216E
:1042100000F00EFF5FEA000933D0B9F1800F12D22F
:10422000014675A0FFF7DAFE58BB0CE06D1C795D06
:104230002F29FBD05C29F9D07A19C8F80020202852
:1042400005D204250FE026F81490641CC5E700256C
:1042500009E000BF06EB440030F8020C202801D032
:104260002E2802D1641E002CF4D1002026F8140060
:104270003CB10B2220210AF1240001F067FA00274B
:1042800003E00620BDE8F88F7F1C36F817002028D1
:10429000FAD02E28F8D01FB145F0030500E0641EC7
:1042A0002CB106EB440030F8020C2E28F7D14FF069
:1042B00000094FF0080BCDF8009000BF36F817004A
:1042C00007F101075FEA000824D0B8F1200F04D0FD
:1042D000B8F12E0F04D1A74202D045F00305EDE757
:1042E0000098584501D2A74219D1BBF10B0F0FD04E
:1042F000A74201D045F003050CD84FF0080000900C
:104300004FEA896027464FF00B0B4FEA1069D5E75B
:1043100045F003059AF82400E52849D04BE04046D3
:10432000B8F1800F07D300F0A9FE002100F080FE55
:10433000804645F00205B8F1FF0F13D90099ABF1A3
:104340000100814204D345F00305CDF800B0B5E784
:104350000AEB01004FEA182280F824200098401C44
:1043600000901CE0B8F1000F04D0014625A0FFF733
:1043700035FE20B14FF05F0845F003050FE0A8F1CE
:104380004100192802D849F0020908E0A8F16100AB
:10439000192804D8413049F001091FFA80F8009A21
:1043A0000AEB020181F824800098401C009085E708
:1043B00005218AF82410BBF1080F03D14FEA896068
:1043C0004FEA1069C9F38100032803D06FEA09019D
:1043D000890701D145F00205A90709D409F00301B5
:1043E000012901D145F01005012801D145F008054A
:1043F0008AF82F50002045E7222A3A3C3E3F7C7F36
:10440000000000002B2C3B3D5B5D0000401E02289D
:1044100012D20A4901EB00118889B0F5807F05D0DE
:1044200008B1401E80B2888110B103E00020FAE795
:10443000002008600020704702207047C00800205C
:104440002DE9F04704460021D0F8009000F04FFA23
:1044500000285BD1FF25471EA84627634846E1692F
:1044600001F07BF9060050D1216A087850B1CA7A70
:10447000E52802F03F02A2713FD0130704D50F2AAE
:104480003BD105E0042640E00F2A01D0E5B120E051
:1044900094F82F20520632D4420606D591F80D80AA
:1044A00000F0BF00626905462263A84209D14A7B39
:1044B000424506D1D9F80C00FFF7F4FD08B16D1E96
:1044C00000E0FF25EDB21AE0084601F068FA404529
:1044D0001BD094F82F00C0070FD1D4F8201004F19E
:1044E00024000B2211F8013B10F8015B5B1B521EEC
:1044F00002D0002BF6D000E03BB1FF25276300215E
:10450000204600F005F80600A8D03046BDE8F08748
:104510002DE9F047054647690468C0698946203798
:1045200010B1B7F5001F02D30420BDE8F087F905EC
:1045300060D1401CE861A9694FF0000829B1608989
:10454000401E10EA572F05D054E02089B0EB571FCA
:104550001DD94FE0284600F0A7FF064601281BD9C9
:10456000701C33D0A069B0423ED8B9F1000F0ED014
:104570002846A969FFF7D6FD06000BD0012E0BD007
:10458000701C23D0204601F05BFAF8B906E0C5F8AC
:104590001C80C9E70720C8E70220C6E74FF4007275
:1045A000002104F1340001F0D1F84FF00008314649
:1045B0002046FFF76BFD4FF0010920630DE000BFBF
:1045C00084F80390204601F03BFA08B10120ACE7E3
:1045D000206B08F10108401C206361894145EFD838
:1045E000216BA1EB0800206331462046AE61FFF746
:1045F0004DFDE861C7F30800204434306F61286244
:10460000002092E72DE9F0470426FF24894605465D
:104610002746D0F8008047E0404601F09EF80600AB
:1046200046D1296A087880B1CA7AE52802F03F02AB
:10463000AA7108D02E2806D022F02003082B06D01D
:10464000B446CC4506D0FF241EE0042630E04FF0EF
:10465000010CF6E70F2A01D014BB1CE0420605D579
:104660004F7B00F0BF006A6904462A63A04209D16B
:10467000487BB84206D1D8F80C0001F087F808B1A1
:10468000641E00E0FF24E4B200212846FFF740FF4B
:10469000060009D00CE0084601F081F9B84209D0C3
:1046A0004FF0FF30286305E0E9690029B4D10EB16D
:1046B0000020E8613046BDE8F08700002DE9F04FAA
:1046C0000446D0F8009090F82F0089B010F0A00FA9
:1046D00003D0062009B0BDE8F08F0025D9F80C0002
:1046E00000E06D1C30F815100029FAD104F1240106
:1046F0000C226846039101F01FF89DF80B00C007DB
:1047000019D0402084F82F00012633466946D9F895
:104710000C20039800F082FE2046FFF791FE10B9AE
:10472000761C642EF1D3642E0FD00428D2D19DF8CC
:104730000B0084F82F009DF80B00800707D50D2093
:104740000C35B5FBF0F56D1C02E00720C2E7012532
:1047500000212046276800F0CAF888B900263846AC
:10476000E16900F0FAFF58B9206A0078E5280AD01C
:1047700048B1002601212046FFF7CAFE0028EED0EE
:10478000042812D012E0761C2846AE42F2D1451E13
:10479000059567D06169684201EB4011204600F041
:1047A000A6F85FEA000803D076E00720804673E0B1
:1047B000039801F0F4F84FF6FF7B07904846E16953
:1047C00000F0CBFF5FEA000866D1D9F80C00069034
:1047D0000598D4F82080C0B20490079988F80D108D
:1047E0000F2188F80B10002188F80C1008F11A002E
:1047F00001F0D1F80498DFF8A4A0401E00EB80017E
:1048000001EBC006002701E05D4503D0069830F8B3
:104810001650761C1AF8071001EB0800294601F023
:10482000BAF805B95D467F1C0D2FEDD35D4505D067
:10483000069830F8160008B1049803E0049840F098
:104840004000049088F80000012189F8031000213D
:104850002046FFF75DFE5FEA00081DD10598401E67
:104860000590ABD14846E16900F077FF5FEA0008A8
:1048700012D120220021206A00F068FF0B22206A5A
:10488000039900F059FF94F82F00216A00F01800F6
:104890000873012089F8030040461BE7105C0008FC
:1048A0002DE9F041016B044646690568481C04D0B7
:1048B000204600F01CF8002817D1E5274FF001082A
:1048C0002846E16900F049FF60B9216A0F7085F858
:1048D00003806169B14208D200212046FFF718FE2B
:1048E0000028EDD0042800D10220BDE8F0812DE998
:1048F000F04107680E460546B1F5001F36D2F006B6
:1049000034D16E61AC6824B93878032805D3BC6A09
:104910001CB178894FEA402812E03889B0EB561F65
:1049200024D9B86A12E0284600F0BEFD0446401CB7
:104930001AD0022C1AD3B869A04217D9A6EB0806E0
:1049400046452146EFD23846FFF7A0FBC5E90640B1
:1049500060B100EB5620E861C6F3080038443430FB
:1049600028620020BDE8F0810120FBE70220F9E782
:10497000084910B50B5C002253B901220A540A18E9
:1049800001EB8000127A40680168104688470246B1
:10499000104610BDE008002030B4054C231804EB8D
:1049A00080001B7A406804691846A44630BC604702
:1049B000E008002030B4054D2C1805EB8000247A67
:1049C000406885682046AC4630BC6047E00800205F
:1049D000044A111802EB8000097A406842680846D0
:1049E00010470000E008002030B4054D2C1805EBFE
:1049F0008000247A4068C5682046AC4630BC6047D9
:104A0000E008002038B5044600F0B0F900280CD1C9
:104A10006946204601F03DF8002806D12069FFF7DD
:104A2000F5FC002801D10021216038BD2DE9F747B0
:104A300087B014468A460022694607A800F08AFB20
:104A40005FEA000958D1009820600098D0E9051766
:104A5000BA1E914202D8CAF800104DE001784FF01A
:104A60000008012901D0466A19E00224019021467C
:104A700001A800F019FD411C03D0012803D028B182
:104A800006E0012000E0022081462CE008F1010848
:104A90000098641C80698442E9D324E05DB9314602
:104AA000761C009800F059FE5FEA00091BD1009CBB
:104AB0004FF400753434009800780228204604D062
:104AC00000F0C5FD000108D009E000F0CBFD08B9F9
:104AD00008F10108A41CAD1E03E008F10108241D23
:104AE0002D1F7F1EDAD1CAF800800098C0F814800C
:104AF000017941F0010101710AB04846BDE8F08733
:104B00002DE9F74181B0904602980090684600F088
:104B10002CFD040003D50B2004B0BDE8F0810D4E40
:104B2000002756F824501DB12846FFF78DFA2F7044
:104B30000198002800D0077046F8240002D0B8F190
:104B4000010F01D00020E7E7002201A902A800F030
:104B500001FBE1E7880000202DE9F743ADF5147D66
:104B600005000BD002F03F063246694695A800F0DA
:104B7000F1FA04004FF0000805D0EFE009200DF530
:104B8000177DBDE8F083009810A90190C16001A8CD
:104B9000959900F009FC04000ED19DF83300000641
:104BA00001D5062408E0700801D0012100E00021B1
:104BB00001A8FFF71BFA044616F01C0F5DD04FF05A
:104BC0000109C4B1042C10D10020674902E0401C47
:104BD000022804D201EB00121268002AF7D1022841
:104BE00007D001A8FFF76AFD044646F008065CB14D
:104BF000B4E01224B2E09DF80A0010F0110F47D182
:104C0000700701D50824A9E0300747D500F0ABFCB8
:104C10000746099839460E3000F0B5FE0998394626
:104C2000163000F0B0FE09992020C872099900984A
:104C300000F0FAFC074600220999009800F08FFE68
:104C4000099800211C3000F09EFE009981F8039025
:104C500017B3D1F830900022394601A800F045FE84
:104C600004007BD14946009800F077FD04000098CD
:104C7000A7F1010707610DD070E0ECBB9DF80A00B9
:104C8000C10601D5042469E0B10703D5C00701D0EE
:104C9000072463E0300701D546F040060098006B1A
:104CA00068620998A862700801D0012100E0002123
:104CB00001A800F079FC2861B8B30999009800F0C8
:104CC000B3FCA86009981C3000F0C1FCC5F82C802A
:104CD000E86000992960009905F130004FF40072F6
:104CE000C988A9802E7585F81580C5F82080002117
:104CF0008146C5F8188000E030E000F027FDB006DE
:104D00002ED5EE6866B3AE610098A9684089470267
:104D10000FE0284600F0C8FB0146012800D8022415
:104D2000481C03D0F61B24B105E01BE00124F61B50
:104D300001E0BE42EDD8E96184B9F00510D00098D9
:104D4000FFF7A4F970B100EB56222A620098012304
:104D500049464078FFF72EFE10B10124C5F80080C7
:104D600020460CE70224F9E7C0080020F8B5044605
:104D7000694600F08EFE00280ED1217D4A060BD533
:104D800008060ED50098226A0123407804F130010C
:104D9000FFF72AFE08B10120F8BD207D00F07F005A
:104DA000207500F0E0FB0646616A009800F0D5FC33
:104DB0000028F1D1A56A2946E87A40F02000E8727F
:104DC000A268206800F0CBFD05F11C00E16800F04E
:104DD000DAFD314605F1160000F0D5FD002105F1A0
:104DE000120000F0D8FD00980121C17000F0E4FD30
:104DF000217D01F0BF012175F8BD11B5ADF51D7D17
:104E000002228DA99DA800F0A5F98D990091002896
:104E100012D10DA8C86068469D9900F0C5FA002817
:104E20000AD102216846FFF7E1F8002804D19DF875
:104E30002F00000603D506200DF51E7D10BD9DF840
:104E40000600C00701D00720F6E708998D9800F00A
:104E5000EBFB04469DF80600C00610D58D988F9098
:104E6000002191948FA8FFF742FD0028E4D1002192
:104E70008FA8FFF7C7FB0028E5D00428DCD16846DF
:104E8000FFF70EFD0028D7D134B100222146684635
:104E900000F02BFD0028CFD18D9800F08DFDCBE7E1
:104EA0002DE9FE4F044600208846186099461546B5
:104EB00002A9204600F0EDFD002806D1607D002803
:104EC00003D1207D800702D40720BDE8FE8FA069B2
:104ED000012742194FF0020A04F1300B824200D23E
:104EE000C5439BE0A169C80575D102984089401E61
:104EF00010EA512618D129B1E06A38B12046FFF7EF
:104F0000B3F807E0A06838B9002100E0E169204665
:104F1000FFF708F900287DD001282DD0411C54D07E
:104F2000E061A16801B9A060207D00060BD5029860
:104F3000226A012340785946FFF756FDA0BB207D29
:104F400000F07F002075E1690298FFF79FF898B1A3
:104F500030440190680A009027D0321802984189A5
:104F60008A4201D9891B0091DDE90032407841462F
:104F7000FFF73AFDC0B903E084F815A00220A4E7CA
:104F8000216A0198081A009988420AD208EB402148
:104F90004FF40072584600F0CFFB207D00F07F00F8
:104FA00020750098460228E00FE0216A01988142AE
:104FB0000FD0E168A06988420BD2029801235946BC
:104FC0004078019AFFF7F6FC18B1677501207CE77D
:104FD00001E001982062208BC0F30800C0F5007644
:104FE000AE4200D92E46204432464146303000F0D1
:104FF000A3FB207D40F080002075A069B0443044C0
:10500000A061E168884200D80846E060D9F8000055
:10501000811900E005E0AD1BC9F80010002D7FF4F8
:1050200061AF207D40F04000207500204DE700007A
:1050300070B580281BD345F2205309B10D4D00E017
:105040000D4D002110245A1A02EBD27201EB6202BC
:1050500035F82260864206D001D2114600E01346A0
:10506000641EF0D104E01CB105EB8200408870BDE5
:10507000002070BDBEB001083A5C000830B5B0F544
:10508000805F01D21B4900E01B4931F8022B002A46
:1050900015D0904213D331F8024B230AE5B252FAED
:1050A00084F4844221D9092B09D2DFE803F00509F1
:1050B0000E11131517191B00801A31F8100030BD9E
:1050C000811A01F00101401A00E0103880B230BDB1
:1050D0002038FBE73038F9E71A38F7E70830F5E70A
:1050E0005038F3E7A0F5E350F0E7002BCDD101EB0A
:1050F0004501CAE7420503083407030810B50489CF
:1051000000F003F8201A80B210BD8288C18800899F
:105110008B1A9BB2914202D2821A11448BB2B3FB1A
:10512000F0F100FB113070472DE9F041C588884649
:10513000044607890668FFF7E1FF002808D006F853
:1051400005806D1CA8B2B84200D30020E080012089
:10515000BDE8F0812DE9FF41002790460E460F6023
:1051600000F003FA050003D50B2004B0BDE8F08180
:105170008A4850F825409CB13460207808F0FE063B
:1051800020B16078FFF724FCC1070BD02770E8B28C
:10519000B8466070FFF7ECFBC10708D00320E4E7D6
:1051A0000C20E2E70EB1400704D40020DDE71EB179
:1051B000400701D50A20D8E7002631462046FEF7F1
:1051C000D5FE022822D100254FEA0D0704EB051079
:1051D00090F8F61100F5F97019B1083000F037FABF
:1051E00000E0002047F825006D1C042DEED30025BB
:1051F00057F8256036B131462046FEF7B7FE022843
:1052000001D203E003206D1C042DF1D3042809D042
:1052100002286DD204F13F0000F024FAB0F5007FBF
:1052200066D101E00120A0E704F14A0000F01AFA7B
:1052300018B904F1580000F00AFAE06194F84450FB
:10524000A570012D01D0022D52D1454394F84100A3
:105250006081E8B3411E08424AD104F1450000F0E4
:1052600001FA2081000743D104F1470000F0FAF968
:10527000070004D104F1540000F0E9F9074604F1F5
:10528000420000F0EFF9010032D02389481900EB09
:10529000131297422CD3B81A6789B0FBF7F0B8B154
:1052A00003274FF6F57C604500D8022740F6F57CD1
:1052B000604500D80127801C3244E2623144A0617D
:1052C000C4E90861032F15D013B12944A16200E09D
:1052D0000EE0022F1FD000F0010100EB400001EBB7
:1052E000500000BFE16900F2FF10B1EB502F14D263
:1052F0000D203AE704F15E0000F0B4F90028F7D180
:1053000020890028F4D104F1600000F0A0F9A06227
:10531000A0698000E6E74000E4E74FF0FF306061FD
:10532000206180202071032F2CD104F1640000F053
:1053300099F9012826D1711C204600F00EFA08BB0D
:1053400084F8048004F2322000F08CF9A0F52A41A0
:10535000553917D104F1340000F079F91049884229
:1053600010D104F5067000F072F90E49884209D197
:1053700004F5077000F06BF9606104F5087000F047
:1053800066F9206105492770091F0888401C0880BC
:10539000E0802046FEF758FE07E700008800002066
:1053A000525261417272416173B5044605680198B9
:1053B00001E0401C019001782F29FAD05C29F8D037
:1053C0000021A16001980078202806D2802084F86E
:1053D0002F002046FFF78BFA7CBD01A92046FEF77F
:1053E000F3FE0028F8D12046FFF72AF894F82F1092
:1053F00028B10428F0D14907EED405207CBD490727
:10540000FCD4A079C006F8D5A08AC0F308004119E1
:105410002846343100F008F9A060DEE77CB5164676
:105420001C4605460B2200F087F9052C11D91D4AB0
:105430000CE00021B61C2346044663F35F044008D9
:10544000E30300D55440491C1029F4D330880028C8
:10545000EFD107214FEA0D0304F00F003030392857
:1054600000D9C01D5854491E2409F5D17E200022C0
:1054700058544C1E06E081387D2802D8A24206D03E
:10548000521C521C8A4202D2A85C2028F3D108295F
:1054900002D2585C491C00E02020A854521C082A63
:1054A000F5D37CBD211001002DE9F04104680D46C3
:1054B00002290BD3A069A84208D920784FF0FF3603
:1054C000012807D002282BD0032839D001263046E6
:1054D000BDE8F081606A05EB550700EB57212046D7
:1054E00000F03BF90028F2D1C7F3080020447F1CEC
:1054F00090F83480606A00EB5721204600F02DF9C7
:105500000028E4D1C7F30800204490F8341048EA9A
:105510000120E90701D00609D9E7C0F30B06D6E759
:10552000606A00EB1521204600F017F90028CED163
:10553000E8B204EB4000343000F094F80646C6E7C9
:10554000606A00EBD511204600F007F90028BED1B3
:1055500040F2FF1000EA85002044343000F077F874
:1055600020F07046B3E70020704710B504464FF0B6
:10557000FF302268002A13D0114600E0491C0B7846
:10558000202B0ED33A2BF9D112F8013B303B0A2BDA
:1055900006D28A4204D1002B02D1491C1846216050
:1055A00010BD002010BD0000F0B502461D4BD2F822
:1055B0000050002003EB00142668AE4207D1666855
:1055C0009768BE4203D1A4685669B44202D0401C19
:1055D0000228EFD3022814D1002002E0401C022848
:1055E00004D203EB00142468002CF7D102280ED05B
:1055F00003EB00142560956865605269A260002283
:10560000A281002903EB0011898902D019B1002081
:10561000F0BD491C01E04FF4807103EB0012401C07
:105620009181F0BDC008002070B506460D4601F11D
:105630001A0000F017F804463078032805D105F168
:10564000140000F00FF844EA0044204670BDC17811
:10565000827842EA01214278007842EA012140EA58
:10566000012070474178007840EA0120704700002F
:10567000FBF7A0FEFEF780F9FDF734FBFDF7C0FA5B
:10568000FDF798FAFDF73AFA052224492448FBF77A
:10569000F5FAFDF717FCFDF785FBFDF715FBFDF7A8
:1056A000F5F9204C012220212046FBF76FFEFDF783
:1056B00089FB00211C48FDF73BF9FDF7BFFB1B48A8
:1056C000FCF7AEFFFDF7DCFB1948FCF7A9FFA0468D
:1056D000184C4FF47A7A4FF4FA7700254FF4E049EA
:1056E0005046FEF791FB0028FAD12068401C20604C
:1056F000142808D32560FBF7DFF886B2FBF7DCF847
:105700003246FEF701FC6068401C6060B842E7D397
:10571000494640466560FBF732FEE1E7AC080020F1
:1057200090000020000402407C020020FC020020C7
:105730003C03002064000020002A05D011F8013B42
:1057400000F8013B521EF9D1704700005FFA81F169
:1057500000F8011B521EFBD1704770B50446006B68
:105760000D460026A8420FD0204600F069F9060039
:105770000AD1607801232A4604F13401FFF71AF9AF
:1057800008B1751E01262563304670BD2DE9F0472E
:1057900081460E4601F11A00FFF764FF28BB3078FE
:1057A000012520F04000401E00EB8001DFF84C8016
:1057B00001EBC00400274FF6FF7A00BF18F807007E
:1057C0003044FFF74FFF35B1FF2C0ED229F81400FB
:1057D0000546641C01E0504507D17F1C0D2FEDD319
:1057E0003078400607D5FF2C02D30020BDE8F087B3
:1057F000002129F814100120F8E70000105C0008CF
:105800002DE9F047022617460D460446022969D3C2
:10581000A069A84266D920784FF00109012804D078
:10582000022836D003285DD143E0616A05EB5508B4
:1058300001EB58212046FFF790FF060052D1C8F334
:1058400008002044343008F10108E90704D0017849
:10585000FAB262F31F1100E03946017084F8039038
:10586000616A204601EB5821FFF777FF060039D126
:10587000C8F3080020443430E90702D0C7F3071109
:1058800005E00178C7F3032201F0F0011143017034
:1058900026E0606A00EB15212046FFF75EFF060058
:1058A00020D1E8B204EB4000B9B2343000F073F814
:1058B00016E0606A00EBD5112046FFF74EFF0600A8
:1058C00010D140F2FF1000EA850020443430054634
:1058D000FFF7BDFE67F31B000146284600F053F8B2
:1058E00084F803903046BDE8F0872DE9F041056863
:1058F00013460E46074602292DD3A869B0422AD97D
:105900003BB14FF0FF3219462846FFF779FF0028D8
:105910001FD131463846FFF7C7FD040018D0012CCF
:1059200019D0601C19D0002231462846FFF768FFC5
:1059300000280ED1D5E90510821E914205D2491CDE
:105940006961297941F0010129712646B042E0D808
:105950000020BDE8F0810220FBE70120F9E770B5E7
:105960000C460646154691B204F11A0000F013F8F1
:105970003078032806D1290C04F11400BDE87040EA
:1059800000F009B870BD0170090A4170090A817000
:10599000090AC17070470170090A417070470146D9
:1059A00000200B22430803EBC01011F8013B521EEC
:1059B0001844C0B2F6D1704770B5044600F040F804
:1059C000050036D1207803282CD12079012829D14F
:1059D000420204F1340000210646FFF7B7FE4AF602
:1059E000552104F23220FFF7D6FF13493046FFF766
:1059F000CAFF124904F50670FFF7C5FF04F50770EA
:105A00006169FFF7C0FF04F508702169FFF7BBFF6C
:105A1000226A0123521C226360783146FEF7E4FFBC
:105A200000202071002260781146FEF7B5FF00B11A
:105A30000125284670BD00005252614172724161D9
:105A40002DE9F0410446C0780027F8B1256B04F138
:105A50003401607801232A468846FEF7C5FF08B165
:105A6000012713E00020E070606AE169281A88428B
:105A70000CD2A67808E0E0690123054460782A4644
:105A80004146FEF7B1FF761E022EF4D23846BDE83D
:105A9000F08170B50E4604004FF009050CD0206867
:105AA00050B1017841B1A188C288914204D14078B7
:105AB000FEF78EFFC00703D000203060284670BD7F
:105AC00000252068F9E7000080590000A8080308B5
:105AD000B4080308E0080308000D0000AC08030840
