:020000040800F2
:1000000008CD00209D010008CF300008712B0008AA
:10001000CD300008BF060008A14100080000000024
:100020000000000000000000000000003B3B000852
:10003000A507000800000000D13000083D3B000883
:10004000B7010008B7010008B7010008B7010008B0
:10005000B7010008B7010008B7010008B7010008A0
:10006000B7010008B7010008B7010008B701000890
:10007000B7010008B7010008B7010008B701000880
:10008000B7010008B7010008B9040008B70100086B
:10009000B7010008B7010008B7010008B701000860
:1000A000B7010008B7010008B7010008B701000850
:1000B000013C0008B70100080D3C0008B70100082A
:1000C000B7010008B7010008B7010008B701000830
:1000D000B7010008B701000869410008B70100082E
:1000E000A7070008B7010008B7010008B70100081A
:1000F000B7010008B7010008B7010008B701000800
:10010000B701000805310008B7010008B701000871
:10011000B7010008B7010008193C0008253C000899
:1001200005070008B7010008B7010008110700081B
:10013000B70100080000000000000000B70100083F
:10014000B7010008B7010008B7010008B7010008AF
:10015000B70100081D070008B7010008B701000833
:10016000B7010008B7010008B7010008B70100088F
:10017000B7010008B701000800000000B70100083F
:10018000B7010008B7010008DFF80CD000F082F9D1
:1001900000480047B14B000808CD002006488047C2
:1001A00006480047FEE7FEE7FEE7FEE7FEE7FEE75C
:1001B000FEE7FEE7FEE7FEE7C53B00088901000811
:1001C0002DE9F05F0546002092469B46884606468C
:1001D000814640241BE0284641464746224600F01F
:1001E000EBF853465A46C01A914110D311461846AF
:1001F000224600F0D2F82D1A67EB01084F4622463E
:100200000120002100F0C9F817EB00094E41201E23
:10021000A4F10104DFDC484631462A464346BDE8E6
:10022000F09F40EA01039B0703D009E008C9121FB1
:1002300008C0042AFAD203E011F8013B00F8013BA0
:10024000521EF9D27047D2B201E000F8012B491ECC
:10025000FBD270470022F6E710B513460A46044663
:100260001946FFF7F0FF204610BD2DE9FE4F81EA49
:10027000030404F0004421F0004100944FF0000B0F
:1002800023F0004350EA01045ED052EA03045BD03D
:10029000C3F30A54C1F30A552C44A4F2F334019475
:1002A000A0FB0254C1F3130141F48011C3F3130303
:1002B00043F4801301FB024400FB034E840A970AB7
:1002C00044EA815447EA8357A4FB076802958D0AE4
:1002D00005FB07854FEA932C04FB0C542705029D70
:1002E0004FEA065847EA1637B5EB08056EEB070CE0
:1002F000870E920E47EA811742EA8312A7FB02019A
:10030000B6EB0B0164EB00042B0D43EA0C335E18D3
:1003100044EB1C50DA465146E7FB0201C5F31304D7
:100320004FEA0B3343EA14534FEA0432019C43EA89
:100330000603A4F10C040294009CCDE900B400F083
:100340005AF803B0BDE8F08F00200146F9E70EB57A
:1003500040F2334102910021CDE900110A460B46DB
:1003600000F049F803B000BDC1F30A5210B5C1F363
:10037000130140F2FF3341F480119A4201DA002068
:1003800010BD40F233439A42A2F2334203DC5242A0
:1003900000F012F810BD904010BD202A04DB203A76
:1003A00000FA02F1002070479140C2F1200320FAC8
:1003B00003F3194390407047202A04DB203A21FAC6
:1003C00002F00021704721FA02F3D040C2F120026E
:1003D000914008431946704710B5141E73F100048C
:1003E00008DA401C41F1000192185B411A4301D127
:1003F00020F0010010BD2DE9F04D92469B4611B151
:10040000B1FA81F202E0B0FA80F220329046FFF7B2
:10041000C4FF04460F4640EA0A0041EA0B01534676
:100420005A46084313D0114653EA010019D0C8F1C7
:1004300040025046FFF7C0FF05460E46504659465B
:100440004246FFF7AAFF084305D0012004E02046FA
:100450003946BDE8F08D0020054346EAE0762C439E
:1004600037430A986305E40AA0EB08000022FD0A5E
:1004700044EA47540A3002D500200146E9E7010565
:1004800010196941DDE9084500196941BDE8F04DE1
:10049000A2E70000064C074D06E0E06840F00103CB
:1004A00094E8070098471034AC42F6D3FFF770FE8B
:1004B000EC5000080C510008014800F067BA000039
:1004C000E8030020464910B54A6822F440324A60E9
:1004D0004A6843681A434A6001684A6822F4807295
:1004E0004A6001684A68036942EA03224A60016877
:1004F0004A6822F040724A6001684A6883681A4379
:100500004A6001688A6822F400628A6001688A6829
:10051000C3681A438A60816A6FF07062D1420168D1
:100520008A6822F070628A6001688A680CD0836AE7
:100530001A438A6001688A6822F040528A60016822
:100540008A68C36A1A4301E022F040528A60016857
:100550008A6822F002028A6001688A68037E42EAA1
:1005600043028A6090F82010002901684A680FD081
:1005700042F400624A6001684A6822F460424A60BC
:1005800001684A68174C436A04EB43331A4301E09D
:1005900022F400624A600168CA6A22F47002CA62E8
:1005A0000168CA6A838B104C04EB03531A43CA6276
:1005B00001688A6822F400728A6001688A6890F88B
:1005C000303042EA43228A6001688A6822F48062FD
:1005D0008A6001688A68406942EA8020886010BDAC
:1005E0000023014000E0FFFF0000F0FF10B50124F0
:1005F0008021034800F056FD00B10024204610BDC4
:1006000000080240704700000146014801F0E2B9CD
:10061000A402002010B5044801F0EEF9042801D02E
:10062000012010BD002010BDA402002010B500F074
:1006300015F8012801D0012010BD074801F0F6FA95
:10064000040006D14FF40061034801F07BF800B1CB
:100650000124204610BD0000A402002008B501209E
:100660008DF80000FFF7C2FF10B900208DF80000E0
:100670009DF8000008BD000038B500240093134623
:100680000A460146034801F0B9FB00B101242046A7
:1006900038BD0000A40200207047000038B50024D7
:1006A000009313460A460146034801F0ABFC00B133
:1006B0000124204638BD0000A40200207047FEE758
:1006C00008B5002100914168084A91420BD1816828
:1006D00011440091C168009A114400910068884259
:1006E00001D1012008BD002008BD00004152415049
:1006F00000B50348FFF7E4FF002800D0012000BD4B
:1007000000400008014800F071BA000030040020E9
:10071000014800F06BBA000028030020014800F0F7
:1007200065BA00008803002001681823CAB2103A95
:10073000B2FBF3F2054B6FF30901032A9B5CC3651F
:1007400000D9091D8165084670470000884F0008E0
:1007500010B5014600208B698A6A4FF0C07453B10E
:10076000B3F5005F15D072B1012A0CD0022A0AD06D
:10077000032A09D104E01AB1012A06D0022A03D1C2
:10078000C96AC90100D5012010BDC96AA142FAD0C9
:1007900010BD002AF7D0012AF2D0022AF3D0032A92
:1007A000F3D010BD70474FF4004000F093BB70478A
:1007B000002200F001B8000030B50E4B05460120C4
:1007C0005C7A002C14D1587A1C54587A03EB8000C0
:1007D00045605D7A03F108002A54587A421C5A7227
:1007E000303008703A2048702F208870CC7000207C
:1007F00030BD00008C00002070B509480068094A2F
:1008000080B2116954694CF25033A1FB032604FBFA
:100810000363002501FB05311018694170BD00001C
:1008200024140040280000200022835C8B54521CBA
:1008300092B2102AF9D370477047000078B50024AF
:10084000009490F83C20012A19D0012280F83C2025
:100850000A6807230568092A13D9EE680A3A02EBE9
:10086000420293409E43EE600B788A680A3B03EB9A
:1008700043039A400368DD682A43DA6010E00220EF
:1008800078BD2E6902EB420293409E432E610B78A5
:100890008A6803EB43039A4003681D692A431A617F
:1008A0004A681F23072A13D205686E6B521E02EB9B
:1008B000820293409E436E630B790A885B1E92B25C
:1008C00003EB83039A4003685D6B2A435A6327E076
:1008D00005680D2A12D22E6BD21F02EB82029340C2
:1008E0009E432E630B790A88DB1F92B203EB8303CE
:1008F0009A4003681D6B2A431A6311E0EE6A0D3AB1
:1009000002EB820293409E43EE620B790A880D3B14
:1009100092B203EB83039A400368DD6A2A43DA62EA
:10092000164B0568144A9D4206D10D68122D03D15D
:10093000556845F48005556005689D4218D10B68DF
:10094000102B01D0112B13D1536843F400035360D3
:10095000096810290CD10A490A4A0968B1FBF2F169
:1009600001EB8101490000E0491E00910029FBD103
:1009700080F83C40002078BD002301400020014069
:100980001C00002040420F007047704770B50446BD
:10099000006801684268C1F34001C2F3401251B3DC
:1009A0004AB3216CC90603D4216C41F4007121645F
:1009B000816811F0405F17D1217EA9B9C16A11F495
:1009C000700F02D0816849050ED4416821F02001E2
:1009D0004160206C20F480702064206CC00403D43B
:1009E000206C40F0010020642046FFF7CDFF216815
:1009F0006FF012000860206801684268C1F380014E
:100A0000C2F3C01289B382B3216CC90603D4216C2E
:100A100041F400512164816811F4401F1ED1816BA3
:100A200011F4401F02D08168490517D44168490577
:100A300014D4816811F0405F10D1217E71B94168F2
:100A400021F080014160206C20F480502064206CF3
:100A5000C00503D4206C40F0010020642046FFF75D
:100A6000EBFE21686FF00C000860206801684268A6
:100A700011F0010FC2F380120ED06AB10068C007F6
:100A80000AD0206C40F480302064204600F046F804
:100A900021686FF001000860206801684268C1F3B6
:100AA0004011C2F3806200290DD0002A0BD0616C86
:100AB00041F0020161646FF0200505602046FFF7F8
:100AC00064FF2068056070BD70B504004FF000053C
:100AD00003D0206C002610B107E0012070BD204635
:100AE00000F01EF8666484F83C60206CC00610D4E8
:100AF000206C20F4885040F0020020642046FFF76C
:100B0000E1FC6664206C20F0020040F001002064EB
:100B100000E0012584F83C60284670BD7047000065
:100B200070B586B0064614216846FFF793FB21494D
:100B3000306888423BD120480025016841F480712B
:100B40000160006800F4807005901B48143801684B
:100B500041F0010101600068694600F00100059064
:100B6000F22000900320CDE90105144800F0BEF901
:100B7000144C1348C4E900050015A560C4E90350EE
:100B8000400060618000C4E9060525622046656278
:100B900000F0FCF808B1FFF70AFEB463002211462A
:100BA0001220A66300F0FEFA122000F0EDFA06B063
:100BB00070BD0000002001404438024000000240A7
:100BC000106402403004002090F83510022903D050
:100BD0008021416501207047052180F835100068AB
:100BE000016821F001010160002070472DE9F84300
:100BF00004464FF00009CDF8009063484FF41651B9
:100C0000A56D0068B0FBF1F72E6894F85C10082021
:100C100000FA01F131420FD021680A6852070BD562
:100C20000A6822F004020A6094F85C108840A86008
:100C3000606D40F00100606594F85C104FF00108B1
:100C400008FA01F0304208D021684969090604D544
:100C5000A860606D40F00200606594F85C100420AC
:100C60008840304208D021680968890704D5A86007
:100C7000606D40F00400606594F85C1010208840BE
:100C8000304218D021680968090714D5A860206887
:100C90000168490304D50068000308D5A16C07E08A
:100CA0000168C90503D4016821F008010160216CC5
:100CB00009B12046884794F85C10202088403042D3
:100CC00031D021680968C9062DD5A86094F835008F
:100CD00005282068016806D0490347D5006800034D
:100CE0001DD4616C1CE021F016010160206841698F
:100CF00021F080014161206C08B9A06C20B120680E
:100D0000016821F00801016094F85C103F208840E0
:100D1000A86084F8349084F83580216D1FE0E16B81
:100D200009B120468847606D00282BD0606DC00750
:100D300014D0052084F835002068016821F00101F5
:100D400001600098401C0090B84203D820680068F9
:100D5000C007F6D184F8349084F83580E16C00291E
:100D600010D001B02046BDE8F04308470168C9052E
:100D7000D5D4016821F01001016084F8349084F822
:100D80003580CCE7BDE8F8831C0000202DE9F04158
:100D9000044600F099F906465CB1002584F8345009
:100DA000022084F835002068016821F0010101600B
:100DB0000DE00120BDE8F08100F086F9801B0528D8
:100DC00005D920206065032084F83500F2E720680B
:100DD0000068C007F0D12268116820480140D4E9BA
:100DE00001031843D4E903363343184363691843B6
:100DF000A3691843E3691843236A18430843616AE7
:100E0000042903D1D4E90B13194308431060206867
:100E10004069666A20F0070130460E430127042826
:100E20000CD1A06A0643E06A40B12046FFF790FC6F
:100E300020B14020606584F83570BAE720684661CB
:100E40002046FFF771FC94F85C203F2191408160BF
:100E5000656584F835700020ACE700003F8010F035
:100E600070B5044600F030F90546601C02D0044815
:100E70000078044400F028F9401BA042FAD370BD6A
:100E80001000002070B54FF40045A84218D10F4E55
:100E90002946304600F006F90D4C012811D02946AC
:100EA000304600F0FFF800280AD1FFF7A5FCC4E99E
:100EB0000201D4E90023801A61EB0301C4E90401B3
:100EC00070BDFFF799FCC4E9000170BD0004024049
:100ED00040000020044910B50A68024202D00860B0
:100EE000FFF7D0FF10BD0000143C01402DE9F84F82
:100EF00000224FF0010803254FF00F0E0B6808FA8F
:100F000002F42340A3426ED14E68012E05D0022E7A
:100F100003D0112E01D0122E12D186684FEA420C56
:100F200005FA0CF7BE43CF6807FA0CF73743876022
:100F30004668A6430C79C4F30014944034434460DB
:100F4000C668570005FA07FC8C6826EA0C06BC4008
:100F50003443C4604C68022C01D0122C13D1D40845
:100F600000EB8404A346D4F8209054074FEAD46AD7
:100F70000EFA0AF629EA06090E6906FA0AF646EAA0
:100F80000906CBF8206006680C7926EA0C0604F006
:100F90000304BC40344304604C68E40065D5364C1F
:100FA000266846F480462660246822F0030604F48E
:100FB00080440094314C3444A446D4F80848960741
:100FC000370F0EFA07F6B4432D4EB04201D100267A
:100FD00024E02C4EB04201D101261FE02A4EB0423F
:100FE00002D102261AE040E0284EB04201D1032689
:100FF00014E0274EB04201D104260FE0254EB04246
:1010000001D105260AE0244EB04201D1062605E0B2
:10101000224EB04201D1072600E00826BE402643FA
:10102000CCF808681E4E34684F689C43FF0300D517
:101030001C4334601A4C241D26684F689E43BF032E
:1010400000D51E432660164E083634684F689C4310
:10105000FF0200D51C433460114E0C3634684F68D3
:101060009C43BF0200D51C433460521C102AFFF47D
:1010700045AFBDE8F88F0000443802400030014021
:10108000000002400004024000080240000C024040
:10109000001002400014024000180240001C0240F0
:1010A000003C01400069084000D0012070474269BF
:1010B00031EA020200D10904816170470AB18161FD
:1010C00070470904FBE70000014880687047000092
:1010D0001000002002488168027811448160704746
:1010E000100000200B4810B5016841F40071016048
:1010F000016841F480610160016841F48071016020
:10110000032000F06FF8002000F006F800F024F84B
:10111000002010BD003C024070B50D4D04464FF458
:101120007A712878B1FBF0F00A490968B1FBF0F058
:1011300001F04EF848B9102C07D200222146501E6B
:1011400000F030F800206C6070BD012070BD000020
:10115000100000201C0000200A4808B5016841F476
:1011600080410160006800F4804000900548001F45
:10117000016841F080510160006800F080500090EB
:1011800008BD000044380240002809DB00F01F02BF
:10119000012191404009800000F1E020C0F80011D9
:1011A00070470000F0B40E4B1B680C46C3F30223DB
:1011B000C3F10705042D00D90425191D072901D203
:1011C000002300E0DB1E012606FA05F1491E21403E
:1011D00099409E40761E16403143F0BC03F068B83B
:1011E0000CED00E0064900F0070208684FF6FF0327
:1011F000184040EA0220034A10430860704700008C
:101200000CED00E00000FA052DE9F0470E46050060
:1012100065D0DFF81481D8F80000F7B200F00F00B5
:10122000B04207D288F80070D8F8000000F00F0034
:10123000B04254D128683D4C810712D5400703D5F0
:10124000206840F4E05020602878000703D520682B
:1012500040F4604020602068A96820F0F000084356
:1012600020602878C0072DD03049686808390128E7
:1012700012D0022813D0032811D009688907002949
:101280002DDA216821F0030101432160FFF71CFFE3
:10129000814641F2883A0EE009688903EFE7096860
:1012A0008901ECE7FFF710FFA0EB0901514502D9D6
:1012B0000320BDE8F0872068696800F00C00B0EBFF
:1012C000810FEFD1D8F80010404601F00F01B14274
:1012D00007D90770006800F00F00B04201D001206C
:1012E000E7E72878400705D52068E96820F4E05052
:1012F000084320602878000706D52068296920F473
:10130000604040EAC100206000F038F82168084AD7
:10131000C1F30311515CC8400649086006480068E3
:10132000FFF7FAFE0020C4E7003C02400838024004
:10133000904F00081C0000201400002004480549BC
:1013400000680968044AC1F38221515CC8407047B3
:101350001C00002008380240A04F0008044805493E
:1013600000680968044AC1F34231515CC8407047C3
:101370001C00002008380240A04F0008154810B596
:10138000006810F00C02144813D01449042A0FD03E
:10139000082A0ED10F4C241F2268236802F03F0256
:1013A0005B0207D52068C0F38810A0FB010106E0AE
:1013B000084610BD2168C1F38811A1FB000100237C
:1013C000FEF7FEFE2168C1F30141491C4900B0FB54
:1013D000F1F010BD083802400024F40040787D018F
:1013E0002DE9F84F04006ED02078DFF83C93C00759
:1013F000A9F104054AD009F104000168C1F3810193
:10140000012908D00068C0F3810002280AD1D9F868
:101410000000400206D52868800337D560680028A0
:10142000E1D033E06068B0F5803F10D0B0F5A02F78
:10143000286810D020F480302860286820F48020AC
:1014400028606068A8B1FFF73FFE06460DE02868F7
:1014500040F48030F4E740F480202860F7E700BFD4
:10146000FFF732FE801B642873D828688003F7D505
:101470000CE0FFF729FE064605E000BFFFF724FE5B
:10148000801B6428F0D828688003F7D42078DFF820
:101490009C8280074FF0000A3ED5A348001D0168DA
:1014A00011F00C0F08D00068C0F3810002280BD1A6
:1014B000D9F80000400207D42868800716D5E068F4
:1014C000012800D112E02BE1E068B8B10120C8F892
:1014D0000000FFF7F9FD064605E000BFFFF7F4FD49
:1014E000801B0228C0D828688007F7D528682169A2
:1014F00020F0F80040EAC10028600DE0C8F800A024
:10150000FFF7E2FD064604E0FFF7DEFD801B022840
:101510001FD828688007F7D42078000722D5824E8C
:1015200083486169703671B101210160FFF7CCFD1C
:10153000074604E0FFF7C8FDC01B022809D8306841
:101540008007F7D50EE0C0F800A0FFF7BDFD074605
:1015500005E082E0FFF7B8FDC01B02287DD83068A7
:101560008007F7D42078400768D5DFF8BCB10027A2
:101570000BF13C0BDBF80000C0000BD4DBF80010D3
:1015800041F08051CBF80010DBF80000012700F09B
:1015900080500090674E3068C00510D4306840F429
:1015A00080703060FFF790FD009005E0FFF78CFD44
:1015B0000099401A022850D83068C005F6D55A4E16
:1015C000A0686C3601280FD00528306810D020F0B4
:1015D00001003060306820F004003060A068B8B1CD
:1015E000FFF772FD00900FE0306840F00100F4E773
:1015F00040F004003060F7E7FFF766FD0099411AFC
:1016000041F28830814266D830688007F4D50EE018
:10161000FFF75AFD009007E0FFF756FD0099411AC9
:1016200041F28830814256D830688007F4D42FB117
:10163000DBF8001021F08051CBF80010A069C8B38E
:101640003949091D0968C1F3810102294AD00228DC
:10165000504607D0C8F8600000E03CE0FFF734FDDA
:1016600004463BE04746C8F86000FFF72DFD0646FC
:1016700005E000BFFFF728FD801B02282BD8286853
:101680008001F7D4D4E907010843A16A2A4A49082E
:1016900002EB0141626A41EA8211084394F82C107E
:1016A00040EA0161C9F8001001203866FFF70CFD1F
:1016B000044606E036E000BFFFF706FD001B0228E7
:1016C00009D828688001F7D52CE000BFFFF7FCFCA3
:1016D000001B022802D90320BDE8F88F286880018A
:1016E000F4D41FE00128F7D0D9F80000E26900F433
:1016F0008001914214D1226A00F03F0191420FD142
:1017000047F6C071626A0140914209D1A26A00F4B1
:101710004031914204D1E16A00F07060884201D00A
:101720000120D9E70020D7E70438024000004742F3
:10173000800E4742007000400000FFFF10B5FEF72A
:1017400061FF10BD2DE9FE43044603200F4684F8D7
:101750003400606C03285AD0B7F5805F57D04FF43F
:10176000006600254FF08068B7421CD100950195B6
:101770000021206801F0C3FC800121D46946204685
:1017800002F03EF898BB0198400332D5B4F85000FF
:101790000104206801F0EEFC48BB0221206822E031
:1017A000A06B284327E01FB1A06B40F0006022E04F
:1017B000009501950021206801F0A1FC800101D570
:1017C0003546EDE76946204602F01AF878B90198E7
:1017D000C0030ED5B4F850000104206801F0CAFC23
:1017E00028B90021206801F012FD0028D8D0054654
:1017F000D6E74546D4E7A063A06B012558B1216820
:101800000C48886384F834500120BDE8FE83A06B47
:1018100040F08050EFE7211DD4E905060EC900977E
:10182000CDE90106206801F073FC84F834500020F3
:10183000EBE70000FF05400070470000F0B5426E86
:10184000920F0A70426EC2F383624A70426EC2F314
:1018500001628A70426E120CCA70B0F86420120ADB
:101860000A7190F864204A71826E120DCA80826EED
:10187000C2F303420A72B0F86820C2F3C0324A725F
:10188000B0F86820C2F380328A72B0F86820C2F3E0
:101890004032CA72B0F86820C2F300320A730026E0
:1018A0004E73426C4FF40075012462B1012A3AD0A4
:1018B000026847499163816B41F08051816380F8F0
:1018C00034400120F0BDB0F86820C36E9205120DBF
:1018D00042EA93720A61C26EC2F3C2620A75C26EB4
:1018E000C2F302624A75C26EC2F342528A75C26E78
:1018F000C2F38242CA75C26EC2F3C2320A760A6964
:10190000521C42650B7E03F007039B1C9A40426504
:101910000B7A03F00F0704FA07F383655B0A5A4357
:10192000C0E917250EE090F86820C36E9206920A6F
:1019300042EA13420A610A69521C92024265C0E9F6
:101940001652056630F86C2FC2F3803201F8192F59
:101950000288C2F3C6124A70027802F07F028A70CF
:101960004268D20FCA704268C2F341720A7142687B
:10197000C2F382624A714268C2F383528A7142683A
:10198000C2F34052CA710E724268C2F300424A72F8
:101990008288C2F3C0328A728288C2F38032CA72ED
:1019A0008288C2F340320A738288C2F300324A73DB
:1019B0008288C2F381228A738288C2F30122CA73A9
:1019C0000079C0F3460008744C740020F0BD00009C
:1019D000FF054000426C0A60826C4A60C26C8A60FB
:1019E000026DCA60426D0A61826D4A61C26D8A6190
:1019F000006EC8610020704770B50446B0F8500012
:101A000000250104206801F00CFD18B1A16B014311
:101A1000A16304E00021206801F071FB0546C5F3D5
:101A2000432070BDF8B5056B04460068416B09049E
:101A30001BD5290719D5D4E90A56002E14D0002742
:101A4000206801F07FFB05F8010B010A05F8011B76
:101A5000010C05F8021B000E361F7F1C05F8010C57
:101A6000082FEDD3C4E90A56F8BD416B4FF00006CC
:101A7000C9054FF0010744D5390281632068C16B65
:101A80004CF23A329143C1632068C16A21F00101EE
:101A9000C16228071DD515F0220F09D0206801F07A
:101AA000F1FC28B1A16B0143A1632046FFF7C4FEFE
:101AB000216840F23A50886384F834702663A8079E
:101AC00003D0204600F096FAF8BD204600F096FAC2
:101AD000F8BD2806FCD5A80609D5206801F0D2FC7F
:101AE00028B1A16B0143A1632046FFF7A5FEA8071B
:101AF000EED12068C16A21F00801C16284F8347017
:101B0000E3E7416B490424D5290722D5D4E90856D7
:101B1000002EDDD05FF0000715F8010B009015F8DE
:101B2000011B361F40EA0120009015F8021B40EA15
:101B30000140009015F8011C40EA016000906946E0
:101B4000206801F012FB7F1C082FE5D3C4E908567A
:101B5000F8BD416B40F23A221142F9D0416B89073E
:101B600003D5A16B41F00201A163416B090703D5C5
:101B7000A16B41F00801A163416B890603D5A16BFC
:101B800041F02001A163416BC90603D5A16B41F06F
:101B90001001A163416B890503D5A16B41F00801D8
:101BA000A16340F23A7181632068C16B40F23A321E
:101BB0009143C163206801F065FCA16B0843A063F9
:101BC000280706D584F8347026632046FFF734FED4
:101BD000F8BD2806FCD515F0300F0CD0E16B11488C
:101BE0000865E06BFEF7F0FF0028F1D0E06BBDE880
:101BF000F84001F0E3BDA8070CD0216C0A48086545
:101C0000206CFEF7E1FF0028E2D0206CBDE8F84030
:101C100001F0B2BDA66384F8347026632046FFF756
:101C20008DFDF8BDBD3700087937000870B5040098
:101C30000ED094F83400002518B92577204600F01E
:101C40003BF8032084F83400204600F00BF808B17C
:101C5000012070BDA5632563012084F834000020B5
:101C600070BD0000FEB50025044676200095CDE944
:101C7000015029460B460A46206801F049FA08B18E
:101C80000120FEBD0B4E46F8A05F206801F052FA1D
:101C900001253560204601F095FE20B9204601F06F
:101CA00019FE0028EDD084F83450A16B0143A163E4
:101CB000E6E70000008025422DE9F04F87B0054699
:101CC00014216846FEF7C6FA4649286888427DD145
:101CD00045480068444940F400600860086800F422
:101CE000006005904048143800683F4940F0040007
:101CF00014390860086800F004000590086840F096
:101D0000080008600868022400F0080005904FF4FD
:101D1000F850CDE9000402AA002003264FF00C0879
:101D200082E8410169463148FFF7E0F802AA002045
:101D300082E841010427CDE9007469462C48FFF789
:101D4000D5F82D4C2B484FF00068C4E9000800205E
:101D50004FF48069A060C4E90309B8024FF4804BD6
:101D6000C4E9050BC4E909764FF0200A0020C4E954
:101D700007A07E05B7102046C4E90B67FFF706F8F9
:101D800008B1FEF714FD2C64A5631B4C19486034A0
:101D90004830C4E900084020A0600020C4E90309DD
:101DA000C4E907A00420606204F12802032082E84D
:101DB000C1004FF48051C4E9051B2046FEF7E6FF41
:101DC00008B1FEF7F4FCEC63002200E007E01146E6
:101DD0003120A563FFF7E6F93120FFF7D5F907B009
:101DE000BDE8F08F002C014044380240000802405A
:101DF000000C024058640240280300202DE9F04FF7
:101E000087B09B4616460D460446FFF75DF90090E5
:101E10003DB194F83400012807D0A06B40F0005089
:101E20000DE0A06B40F0006009E00027A763E16DC2
:101E300006EB0B00884204D9A06B40F00070A06351
:101E400095E0032084F834002068C762606C0128A4
:101E500000D076024FF40071206801F0BFF9DFF87E
:101E600090A1012140B12368C3F838A0A26B0243BE
:101E7000A26384F834107AE04FF0FF3001904FEA0B
:101E80004B200290902003900220CDE90407069198
:101E90008846B94601A9206801F01BF9BBF1010F82
:101EA00006D9022020633146206801F02BFA05E0B4
:101EB000C4F830803146206801F03DFA30B1226824
:101EC000C2F838A0A16B0143A1634CE0029E1EE062
:101ED000406B000413D596B10027206801F032F959
:101EE00005F8010B010A05F8011B010C05F8021B9E
:101EF000000E361F7F1C05F8010C082FEDD3FFF7ED
:101F0000E3F80099411A109881421DD2E0B120688F
:101F1000426B40F22A310A42DAD0416BC90509D539
:101F2000BBF1010F06D9616C032903D001F0AAFAB5
:101F30000028C4D12068416B09071AD5C0F838A021
:101F4000A06B40F0080051E02168C1F838A0A06BF8
:101F500040F00040A06384F83480C4F8309003203F
:101F600007B0BDE8F08F84F83480C4F830900120C9
:101F7000F6E7416B890705D5C0F838A0A06B40F0A3
:101F8000020033E0416B89061CD5C0F838A0A06B75
:101F900040F020002AE000BF01F0D4F805F8010B62
:101FA000010A05F8011B010C05F8021B000E05F8DB
:101FB000010C361FFFF788F80099411A10988142EA
:101FC0000ED268B12068416B890201D5002EE3D1A1
:101FD000216840F23A50886384F834800020BFE7DB
:101FE0002168C1F838A0A06B40F00040A063BAE7B8
:101FF000FF05400010B5FEF74FFB10BD10B5FEF712
:102000005DFB10BD2DE9FF4F8DB016460D46044611
:10201000FFF75AF80B903DB194F83400012807D02F
:10202000A06B40F000500DE0A06B40F0006009E0B4
:102030000027A7631098E16D3044884204D9A06B53
:1020400040F00070A0638BE0032084F83400206827
:10205000C762606C012800D076024FF400712068DE
:1020600001F0BCF8DFF864B1012140B12368C3F886
:1020700038B0A26B0243A26384F8341070E04FF0D2
:10208000FF30039010988946400204909020CDE9DB
:102090000507CDE90771BA4603A9206801F019F8D0
:1020A0001098012806D9202020633146206801F0CD
:1020B00003FA05E0102020633146206801F015FA8C
:1020C0005FEA000806D02168C1F838B0A06B40EA8A
:1020D000080071E0049E27E0406B40041CD5DEB18F
:1020E0005FF0000715F8010B009015F8011B361F73
:1020F00040EA0120009015F8021B40EA01400090E0
:1021000015F8011C40EA016000906946206801F062
:102110002CF87F1C082FE5D3FEF7D6FF0B99411A48
:102120001A98814220D2F8B12068416B40F21A32ED
:102130001142D1D0416BC90523D51099012920D96D
:10214000616C03291DD001F09DF9D0B12268C2F85D
:1021500038B0A16B0143A16384F83490C4F830A077
:10216000012011B0BDE8F08F2168C1F838B0A06B34
:1021700040EA0800A06384F83490C4F830A003203B
:10218000EFE72068416B090705D5C0F838B0A06BB0
:1021900040F0080010E0416B890705D5C0F838B061
:1021A000A06B40F0020007E0416BC90606D5C0F8FD
:1021B00038B0A06B40F01000A063CDE740F23A5178
:1021C000816384F834900020CBE70000FF054000D5
:1021D00010B5401EB0F1807F01D3012010BD4FF03B
:1021E000E02460610F21601702F062F80020A06116
:1021F00007202061002010BD7047704770B590F82F
:102200003C20012A32D0012480F83C40022280F890
:102210003D2003685A689D6822F070060A683243C0
:102220005A60134B02689A4214D0B2F1804F11D019
:10223000104B9A420ED0104B9A420BD00F4B9A4241
:1022400008D00F4B9A4205D00E4B9A4202D00E4B4B
:102250009A4204D1496825F080031943916080F8BF
:102260003D40002180F83C10084670BD022070BD42
:10227000000001400004004000080040000C004045
:1022800000040140004001400018004010B5040067
:1022900003D094F83D0010B107E0012010BD0020EC
:1022A00084F83C00204600F00DF8022084F83D0040
:1022B000211D206801F0BCFC012084F83D000020B5
:1022C00010BD000070B586B0044614216846FDF7C5
:1022D000C1FF3B4B246800223949103B0225394895
:1022E000B4F1804F26D0384EB44244D10C6844F04B
:1022F00004040C60096801F004010591196841F0BB
:1023000002011960196801F0020105914021009154
:10231000CDE90152CDE903256946FEF7E7FD00222C
:1023200011461E20FEF73EFF5FF01E00FEF72CFF59
:1023300006B070BD0C6844F001040C60096801F03F
:1023400001010591196841F002011960196801F055
:102350000201059108210091CDE901520121CDE949
:1023600003216946FEF7C2FD002211461C20FEF73C
:1023700019FF1C20DAE7154884420ED1086840F0A6
:10238000100008600868002200F010000590114657
:102390003620FEF707FF3620C8E70D488442C7D134
:1023A000086840F0200008600868002200F0200063
:1023B000059011463720FEF7F5FE3720B6E70000FE
:1023C0004038024000040240000800400010004075
:1023D000001400400168CA6842F00102CA60006847
:1023E000816801F00701062903D0016841F001016D
:1023F00001600020704770B5044690F83C00012849
:1024000017D0012584F83C50022084F83D00206854
:10241000826822F0770222F47F42826008685028A6
:1024200030D00DDC20284DD005DC98B310283BD1EE
:1024300048E0022070BD302844D0402834D139E033
:10244000602828D0702806D0B0F5805F2CD0B0F579
:10245000005F29D10AE0CB68D1E90121206801F0B1
:1024600058FC2068816841F0770109E0CB68D1E928
:102470000121206801F04DFC2068816841F4804111
:10248000816011E0CA684968206801F05AFD502156
:10249000206807E016E0CA684968206801F0A2FDDC
:1024A0006021206801F03FFC84F83D50002084F852
:1024B0003C0070BDCA684968206801F042FD4021B7
:1024C0002068EFE7226801461046EBE770B5044646
:1024D00000680A490A4D884204D10421094800F0E5
:1024E00099FA68602068B0F1804F05D10548002155
:1024F000803800F08FFAA86070BD0000000800402E
:1025000028000020E40100202DE9F041044690F865
:102510003C000D4601283DD0012684F83C60022095
:1025200084F83D00AAB3042A46D02068082A55D072
:10253000D5E90027E968036A23F480530362D0F8E1
:102540001CC0036A2CF4407C4CEA07274FF6FF7C42
:1025500027F470470CEA013139434FF4204723F444
:10256000204307EA02321A43C16102622068C1694E
:1025700021F44061C1612068C169AA6841EA022171
:10258000C0F81C1084F83D60002084F83C00BDE8D1
:10259000F08101E00220FAE7D5E90012EB6820683B
:1025A00001F0E0FC2068816921F00C018161206864
:1025B0008169AA6811430FE0D5E90012EB68206831
:1025C00001F022FD2068816921F440618161206869
:1025D0008169AA6841EA02218161D3E7D5E9002C2B
:1025E0002F7B016A21F480710162C169036A21F0C5
:1025F000030141EA0C0121F0F00C39074FF4206788
:102600004CEA116123F4206307EA02221A43C161F4
:1026100002622068C16921F00C01C1612068C169B2
:10262000AA681143ACE710B5040003D094F83D004C
:1026300010B107E0012010BD002084F83C002046C6
:1026400000F00CF8022084F83D00211D206801F004
:10265000EFFA012084F83D00002010BD704710B54E
:102660000268044631B1042908D008291AD00C297F
:1026700008D11BE0D06840F0020002E0D06840F0D2
:102680000400D0600122206801F036FB20688168D8
:1026900001F00701062903D0016841F00101016042
:1026A000002010BDD06840F00800EAE7D06840F094
:1026B0001000E6E770B50446006801694FF00005B8
:1026C000C943890715D4C168C943890711D4E91ED4
:1026D000016101202077206880698007204602D0B0
:1026E000FFF7F4FE04E000F0C1F8204600F056F9D0
:1026F000257720680169C943490717D4C168C943D0
:10270000490713D46FF0040101610220207720688B
:10271000806910F4407F204602D0FFF7D7FE04E026
:1027200000F0A4F8204600F039F925772068016907
:10273000C943090716D4C168C943090712D46FF009
:1027400008010161042020772068C06980072046C5
:1027500002D0FFF7BBFE04E000F088F8204600F04E
:102760001DF9257720680169C943C90617D4C168D6
:10277000C943C90613D46FF0100101610820207706
:102780002068C06910F4407F204602D0FFF79EFE0B
:1027900004E000F06BF8204600F000F9257720688F
:1027A0000169C943C90708D1C168C943C90704D130
:1027B000891E0161204600F015F920680169C943AE
:1027C000090609D4C168C943090605D46FF0800120
:1027D00001612046FFF710FD20680169C9434906E1
:1027E00009D4C168C943490605D46FF040010161AD
:1027F000204600F04FF920680169C94389060BD4CF
:10280000C168C943890607D46FF0200101612046E1
:10281000BDE87040FFF7F1BC70BD000010B586B098
:10282000044614216846FDF715FD0D4920688842CD
:1028300014D10C480021026842F0020202600068D4
:1028400000F002000590102000900220CDE9010167
:10285000CDE9031069460448FEF748FB06B010BDF9
:10286000000400403038024000040240704770B558
:10287000044690F83C000D4601280DD0012684F84E
:102880003C60022084F83D0042B1042A18D0082A96
:102890002AD00C2A4DD139E0022070BD206801F009
:1028A0004BFA2068816941F00801816120688169E3
:1028B00021F004018161206881692A69114311E0D6
:1028C000206801F069FA2068816941F40061816142
:1028D0002068816921F480618161206881692A69A9
:1028E00041EA0221816124E0206801F08BFA20682E
:1028F000C16941F00801C1612068C16921F004018A
:10290000C1612068C1692A69114311E0206801F0A2
:10291000ADFA2068C16941F40061C1612068C169F4
:1029200021F48061C1612068C1692A6941EA0221FC
:10293000C16184F83D60002084F83C0070BD10B592
:10294000040003D094F83D0010B107E0012010BD51
:10295000002084F83C00204600F00CF8022084F8A7
:102960003D00211D206801F063F9012084F83D003D
:10297000002010BD08B500680649884208D1064805
:10298000016841F002010160006800F0020000905F
:1029900008BD0000000400404038024070470000BD
:1029A00010B504460068012201F0A6F90B49206821
:1029B000884202D00A49884203D1416C41F4004167
:1029C00041642068816801F00701062903D001688D
:1029D00041F001010160002010BD00000000014035
:1029E00000040140084A01680848914201D10122CF
:1029F0000270074A914206D101694269491C42F1BD
:102A00000002016142617047001000402800002070
:102A1000001400400246002041B1042909D00829D1
:102A20000AD00C2901D11068006C70471068406B07
:102A300070471068806B70471068C06B704770B546
:102A4000044690F83C00012812D0012584F83C503F
:102A5000022084F83D00204601F030FA01004FF0DA
:102A6000000007D084F83D5084F83C00012070BD80
:102A7000022070BD2168CA6822F04002CA60216845
:102A8000CA6822F48042CA6084F83D5084F83C0051
:102A9000002070BD704770B5040004D094F8390070
:102AA000002510B106E0012070BD84F838502046A2
:102AB00000F022F8242084F839002068C16821F44D
:102AC0000051C160204601F0BBFA2068016921F481
:102AD000904101612068416921F02A01416120682B
:102AE000C16841F40051C160E563202084F83900D9
:102AF00084F83A00002070BD10B586B00446142159
:102B00006846FDF7A7FB17492068884228D1164878
:102B10000021026842F400320260006800F40030D4
:102B2000059011481038026842F001020260006806
:102B300000F0010005900C2000900220CDE9010179
:102B4000032003900720049069460848FEF7CEF959
:102B5000002211462620FEF725FB2620FEF714FB57
:102B600006B010BD00440040403802400000024062
:102B7000FEE700007FB500212A48009101910291F3
:102B8000274A0391026001244FF480320461C0E9B6
:102B90000121047680F82010234AC0E90A21052586
:102BA000C561C16080F830104461FDF78DFF08B148
:102BB000FDF7FDFD02260094CDE90146694619485E
:102BC000FDF73CFE08B1FDF7F2FD0424CDE9004617
:102BD00069461448FDF732FE08B1FDF7E8FD032011
:102BE000CDE9005069460F48FDF728FE08B1FDF712
:102BF000DEFD0620CDE9000469460A48FDF71EFE09
:102C000008B1FDF7D4FD0720CDE900056946054868
:102C1000FDF714FE002801D0FDF7C9FD7FBD0000BF
:102C200000200140E80300200100000F114808B512
:102C3000016841F4800101600068002200F4800016
:102C4000009011463820FEF7ADFA3820FEF79CFAC6
:102C5000002211463B20FEF7A5FA3B20FEF794FA2E
:102C6000002211464520FEF79DFABDE808404520A8
:102C7000FEF78ABA3038024000B587B014216846A2
:102C8000FDF7E8FA1A480021026842F001020260EA
:102C9000026802F001020592026842F0020202603C
:102CA000026802F002020592026842F00402026029
:102CB000026802F004020592026842F00802026013
:102CC000006800F0080005904FF4004000900948AB
:102CD000CDE9010169460848FEF708F900220821FC
:102CE0002820FEF75FFA2820FEF74EFA07B000BD55
:102CF00030380240000031100004024010B5044991
:102D00000448FDF755FD0249491E087010BD00003A
:102D10000A000020744F0008F0B587B014216846FF
:102D2000FDF798FA29480024016841F0010101608B
:102D3000016801F001010591016841F002010160A3
:102D4000016801F002010591016841F00401016090
:102D5000016801F004010591016841F0080101607A
:102D600000681B4E00F0080047F220450590002245
:102D700029463046FEF7A2F9164F00224021384678
:102D8000FEF79CF900950125CDE9015469463046CE
:102D90000394FEF7ABF8E802CDE90004694630463B
:102DA0000294FEF7A3F840200090CDE90154694653
:102DB00038460394FEF79AF88020CDE9000469466E
:102DC00038460294FEF792F807B0F0BD3038024062
:102DD0000004024000080240064805490160002145
:102DE00041608160C16001614161816170470000A3
:102DF000002C0140A402002010B590B000240994DA
:102E00000A940B94142104A80C94FDF723FA2B4880
:102E10000D940E940094019402944FF08041039419
:102E200001605321C0E90114611EC0E903148461EB
:102E3000FFF72CFA08B1FDF7BAFC4FF48050099067
:102E400009A91E48FFF7D7FA08B1FDF7B0FC1B48E7
:102E5000FFF7E9FB08B1FDF7AAFC0420049060200D
:102E6000CDE9050404A915480894FFF7E8FD08B169
:102E7000FDF79DFC0D940DA910480E94FFF7BEF9C7
:102E800008B1FDF794FC02200090CDE90104002276
:102E900069460A480394FFF737FB08B1FDF787FC42
:102EA0000120CDE90040042269460448FFF72CFBCD
:102EB000002801D0FDF77BFC10B010BD640100209C
:102EC00010B58AB0002407941C2168460894FDF7C9
:102ED000C1F91748154901605321C0E901144FF4A5
:102EE000FA61C0E903148461FFF729FD08B1FDF719
:102EF0005EFC079407A90E480894FFF77FF908B114
:102F0000FDF755FC60200090962001900220029071
:102F10000022694604940648FFF7A9FC08B1FDF7B2
:102F200046FC0348FFF77AFC0AB010BD00040040DD
:102F3000A401002010B590B0002409940A940B94C9
:102F4000142104A80C94FDF785F92C480D940E94D7
:102F50000094019402942849039401605321C0E92C
:102F600001144FF6FF71C0E903148461FFF78EF975
:102F700008B1FDF71CFC4FF48050099009A91F48C7
:102F8000FFF739FA08B1FDF712FC1C48FFF74BFBBD
:102F900008B1FDF70CFC042004905020CDE9050495
:102FA00004A916480894FFF74AFD08B1FDF7FFFB96
:102FB0000D940DA911480E94FFF720F908B1FDF703
:102FC000F6FB0120CDE900400294002269460B483F
:102FD0000394FFF799FA08B1FDF7E9FB022000908E
:102FE0000190042269460548FFF78EFA002801D0B7
:102FF000FDF7DDFB10B010BD00080040E40100202B
:103000001CB500240F4800940D490194016040F262
:103010004731C0E901144FF47A718461C160FFF750
:1030200035F908B1FDF7C3FB0094694605480194E2
:10303000FFF7E4F8002801D0FDF7B9FB1CBD000044
:1030400000100040240200201CB500240E4800940B
:103050000C49019401605321C0E901144CF2503134
:103060008461C160FFF712F908B1FDF7A0FB00947D
:10307000694605480194FFF7C1F8002801D0FDF723
:1030800096FB1CBD001400406402002010B50E4CDD
:103090000C480C2120604FF4E13060600020A060FB
:1030A000E060C4E90401A061E0612046FFF7F3FCA1
:1030B00008B1FDF77CFB2068C16841F02001C160C8
:1030C00010BD00000044004024010020FEE77047CE
:1030D00070470A6842624A688262D1E902231A4351
:1030E000D1E904310B43C16A1A4321F0F7011143BE
:1030F000C16200207047006800F003007047084478
:10310000406970470148FEF78DBC0000A402002012
:1031100070B50DF1100C11439CE870002343194366
:1031200029434268314347F6FF639A430A434260AA
:10313000002070BD10B5032101600220FDF790FE54
:10314000002010BDD0F8800070470A688260D1E985
:1031500001231A43D1E903310B43C1681A436FF3CA
:103160000B011143C160002070470968C0F880104E
:103170000020704710B586B004463720CDE9001016
:1031800040200290002003904FF480600490694634
:103190002046FFF7DAFF41F288323721204600F05F
:1031A000BDF906B010BD000010B504460A4886B04F
:1031B00001432920CDE90010402002900020039017
:1031C0004FF48060049069462046FFF7BEFF20461A
:1031D00000F05CFA06B010BD0000108010B586B09B
:1031E00004461020CDE900104020029000200390FA
:1031F0004FF48060049069462046FFF7A6FF41F235
:1032000088321021204600F089F906B010BD10B5B3
:1032100086B004460620CDE9001040200290002030
:1032200003904FF48060049069462046FFF78DFFBD
:1032300041F288320621204600F070F906B010BD38
:1032400030B585B000240546009401944FF48060A9
:103250000294CDE9034069462846FFF776FF0B4804
:103260004FF4FA510068B0FBF1F041F28831484365
:10327000401E03D24FF0004005B030BD696B090617
:10328000F6D5C520A8632046F6E700001C00002004
:1032900070B585B004464FF4D570009001A90820A0
:1032A0004025002681E86100C0010490694620465F
:1032B000FFF74BFF12484FF4FA510068B0FBF1F0F2
:1032C00041F288314843401E03D24FF0004005B020
:1032D00070BD616B11F0450FF5D00905F3D4606B3B
:1032E000400701D5042003E0606BC00702D0012035
:1032F000A063ECE7606B400600D5A5633046E6E7C7
:103300001C00002010B586B004461220CDE9001044
:1033100040200290002003904FF4806004906946A2
:103320002046FFF712FF41F288321221204600F0BA
:10333000F5F806B010BD10B586B004461120CDE9F1
:10334000001040200290002003904FF48060049011
:1033500069462046FFF7F9FE41F2883211212046E6
:1033600000F0DCF806B010BD10B586B004460720AA
:10337000CDE9002040200290002003904FF48060AF
:10338000049069462046FFF7E0FE41F288320721AB
:10339000204600F0C3F806B010BD10B586B0044654
:1033A00000210220CDE90010C020CDE902014FF438
:1033B0008060049069462046FFF7C7FE204600F073
:1033C0003DF906B010BD10B586B004460920CDE920
:1033D0000010C0200290002003904FF48060049001
:1033E00069462046FFF7B1FE204600F027F906B0F7
:1033F00010BD10B586B0044600213320CDE9001081
:103400004020CDE902010001049069462046FFF703
:103410009CFE41F288323321204600F07FF806B04E
:1034200010BD10B586B004460D20CDE90010402037
:103430000290002003904FF480600490694620467B
:10344000FFF783FE41F288320D21204600F066F836
:1034500006B010BD30B585B00C46054600210320EE
:10346000CDE900104020CDE9020100010490694639
:103470002846FFF76AFE22460321284600F028F975
:1034800005B030BD10B586B0044600210C20CDE952
:1034900000104020CDE90201000104906946204659
:1034A000FFF753FE034A0C21204600F037F806B020
:1034B00010BD000000E1F50510B586B004461920E6
:1034C000CDE9001040200290002003904FF480606E
:1034D000049069462046FFF738FE41F288321921F0
:1034E000204600F01BF806B010BD10B586B00446AB
:1034F0001820CDE9001040200290002003904FF4E6
:103500008060049069462046FFF71FFE41F2883232
:103510001821204600F002F806B010BD454B10B54A
:103520001B684FF4FA54B3FBF4F353435B1E02D20F
:103530004FF0004010BD426B12F0450FF6D012055F
:10354000F4D4426B520703D504218163084610BDB1
:10355000426BD20702D00121816305E0C52282635C
:103560000269D2B28A4201D0012010BD0021FFF7CA
:10357000C6FD3149084201D1002010BD002802DA01
:103580004FF0007010BD410001D5402010BD8100FA
:1035900001D5802010BDC10002D54FF4807010BD50
:1035A000010102D54FF4007010BD410102D54FF466
:1035B000806010BDC10102D54FF4006010BD010252
:1035C00002D54FF4805010BD410202D54FF4005097
:1035D00010BD810202D54FF4804010BDC10202D55A
:1035E0004FF4004010BD410302D54FF4003010BD30
:1035F000810302D54FF4802010BDC10302D54FF4E2
:10360000002010BD010402D54FF4801010BD41040C
:1036100002D54FF4001010BD810402D54FF4800094
:1036200010BD000702D54FF4000010BD4FF48030EC
:1036300010BD00001C00002008E0FFFD12494FF4FF
:10364000FA520968B1FBF2F141F288325143491E46
:1036500002D24FF000407047426B12F0450FF6D097
:103660001205F4D4416B490703D504218163084650
:103670007047416BC90703D0012181630846704739
:10368000C5218163002070471C0000200F494FF4C2
:10369000FA520968B1FBF2F141F288325143491EF6
:1036A00002D24FF000407047426B12F0450FF6D047
:1036B0001205F4D4416B490703D504218163084600
:1036C0007047C52181630020704700001C00002066
:1036D00030B5204B4FF4FA541B68B3FBF4F341F2BE
:1036E000883463435B1E02D24FF0004030BD446B10
:1036F00014F0450FF6D02405F4D4436B5B0703D5D3
:1037000004218163084630BD436BDB0702D00121F1
:10371000816303E00369DBB28B4201D0012030BD3D
:10372000C52181630021FFF7EAFC10F4604F04D04B
:10373000410406D54FF4005030BD000C108000202D
:1037400030BD000402D54FF4805030BD4FF48030BE
:1037500030BD00001C00002010B5064C0120207078
:10376000FCF758FF18B9207820F00100207020786D
:1037700010BD00000800002010B5846B40F23A50E4
:10378000216888632046FEF737F9012184F8341058
:1037900000212163062801D0052805D12068FFF704
:1037A00071FEA16B0843A063A06B0028204602D0E5
:1037B000FEF742F810BDFDF7C1FF10BD10B5846BD8
:1037C00040F23A50216888632046FEF715F901213E
:1037D00084F8341000212163062801D0052805D182
:1037E0002068FFF74FFEA16B0843A063A06B002881
:1037F000204602D0FEF720F810BDFDF79FFF10BD58
:103800002DE9F04F89B00D460446FDF75DFC00261A
:10381000834600960196374608212068FFF7DEFCB4
:10382000002834D1B4F8500001042068FFF7A2FC4E
:1038300000282CD1401E4FF00808CDE902083020A6
:103840004FF00209CDE904090120CDE9067002A973
:103850002068FFF73EFC2068FFF7CBFD002816D15B
:10386000EA4640F22A472068416B394212D1416B47
:10387000890204D5FFF766FC4AF82600761CFDF79E
:1038800023FCA0EB0B00401CEDD14FF0004009B031
:10389000BDE8F08F416B090703D5C0F838800820D8
:1038A000F5E7416B890703D5C0F838900220EEE7B1
:1038B000416B890603D5202181630846E7E740F282
:1038C0003A518163019800BA2860009800BA686094
:1038D0000020DCE710B590B004460120ADF83800B8
:1038E0002068FFF708FC002854D0606C032842D001
:1038F0002068FFF752FD00284AD100212068FFF719
:10390000FEFB606704212068FFF7F9FBA067082130
:103910002068FFF7F4FBE0670C212068FFF7EFFB5E
:10392000C4F88000606C032825D00EA92068FFF73A
:1039300091FD00282CD1606C03281CD0BDF8380004
:10394000206501042068FFF73EFD002820D10021FA
:103950002068FFF7D4FB606604212068FFF7CFFBE7
:10396000A06608212068FFF7CAFBE0660C212068EA
:10397000FFF7C5FB206704212068FFF7C0FB000D9F
:10398000E06403A92046FDF759FF30B14FF08050A5
:1039900010B010BD4FF08060FAE7B4F8500000237B
:1039A00002042068FFF7E0FC0028F1D104F11000C8
:1039B00007C88DE8070094E80F00FFF7A9FB002077
:1039C000E6E700002DE9F84F00260446009635464C
:1039D000B0460068FFF734FC002827D12068FFF7C5
:1039E00057FC4FF0805B4FF001094FF6FF7748B16D
:1039F000A6642068FFF724FC002817D1A06C0128DA
:103A000002D020E0C4F8489000212068FFF7B2FB04
:103A100058B918E000212068FFF7ACFB002805D159
:103A200051462068FFF7C0FB10B15846BDE8F88F3B
:103A300000212068FFF763FB05464FEAD078009825
:103A4000401C009002E0DFF82CA00098B84202D29F
:103A5000B8F1000FDED00098B84202D34FF080706A
:103A6000E4E7680002D5C4F8449000E066640020F2
:103A7000DCE70000000010C170B5064C05460120CF
:103A80002070FCF7D3FD18B92846FFF765FE2070BB
:103A9000207870BD0800002010B5124888B0144688
:103AA0000078C00702D0032008B010BDC1B10129C1
:103AB00005D0022908D003290CD00420F4E7684679
:103AC000FCF7A2FD06980AE06846FCF79DFD079802
:103AD000208005E06846FCF797FD0798400A2060C3
:103AE0000020E1E70800002070B51D461646084694
:103AF0000124A31E2A463146FCF7BEFD28B900BFAB
:103B0000FCF788FD0028FBD10024204670BDFFF79C
:103B100023BE000070B51D46164608460124A31EAC
:103B20002A463146FCF7BAFD28B900BFFCF772FD02
:103B30000028FBD10024204670BD7047FDF7CABAAB
:103B400030B593B030216846FCF784FB14210CA8F3
:103B5000FCF780FB19480025016841F080510160A5
:103B6000006800F0805011901548016841F48041D0
:103B700001600068022400F480401190012003904D
:103B800010200490009406940820CDE90750A82046
:103B9000CDE9090407200B906846FDF721FC0CA92C
:103BA0000F2081E831004FF4A0500F90E0021090F8
:103BB00005210CA8FDF728FB13B030BD40380240AA
:103BC000007000400548016841F47001016003493C
:103BD0004FF00060803908607047000088ED00E019
:103BE00000B5FCF785FD002804D003490348FCF725
:103BF0001BFE012000BD0000A404002000400008BE
:103C00000148FEF757BD0000640100200148FEF79F
:103C100051BD0000E40100200148FEF74BBD00004B
:103C2000240200200148FEF745BD00006402002088
:103C3000F0B50268254C264D264E274F274B4FF0F6
:103C4000804CA04209D0604507D0A84205D0B042C0
:103C500003D0B84201D0984204D122F0700E4A68D5
:103C600042EA0E02A0421BD0604519D0A84217D0EC
:103C7000B04215D0B84213D0984211D0184DA84286
:103C80000ED0184DA8420BD0174DA84208D0174DA2
:103C9000A84205D0164DA84202D0164DA84203D125
:103CA00022F44075CA682A434D6922F080022A43F3
:103CB00002608A68C2620A688262A04201D09842A9
:103CC00001D10969016301214161F0BD000001409A
:103CD0000004004000080040000C004000040140C7
:103CE00000400140004401400048014000180040ED
:103CF000001C00400020004010B501F01F0301210E
:103D0000046A99408C430462016A9A40114301623B
:103D100010BD10B5846842EA032224F47F440A43AC
:103D20002243826010BD826822F070020A4342F092
:103D30000701816070470000F0B5026A22F00102BD
:103D40000262036A42688469124E24F073050C68AB
:103D50002C4323F002058B682B430D4DA84201D064
:103D6000B04205D123F00807CB683B4323F004039E
:103D7000A84201D0B04205D14D6922F440721543EA
:103D80008A692A4342608461496841630362F0BDE5
:103D90000000014000040140F0B5026A22F0100268
:103DA0000262026A436884690D6824F4E64444EAC6
:103DB00005248D6822F0200242EA05120F4D104EB4
:103DC000A84201D0B04206D1CF6822F0800242EA78
:103DD000071222F04002A84201D0B04207D14D693B
:103DE00023F4406343EA85038D6943EA8503436016
:103DF0008461496881630262F0BD000000000140F7
:103E000000040140F0B5026A22F480720262026A84
:103E10004368C46922F4007224F073050C68124EE2
:103E20002C438D6842EA05220E4DA84201D0B042D3
:103E300006D1CF6822F4006242EA072222F48062AF
:103E4000A84201D0B04207D14D6923F4405343EA60
:103E500005138D6943EA05134360C4614968C16372
:103E60000262F0BD000001400004014030B5026A6A
:103E700022F480520262046A4268C3690D6823F426
:103E8000E64343EA05238D6824F4005444EA0534EC
:103E9000084DA84202D0084DA84204D14D6922F431
:103EA000804242EA85124260C3614968016404624B
:103EB00030BD0000000001400004014010B503685F
:103EC0009A6822F070044A68224322F007040A68C4
:103ED00022439A604A6812F00F0F30D11211082A5B
:103EE0002DD2DFE802F02C2C2C2C0B2127040B699F
:103EF000D1E902210068FFF70CFF20E00A68052ADB
:103F000010D00268136A146A24F001041462026873
:103F10009469096924F0F00444EA01119161006890
:103F200003620CE0012010BD0A698968006800F096
:103F300008F804E00A698968006800F053F8002076
:103F400010BD10B5036A046A24F001040462846998
:103F500024F0F00444EA021423F00A020A438461C4
:103F6000026210BD70B5046A24F001040462846921
:103F7000056A154EB04214D0B0F1804F11D0134EE7
:103F8000B0420ED0124EB0420BD0124EB04208D00A
:103F9000114EB04205D0114EB04202D0104EB04288
:103FA00003D124F00304144301E044F001041A0790
:103FB00024F0F00444EA126225F00A0301F00A0139
:103FC00019438261016270BD00000140000400409D
:103FD00000080040000C0040000401400040014087
:103FE0000018004010B5036A23F0100303628369D0
:103FF000046A23F4704343EA023224F0A00343EA44
:1040000001118261016210BD30B5046A24F0100410
:1040100004628469056A24F4407444EA022222F4AA
:1040200070444FF6FF7202EA03322243A02425F0C7
:10403000A00304EA011119438261016230BD00004E
:104040002DE9F041044600680169E26821F440511D
:10405000114301612169A068E26908436169114364
:1040600008432168CA6849F20C639A430243CA6054
:1040700020684169A26921F4407111434161E069FE
:10408000192764253226B0F5004F354A3549206896
:104090004FF0000806D0884201D0904236D1FDF79B
:1040A0005DF935E0884201D0904202D1FDF756F922
:1040B00001E0FDF743F961684A18A0FB070148EBEE
:1040C0000803FCF77DF80146B0FBF5F00201B1FBF7
:1040D000F5F06FF01803584301EB800006EBC000C9
:1040E000B0FBF5F000F0F80002EB4002B1FBF5F098
:1040F000584301EB800006EBC000B0FBF5F000F088
:104100000700216810448860BDE8F081FDF716F9CA
:1041100061688B0F8A00A0FB0701FCF751F801468C
:10412000B0FBF5F06FF01802504301EB800006EB96
:104130000010B0FBF5F000F0F002B1FBF5F002EB7F
:104140000012B1FBF5F06FF01803584301EB80004B
:1041500006EB0010B0FBF5F000F00F00D1E7000017
:10416000001401400010014038B50C4C2068016873
:10417000C943890609D44068C1B2A4F18C0000F09B
:1041800047FB21686FF02000086020680168C94380
:10419000090702D401684068009038BD240100205E
:1041A000FEE700002DE9F0411D4A0D4606462DEDC3
:1041B000028B111D1BA000F09DF920B10320BDEC66
:1041C000028BBDE8F081164C206881694789891E01
:1041D00001FB07F0FCF7BBF89FED138B53EC182B9A
:1041E000FCF743F8FCF7C0F8A060616807FB01F03A
:1041F000FCF7ADF853EC182BFCF737F8FCF7B4F8E4
:10420000E06058B104F110032A463146084800F036
:1042100022FA074800F0D8F90020D0E70420CEE7C2
:104220005800002000000000000000000000E03FF7
:10423000D80A002070B58EB0144606460D463422CA
:104240001A496846FBF7EDFFCDF80360CDF807503B
:104250002068CDF80B006068CDF80F00A068CDF89D
:104260001300E068CDF817002069CDF81B006069E5
:10427000CDF81F00208BADF82300608BADF8250032
:10428000A08BADF82700E08BADF82900208CADF8AD
:104290002B00608CADF82D00A08CADF82F003121E3
:1042A0006846FFF77FFF0EB070BD0000F84F0008B2
:1042B0000907090E002804DB00F1E02080F8001453
:1042C000704700F00F0000F1E02080F8141D7047E7
:1042D00002E008C8121F08C1002AFAD170477047CF
:1042E000002001E001C1121F002AFBD1704700002D
:1042F00010B504460020E070401E2063204600F008
:1043000002FD08B1042010BD04F2322000F04AFC86
:10431000A0F52A41553901D0032010BD94F834008E
:10432000E92805D0EB2814D194F83600902810D154
:1043300004F16A0000F02BFC0749B1EB002F06D016
:1043400004F1860000F023FC0449884201D10020DA
:1043500010BD022010BD00000046415446415433B8
:1043600030B50021054B0C4603EB01121568854260
:1043700000D11460491C0229F6D330BD6C00002026
:104380000268490AC06A5289B1FBF2F1001D04C8F3
:104390001AB1914203D3891AF8E7002070470068E8
:1043A000084470478269891E921E8A4201D8002003
:1043B0007047C26A408901FB002070472DE9F04137
:1043C00005680F00804606D000F062FB022809D283
:1043D0000120BDE8F0812E6916B1A869B04207D866
:1043E000012605E0411CF4D0A9698142F1D83E467E
:1043F0003446A869641CA04202D80224022E0AD3C3
:104400002146404600F044FB38B10128E1D0411C70
:10441000DFD0B442EDD10020DBE74FF0FF3632466B
:104420002146284600F088FC30B957B1224639466B
:10443000284600F081FC20B101280FD0012420463D
:10444000C7E72C61D5E90501891E884201D8401EC5
:104450006861287940F001002871F0E73446EEE702
:10446000084910B50B5C002253B901220A540A18FE
:1044700001EB8000127A40680168104688470246C6
:10448000104610BD8C00002030B4054C231804EBFE
:1044900080001B7A406804691846A44630BC604717
:1044A0008C00002030B4054D2C1805EB8000247AD8
:1044B000406885682046AC4630BC60478C000020D0
:1044C000044A111802EB8000097A406842680846E5
:1044D000104700008C00002030B4054D2C1805EB6F
:1044E0008000247A4068C5682046AC4630BC6047EE
:1044F0008C0000202DE9F74787B014468A46002239
:10450000694607A800F09AF95FEA000958D10098B7
:1045100020600098D0E90517BA1E914202D8CAF867
:1045200000104DE001784FF00008012901D0466AE3
:1045300019E002240190214601A800F0A9FA411CCB
:1045400003D0012803D028B106E0012000E00220BA
:1045500081462CE008F101080098641C80698442BF
:10456000E9D324E05DB93146761C009800F0CBFB1E
:104570005FEA00091BD1009C4FF4007534340098A9
:1045800000780228204604D000F001FB000108D08A
:1045900009E000F007FB08B908F10108A41CAD1EF2
:1045A00003E008F10108241D2D1F7F1EDAD1CAF88F
:1045B00000800098C0F81480017941F00101017178
:1045C0000AB04846BDE8F087F8B50446694600F0F1
:1045D000B6FC00280ED1217D4A060BD508060ED563
:1045E0000098226A0123407804F13001FFF774FF3C
:1045F00008B10120F8BD207D00F07F00207500F09B
:10460000A6FA0646616A009800F07DFB0028F1D109
:10461000A56A2946E87A40F02000E872A26820687E
:1046200000F0FFFB05F11C00E16800F00EFC3146D4
:1046300005F1160000F009FC002105F1120000F060
:104640000CFC00980121C17000F00CFC217D01F0F0
:10465000BF012175F8BD2DE9FE4F044600208846B4
:1046600018609946154602A9204600F068FC00280B
:1046700006D1607D002803D1207D800702D4072069
:10468000BDE8FE8FA069012742194FF0020A04F12C
:10469000300B824200D2C5439BE0A169C80575D1A9
:1046A00002984089401E10EA512618D129B1E06ACB
:1046B00038B12046FFF764FE07E0A06838B9002152
:1046C00000E0E1692046FFF779FE00287DD001284F
:1046D0002DD0411C54D0E061A16801B9A060207DBB
:1046E00000060BD50298226A012340785946FFF74D
:1046F000F3FEA0BB207D00F07F002075E1690298E9
:10470000FFF750FE98B130440190680A009027D01E
:104710003218029841898A4201D9891B0091DDE94A
:10472000003240784146FFF7D7FEC0B903E084F875
:1047300015A00220A4E7216A0198081A009988426E
:104740000AD208EB40214FF40072584600F0CAFA32
:10475000207D00F07F0020750098460228E00FE0E1
:10476000216A019881420FD0E168A06988420BD28A
:104770000298012359464078019AFFF793FE18B139
:10478000677501207CE701E001982062208BC0F36F
:104790000800C0F50076AE4200D92E4620443246CD
:1047A0004146303000F09EFA207D40F080002075B8
:1047B000A069B0443044A061E168884200D808464E
:1047C000E060D9F80000811900E005E0AD1BC9F8F0
:1047D0000010002D7FF461AF207D40F04000207577
:1047E00000204DE710B5048900F003F8201A80B2CC
:1047F00010BD8288C18800898B1A9BB2914202D277
:10480000821A11448BB2B3FBF0F100FB11307047F8
:104810002DE9F041C5888846044607890668FFF7F8
:10482000E1FF002808D006F805806D1CA8B2B84248
:1048300000D30020E0800120BDE8F0812DE9FF4198
:10484000002790460E460F6000F083F9050003D55F
:104850000B2004B0BDE8F0818A4850F825409CB197
:104860003460207808F0FE0620B16078FFF728FE5B
:10487000C1070BD02770E8B2B8466070FFF7F0FDB3
:10488000C10708D00320E4E70C20E2E70EB140079F
:1048900004D40020DDE71EB1400701D50A20D8E787
:1048A000002631462046FFF723FD022822D10025AD
:1048B0004FEA0D0704EB051090F8F61100F5F970BA
:1048C00019B1083000F063F900E0002047F8250036
:1048D0006D1C042DEED3002557F8256036B1314606
:1048E0002046FFF705FD022801D203E003206D1CDE
:1048F000042DF1D3042809D002286DD204F13F0021
:1049000000F050F9B0F5007F66D101E00120A0E78A
:1049100004F14A0000F046F918B904F1580000F01B
:1049200036F9E06194F84450A570012D01D0022DB4
:1049300052D1454394F841006081E8B3411E0842DA
:104940004AD104F1450000F02DF92081000743D140
:1049500004F1470000F026F9070004D104F15400E7
:1049600000F015F9074604F1420000F01BF90100C0
:1049700032D02389481900EB131297422CD3B81A6E
:104980006789B0FBF7F0B8B103274FF6F57C6045B7
:1049900000D8022740F6F57C604500D80127801C2E
:1049A0003244E2623144A061C4E90861032F15D0AA
:1049B00013B12944A16200E00EE0022F1FD000F0E5
:1049C000010100EB400001EB500000BFE16900F283
:1049D000FF10B1EB502F14D20D203AE704F15E0026
:1049E00000F0E0F80028F7D120890028F4D104F184
:1049F000600000F0CCF8A062A0698000E6E740000B
:104A0000E4E74FF0FF306061206180202071032FC8
:104A10002CD104F1640000F0C5F8012826D1711CE6
:104A2000204600F070F908BB84F8048004F23220BC
:104A300000F0B8F8A0F52A41553917D104F1340037
:104A400000F0A5F81049884210D104F5067000F076
:104A50009EF80E49884209D104F5077000F097F8D6
:104A6000606104F5087000F092F820610549277034
:104A7000091F0888401C0880E0802046FFF770FC72
:104A800007E7000024000020525261417272416128
:104A90002DE9F04104680D4602290BD3A069A84214
:104AA00008D920784FF0FF36012807D002282BD0F4
:104AB000032839D001263046BDE8F081606A05EB55
:104AC000550700EB5721204600F01DF90028F2D1D0
:104AD000C7F3080020447F1C90F83480606A00EB24
:104AE0005721204600F00FF90028E4D1C7F3080051
:104AF000204490F8341048EA0120E90701D0060963
:104B0000D9E7C0F30B06D6E7606A00EB1521204613
:104B100000F0F9F80028CED1E8B204EB40003430C0
:104B200000F040F80646C6E7606A00EBD511204663
:104B300000F0E9F80028BED140F2FF1000EA85003D
:104B40002044343000F023F820F07046B3E7002012
:104B5000704710B504464FF0FF302268002A13D08A
:104B6000114600E0491C0B78202B0ED33A2BF9D1CB
:104B700012F8013B303B0A2B06D28A4204D1002BAB
:104B800002D1491C1846216010BD002010BDC1781B
:104B9000827842EA01214278007842EA012140EA23
:104BA000012070474178007840EA012070470000FA
:104BB0008AB0FCF797FAFEF7C3FFFFF711F8FEF78C
:104BC000ABF8FEF759F8FEF731F8FDF7D3FFFEF723
:104BD0005DFAFEF701F9FEF773F9FEF711FAFEF739
:104BE00033FAFEF78BF8FEF707F9FEF7A3F9314821
:104BF000FDF7F0FB3048FDF7EDFB00212F48FDF7F6
:104C0000CFFE00212E48FDF72AFD04212D48FDF797
:104C100026FD2D4E2D4C002530780028FCD0357017
:104C200020680A302060642836D32560FBF7E4FD55
:104C3000274A92ED000AF8EE400AB8EE400ACDEDA0
:104C4000000A8DED010A92ED010AB8EE400A8DEDE1
:104C5000030A92ED020A1F4AB8EE400A8DED040ADB
:104C60001288ADF81E201C4A1288ADF820204FF49F
:104C7000FA62ADF818205210ADF81A20174A1268DF
:104C8000ADF81C200122ADF8222040F2DC52ADF834
:104C900024206A46FFF7CEFA60680A306060B0F5FB
:104CA000FA7FB9D34FF4E0410D486560FCF7FFF996
:104CB000B2E700002402002064020020A4010020CA
:104CC00064010020E40100202800002000000020F2
:104CD000900400202C00002030000020340400400C
:104CE00000040240002A05D011F8013B00F8013B06
:104CF000521EF9D1704700005FFA81F100F8011BE4
:104D0000521EFBD1704770B50446006B0D4600265D
:104D1000A8420FD0204600F0E9F806000AD16078DA
:104D200001232A4604F13401FFF7BCFB08B1751ECC
:104D300001262563304670BD2DE9F047022617464F
:104D40000D460446022969D3A069A84266D9207895
:104D50004FF00109012804D0022836D003285DD184
:104D600043E0616A05EB550801EB58212046FFF747
:104D7000CAFF060052D1C8F308002044343008F1BD
:104D80000108E90704D00178FAB262F31F1100E0CC
:104D90003946017084F80390616A204601EB58217E
:104DA000FFF7B1FF060039D1C8F3080020443430C2
:104DB000E90702D0C7F3071105E00178C7F3032222
:104DC00001F0F0011143017026E0606A00EB15214B
:104DD0002046FFF798FF060020D1E8B204EB400020
:104DE000B9B2343000F039F816E0606A00EBD51142
:104DF0002046FFF788FF060010D140F2FF1000EABE
:104E00008500204434300546FFF7C1FE67F31B00E0
:104E10000146284600F019F884F803903046BDE8B2
:104E2000F08770B50C460646154691B204F11A009B
:104E300000F013F83078032806D1290C04F114008F
:104E4000BDE8704000F009B870BD0170090A4170FA
:104E5000090A8170090AC17070470170090A41701E
:104E60007047000070B5044600F040F8050036D1E8
:104E7000207803282CD12079012829D1420204F17D
:104E8000340000210646FFF737FF4AF6552104F2A9
:104E90003220FFF7E2FF13493046FFF7D6FF1249F1
:104EA00004F50670FFF7D1FF04F507706169FFF79D
:104EB000CCFF04F508702169FFF7C7FF226A0123C0
:104EC000521C226360783146FFF706FB00202071F8
:104ED000002260781146FFF7D7FA00B10125284675
:104EE00070BD000052526141727241612DE9F04182
:104EF0000446C0780027F8B1256B04F134016078CE
:104F000001232A468846FFF7E7FA08B1012713E094
:104F10000020E070606AE169281A88420CD2A67805
:104F200008E0E0690123054460782A464146FFF71E
:104F3000D3FA761E022EF4D23846BDE8F08170B561
:104F40000E4604004FF009050CD0206850B10178DE
:104F500041B1A188C288914204D14078FFF7B0FAEC
:104F6000C00703D000203060284670BD00252068AF
:104F7000F9E70000793A00080F3B0008E93A000819
:104F8000153B0008993A0008000610160006101696
:104F900000000000000000000102030406070809E9
:104FA0000000000001020304805900006C5000085A
:104FB0007C500008CC500008000D00007050000824
:104FC0006450000884500008023100007850000846
:104FD000545000089C50000801130000685000085D
:104FE0009450000840500008A39500000000000005
:104FF0000000000000000000A39502000000000077
:1050000000000000000000000000000000000000A0
:105010000000000000000000000000000000000090
:10502000000000000000000000000000A395010047
:105030000000000000000000000000000000000070
:1050400054696D6555532C6D312C6D322C6D332C9C
:105050006D34000051666666666666484848484892
:10506000484800005148000050574D00464D54003C
:1050700054455354000000004543550042426E4ED3
:105080005A00000054696D6555532C76616C756546
:1050900000000000516868686800000054696D6590
:1050A00055532C56532C562C43532C432C43432CF2
:1050B00074656D702C6D612C6D692C6F752C696D2C
:1050C0002C69742C73642C6D730000005479706526
:1050D0002C4C656E6774682C4E616D652C466F7242
:1050E0006D61742C436F6C756D6E73000C5100080C
:1050F000000000206C000000D04200087851000839
:105100006C0000209CCC0000E04200080000000081
:10511000000000000100000000000000010000008D
:1051200010000000000000000024F4000000000057
:10513000000000000000000000000000000000006F
:10514000000000000000000000000000000000005F
:10515000000000000000000000000000000000004F
:10516000000000000000000000000000000000003F
:08517000000000000000000037
:040000050800018965
:00000001FF
