:020000040800F2
:10000000F0C800209D010008453600081D31000899
:1000100041360008D3070008214D00080000000009
:10002000000000000000000000000000F144000893
:10003000E70800080000000047360008F344000805
:10004000B7010008B7010008B7010008B7010008B0
:10005000B7010008B7010008E9080008FF08000818
:10006000B7010008B7010008B7010008B701000890
:10007000B7010008B7010008B7010008B701000880
:10008000B7010008B701000869050008B7010008BA
:10009000B7010008B7010008B7010008B701000860
:1000A000B7010008B7010008B7010008B701000850
:1000B000B7010008B7010008B7010008B701000840
:1000C000B7010008B7010008B7010008B701000830
:1000D000B7010008B70100089D4C0008B7010008EF
:1000E000F3080008B7010008B7010008B7010008CD
:1000F000B7010008B7010008B7010008B701000800
:10010000B701000895360008D1450008B70100087E
:10011000B7010008B7010008E1450008F1450008F3
:10012000D9070008B7010008B7010008E90700086F
:10013000B70100080000000000000000B70100083F
:10014000B7010008B7010008B7010008B7010008AF
:10015000B7010008F9070008B7010008B701000857
:10016000B7010008B7010008B7010008B70100088F
:10017000B7010008B701000800000000B70100083F
:10018000B7010008B7010008DFF80CD000F0DAF979
:100190000048004719680008F0C80020064880475A
:1001A00006480047FEE7FEE7FEE7FEE7FEE7FEE75C
:1001B000FEE7FEE7FEE7FEE7B54500088901000817
:1001C0002DE9F05F0546002092469B46884606468C
:1001D000814640241BE0284641464746224600F01F
:1001E0000DF953465A46C01A914110D3114618468C
:1001F000224600F0F4F82D1A67EB01084F4622461C
:100200000120002100F0EBF817EB00094E41201E01
:10021000A4F10104DFDC484631462A464346BDE8E6
:10022000F09F40EA01039B0703D009E008C9121FB1
:1002300008C0042AFAD203E011F8013B00F8013BA0
:10024000521EF9D27047D2B201E000F8012B491ECC
:10025000FBD270470022F6E710B513460A46044663
:100260001946FFF7F0FF204610BD10B5044604E024
:100270000B7800F8013B03B1491C521EF8D220460E
:1002800010BD2DE9FE4F81EA030404F0004421F083
:10029000004100944FF0000B23F0004350EA0104AA
:1002A0005ED052EA03045BD0C3F30A54C1F30A558B
:1002B0002C44A4F2F3340194A0FB0254C1F31301C3
:1002C00041F48011C3F3130343F4801301FB024490
:1002D00000FB034E840A970A44EA815447EA835795
:1002E000A4FB076802958D0A05FB07854FEA932C4E
:1002F00004FB0C542705029D4FEA065847EA1637BF
:10030000B5EB08056EEB070C870E920E47EA8117D6
:1003100042EA8312A7FB0201B6EB0B0164EB000477
:100320002B0D43EA0C335E1844EB1C50DA46514661
:10033000E7FB0201C5F313044FEA0B3343EA1453FE
:100340004FEA0432019C43EA0603A4F10C04029430
:10035000009CCDE900B400F0A7F803B0BDE8F08F31
:1003600000200146F9E7F0B4CA17CB0F50405140C6
:10037000C61841F100054FEAC372314628004FF01C
:10038000960303D0B623F0BC00F051B830460021EC
:10039000F9E70EB540F2334102910021CDE9001199
:1003A0000A460B4600F080F803B000BDC1F30A52C4
:1003B00010B5C1F3130140F2FF3341F480119A42AA
:1003C00001DA002010BD40F233439A42A2F23342D8
:1003D00003DC524200F012F810BD904010BD202AFC
:1003E00004DB203A00FA02F1002070479140C2F18C
:1003F000200320FA03F3194390407047202A04DBBE
:10040000203A21FA02F00021704721FA02F3D0408D
:10041000C2F1200291400843194670470029A8BF45
:100420007047401C490008BF20F00100704710B41D
:10043000B0FA80FC00FA0CF050EA010404BF10BCD2
:10044000704749B1CCF1200421FA04F411FA0CF1FF
:1004500018BF012121430843A3EB0C01CB1D4FEA38
:1004600000614FEA102042BF002010BC704700EB33
:10047000C35010440029A4BF10BC7047401C490061
:1004800008BF20F0010010BC704710B5141E73F1B6
:10049000000408DA401C41F1000192185B411A4344
:1004A00001D120F0010010BD2DE9F04D92469B4690
:1004B00011B1B1FA81F202E0B0FA80F22032904636
:1004C000FFF78DFF04460F4640EA0A0041EA0B01A0
:1004D00053465A46084313D0114653EA010019D037
:1004E000C8F140025046FFF789FF05460E465046C8
:1004F00059464246FFF773FF084305D0012004E048
:1005000020463946BDE8F08D0020054346EAE076F6
:100510002C4337430A986305E40AA0EB0800002245
:10052000FD0A44EA47540A3002D500200146E9E7B3
:10053000010510196941DDE9084500196941BDE867
:10054000F04DA2E7064C074D06E0E06840F00103DD
:1005500094E8070098471034AC42F6D3FFF718FE32
:10056000781A0308981A030810B5024800F006FB31
:1005700010BD00000403002055494A6822F44032AF
:100580004A604A6843681A434A600268526822F423
:10059000807203685A6002685368026943EA022263
:1005A00003685A600268526822F0407203685A6019
:1005B0000268526883681A4303685A600268926846
:1005C00022F4006203689A6002689268C3681A4362
:1005D00003689A603F4B826A9A4218D00268926818
:1005E00022F0706203689A6002689268836A1A4314
:1005F00003689A600268926822F0405203689A6029
:1006000002689268C36A1A4303689A600BE0026842
:10061000926822F0706203689A600268926822F021
:10062000405203689A600268926822F002020368EE
:100630009A6002689368027E43EA420203689A6005
:100640002022125CA2B10268526842F40062036880
:100650005A600268526822F4604203685A60026875
:100660005368426A521E43EA423203685A6005E008
:100670000268526822F4006203685A600268D26A13
:1006800022F470020368DA620268D36A828B521E17
:1006900043EA02520368DA620268926822F4007246
:1006A00003689A600268936890F8302043EA422217
:1006B00003689A600268926822F4806203689A6014
:1006C00002689368426943EA822203689A6070472D
:1006D000002301400100000F10B5012480210448CF
:1006E00000F0F2FE012800D00024204610BD0000DA
:1006F000000802407047000010B504462146024839
:1007000001F09AFC10BD0000C000002010B50448A4
:1007100001F0A5FC042801D0012010BD0020FCE759
:10072000C000002010B5002400F014F8012801D00A
:10073000012010BD064801F0B3FD044634B94FF462
:100740000061034801F03EFB00B101242046F0E7C0
:10075000C000002008B501200090FFF7BDFF08B9D8
:10076000002000909DF8000008BD00002DE9F8432E
:1007700004460D4616461F464FF0000833462A46EB
:1007800021460548009701F0B1FE08B14FF001087D
:100790004046BDE8F8830000C0000020704700001C
:1007A0002DE9F84304460D4616461F464FF0000853
:1007B00033462A4621460548009702F001F808B161
:1007C0004FF001084046BDE8F8830000C00000205B
:1007D000704700BFFEE7000010B5024800F03EFB86
:1007E00010BD00004C03002010B5024800F036FB9D
:1007F00010BD00004401002010B5024800F02EFB9F
:1008000010BD0000A401002001460878103818230C
:10081000B0FBF3F20848805CC865032A05D9086874
:100820006FF30900001D886503E008686FF3090095
:100830008865886D704700004C6D000801460020F7
:100840008A6A8B69CBB932B1012A0DD0022A03D052
:10085000032A10D10EE000BFCB6A03F08073B3F11E
:10086000807F00D1012007E0CB6AB3F1C07F00D1C7
:10087000012001E000E000BF34E08B69B3F5005FC8
:100880001AD132B1012A07D0022A03D0032A11D18A
:100890000AE000BF01200EE0CB6A03F08073B3F1E1
:1008A000807F00D1012006E0CB6AB3F1C07F00D188
:1008B000012000E000BF15E032B1012A05D0022A74
:1008C00004D0032A0CD103E000BF00BF012008E0E0
:1008D000CB6A03F08073B3F1807F00D1012000E088
:1008E00000BF00BF7047704710B5012000F0DEFC6C
:1008F00010BD10B54FF4004000F0D8FC10BD10B58D
:10090000022000F0D3FC10BD704730B504460D4600
:1009100000222946204600F001F830BDF0B503461C
:10092000012500241148407A01281CDA00200F4ECE
:10093000767A0E4FB8553846467A001D40F8263074
:10094000001F467A083082553E46707A461C7E72F9
:10095000044604F1300008703A2048702F20887057
:100960000020C87000252846F0BD0000B40000201B
:1009700070B505460C4659212046FFF76BFCA320B5
:100980002070952060708020A0702878E0706878D2
:1009900020710422601D6968FFF767FC102204F1D2
:1009A0000900A968FFF761FC402204F11900E96819
:1009B000FFF75BFC70BD000070B50948006882B2AB
:1009C0000848016843684CF250340025A1FB040636
:1009D00003FB046301FB0534801844EB050170BD83
:1009E00024140040280000207047000038B502465B
:1009F0000020009000BF92F83C00012801D10220A5
:100A000038BD012082F83C0000BF0868092816D9CB
:100A10001068C0680C780A3C04EB44050724AC401D
:100A2000A0431468E0600C780A3C04EB4404886836
:100A3000A0401468E46820431468E06013E0106884
:100A400000690C7804EB44050724AC40A04314680B
:100A500020610C7804EB44048868A0401468246981
:100A60002043146820614868072817D21068406B3B
:100A70000C79641E04EB84051F24AC40A043146869
:100A80006063088880B20C79641E04EB8404A04083
:100A90001468646B20431468606331E048680D2873
:100AA00017D21068006B0C79E41F04EB84051F2437
:100AB000AC40A04314682063088880B20C79E41F1E
:100AC00004EB8404A0401468246B20431468206362
:100AD00016E01068C06A0C790D3C04EB84051F24F5
:100AE000AC40A0431468E062088880B20C790D3CE9
:100AF00004EB8404A0401468E46A20431468E062B4
:100B0000194B1A4C1068A04206D10868122803D16C
:100B1000586840F480005860144C1068A0421CD102
:100B20000868102802D00868112816D1586840F4C7
:100B300000005860086810280FD10D4800680D4C5F
:100B4000B0FBF4F000EB80004000009002E0009861
:100B5000401E009000980028F9D100BF002082F8C4
:100B60003C0000BF00BF4BE70023014000200140D4
:100B70001C00002040420F007047704770B50446CB
:100B80000025002620680068C0F340052068406802
:100B9000C0F3401695B38EB3206C00F0100018B966
:100BA000206C40F4007020642068806800F04050A1
:100BB000E8B9207ED8B92068C06A00F4700020B17E
:100BC0002068806800F4806088B92068406820F060
:100BD000200021684860206C20F480702064206C24
:100BE00000F4805018B9206C40F0010020642046C9
:100BF000FFF7C2FF6FF012002168086020680068EC
:100C0000C0F3800520684068C0F3C016E5B3DEB3CA
:100C1000206C00F0100018B9206C40F400502064E3
:100C20002068806800F4401038BB2068806B00F4B6
:100C3000401020B12068806800F48060E8B9206826
:100C4000406800F48060C0B92068806800F04050BF
:100C500098B9207E88B92068406820F0800021681B
:100C60004860206C20F480502064206C00F4807078
:100C700018B9206C40F0010020642046FFF7B4FE54
:100C80006FF00C00216808602068006800F0010522
:100C900020684068C0F3801685B17EB12068006886
:100CA00000F0010050B1206C40F4803020642046F8
:100CB00000F052F86FF001002168086020680068B9
:100CC000C0F3401520684068C0F380667DB176B1FE
:100CD000606C40F0020060646FF0200021680860E2
:100CE0002046FFF74AFF6FF020002168086070BDC2
:100CF00070B5044600250CB9012070BD1549A06AE5
:100D0000884200D000BF206C30B9204600F026F8A1
:100D10000020606484F83C00206C00F0100088B96A
:100D2000206C20F4885040F0020020642046FFF739
:100D300023FC00206064206C20F0020040F00100E1
:100D4000206400E0012500BF002084F83C0000BFC3
:100D50002846D2E70100000F7047000010B586B0AA
:100D60000446142101A8FFF775FA2D49206888422E
:100D700053D100BF002000902A48006840F48070E2
:100D8000284908600846006800F48070009000BFA1
:100D900000BF00BF0020009022481438006840F0D7
:100DA00001002049143908600846006800F001007D
:100DB000009000BF00BFF2200190032002900020AD
:100DC000039001A9184800F07FFA184818490860F4
:100DD00000204860002116488160C1604FF48061A6
:100DE000016189004161890081618911C161490204
:100DF00001620021416200F051F908B1FFF784FD62
:100E000000BF0B48A063846300BF0022114612207C
:100E100000F0FCFB122000F0E9FB06B010BD000062
:100E200000200140443802400000024010640240AB
:100E30004C030020014691F83500022803D08020A1
:100E4000486501207047052081F835000868006872
:100E500020F001000A6810600020F3E7F8B50446AE
:100E6000002000908C4800684FF41651B0FBF1F759
:100E7000A56D2E6894F85C1008208840304098B129
:100E80002068006800F0040070B12068006820F05D
:100E900004002168086094F85C1008208840A8606D
:100EA000606D40F00100606594F85C10012088409E
:100EB000304068B12068406900F0800040B194F88B
:100EC0005C1001208840A860606D40F00200606501
:100ED00094F85C1004208840304068B120680068B5
:100EE00000F0020040B194F85C1004208840A86033
:100EF000606D40F00400606594F85C10102088403C
:100F0000304078B32068006800F0080050B394F8CF
:100F10005C1010208840A8602068006800F48020E1
:100F200080B12068006800F4002028B9206CC8B1A6
:100F30002046216C884715E0A06C98B12046A16C32
:100F400088470FE02068006800F4807028B92068A6
:100F5000006820F0080021680860206C10B120466D
:100F6000216C884794F85C1020208840304000288D
:100F700065D02068006800F0100000285FD094F869
:100F80005C1020208840A86094F83500052828D1FE
:100F90002068006820F01600216808602068406919
:100FA00020F0800021684861206C08B9A06C28B14D
:100FB0002068006820F008002168086094F85C1040
:100FC0003F208840A86000BF002084F8340000BFA4
:100FD000012084F83500206D10B12046216D88472E
:100FE000F8BD2068006800F4802080B120680068A7
:100FF00000F4002028B9606C10B12046616C88476D
:101000001DE0E06BD8B12046E16B884717E020680F
:10101000006800F4807068B92068006820F0100053
:101020002168086000BF002084F8340000BF012060
:1010300084F83500E06B10B12046E16B8847606DA5
:1010400038B3606D00F00100F0B1052084F8350080
:101050002068006820F001002168086000BF009847
:10106000401C0090B84200D905E02068006800F0FC
:1010700001000028F3D100BF00BF002084F8340035
:1010800000BF012084F83500E06C10B12046E16C0F
:10109000884700BFA4E700001C0000202DE9F041B4
:1010A0000446002500F028FA074614B90120BDE8DF
:1010B000F081606A00B100BF00BF002084F83400F6
:1010C00000BF022084F835002068006820F001008D
:1010D000216808600AE000F00FFAC01B052805D956
:1010E00020206065032084F83500E0E72068006870
:1010F00000F001000028EED1206805682148054075
:10110000D4E901010843E1680843216908436169A2
:101110000843A1690843E1690843216A084305437C
:10112000606A042803D1D4E90B0108430543206811
:1011300005602068456925F00705606A0543606A17
:1011400004280DD1A06A0543E06A48B12046FFF7A4
:1011500075FB28B140206065012084F83500A6E7C2
:10116000206845612046FFF74FFB064694F85C1067
:101170003F208840B06000206065012084F8350081
:10118000002094E73F8010F070B5044600F0B4F9F9
:1011900006462546681C10B104480078054400BF87
:1011A00000F0AAF9801BA842FAD370BD18000020F5
:1011B00010B50446012C1ED10121324800F084F9FB
:1011C000012804D1FFF7F8FB2F4A03C213E00121E5
:1011D0002C4800F079F970B9FFF7EEFB2B4A03C2F7
:1011E0002A48D0E90020284B0ACB511A60EB0300B3
:1011F000274AC2E90010022C1ED10221214800F02A
:1012000063F9012804D1FFF7D7FB224A03C213E098
:1012100002211C4800F058F970B9FFF7CDFB1E4AB7
:1012200003C21D48D0E900201A4B0ACB511A60EBCB
:1012300003001A4AC2E90010B4F5004F21D14FF45F
:101240000041104800F040F9012804D1FFF7B4FB39
:10125000134A03C215E04FF400410A4800F034F984
:1012600078B9FFF7A9FB0F4A03C20E48D0E9003056
:101270000B49D1E900219A1A60EB01000A49C1E942
:10128000002010BD00040240300000203800002083
:10129000400000204800002050000020580000209E
:1012A00060000020680000207000002010B5044697
:1012B00004480068204020B1024804602046FFF73F
:1012C00077FF10BD143C0140F8B502460B460025DF
:1012D000002400200021DCE0012606FA01F51E684A
:1012E00006EA0504AC4273D15E68012E08D05E6840
:1012F000022E05D05E68112E02D05E68122E13D128
:1013000090684F000326BE40B0434F00DE68BE40E9
:1013100030439060506801268E40B0431E79C6F37A
:1013200000168E4030435060D0684F000326BE4008
:10133000B0434F009E68BE403043D0605E68022ECE
:1013400002D05E68122E13D1CF0802F1200656F8A3
:1013500027004E07F70E0F26BE40B0434F07FF0E83
:101360001E69BE403043CF0802F1200646F8270030
:1013700010684F000326BE40B0431E7906F00306F6
:101380004F00BE40304310605E6806F08056B6F1F4
:10139000805F7DD100BF00260096404E366846F43F
:1013A00080463E4F3E603E46366806F480460096D4
:1013B00000BF00BF3A4E8F0856F827008E07370F40
:1013C0000F26BE40B043374EB24202D1002624E081
:1013D0005EE0354EB24201D101261EE0334EB242EC
:1013E00001D1022619E0324EB24201D1032614E0A7
:1013F000304EB24201D104260FE02F4EB24201D14D
:1014000005260AE02D4EB24201D1062605E02C4EFB
:10141000B24201D1072600E008268F073F0FBE40E9
:1014200030431F4E8F0846F82700264E3068A043F1
:101430005E6806F48036B6F5803F00D12043214E29
:101440003060361D3068A0435E6806F40036B6F59D
:10145000003F00D120431B4E361D3060361D3068E2
:10146000A0435E6806F48016B6F5801F00D12043C5
:10147000144E08363060361D3068A0435E6806F4AE
:101480000016B6F5001F00D120430E4E0C3630601A
:10149000491C1029FFF420AFF8BD00004438024079
:1014A00008380140000002400004024000080240E9
:1014B000000C0240001002400014024000180240DC
:1014C000001C0240003C0140024613690B400BB176
:1014D000012000E00020704742690A408A4202D1A0
:1014E0000A04826100E0816170470AB1816101E014
:1014F0000B048361704700000148006870470000DA
:101500001000002003480068034909780844014995
:1015100008607047100000201800002010B50D482A
:10152000006840F400700B4908600846006840F409
:10153000806008600846006840F4807008600320FE
:1015400000F0A2F8002000F007F800F02BF80020CF
:1015500010BD0000003C024070B504460E48007803
:101560004FF47A71B1FBF0F00C490968B1FBF0F56A
:10157000284601F04FFA08B1012070BD102C07D2A7
:1015800000222146501E00F041F80548046001E0A9
:101590000120F2E70020F0E7180000201C000020E6
:1015A0001400002008B500BF002000900E4800681D
:1015B00040F480400C4908600846006800F4804010
:1015C000009000BF00BF00BF00200090081F00680F
:1015D00040F08050091F08600846006800F0805005
:1015E000009000BF00BF08BD4438024001460846D5
:1015F000002809DB00F01F0301229A4043099B00E9
:1016000003F1E023C3F8002100BF70472DE9F05F2C
:1016100080460D461646002703F01CFC0746394657
:101620002A46334601F00700C0F1070ABAF1040F59
:1016300002D94FF0040A01E0C0F1070AD14600F1D7
:10164000040ABAF1070F02D24FF0000A01E0A0F13C
:10165000030AD4464FF0010A0AFA09FAAAF1010A6C
:101660000AEA020A0AFA0CFA4FF0010B0BFA0CFB19
:10167000ABF1010B0BEA030B4AEA0B04214640468F
:1016800003F0F0FBBDE8F09F00BF00F00702064B3F
:1016900019684FF6FF031940044B0B4343EA02213C
:1016A000014B196000BF70470CED00E00000FA0527
:1016B00070B504460D460CB9012070BD584800684D
:1016C00000F00F00A84209D255490D700846006885
:1016D00000F00F00A84201D00120EEE7207800F0D2
:1016E000020002281DD1207800F00400042805D152
:1016F0004C48006840F4E0504A490860207800F007
:101700000800082805D14748006840F46040454972
:1017100008604448006820F0F000A168084341498F
:101720000860207800F00100A8B36068012807D1A4
:101730003C4808380068C0F34040B8B90120BCE715
:101740006068022802D06068032807D1354808384D
:101750000068C0F3406048B90120AEE7314808385E
:101760000068C0F3400008B90120A6E72D480068D2
:1017700020F00300616808432A490860FFF7BCFEB7
:10178000064609E0FFF7B8FE801B41F28831884227
:1017900002D9032091E707E02248006800F00C001E
:1017A0006168B0EB810FEDD11D48006800F00F00BB
:1017B000A84209D91A490D700846006800F00F00C8
:1017C000A84201D0012078E7207800F00400042826
:1017D00007D11448006820F4E050E168084311493B
:1017E0000860207800F00800082808D10D4800683B
:1017F00020F46040216940EAC1000A49086000F015
:101800003FF808490968C1F30311074A515CC84011
:101810000649086006480068FFF79EFE00204CE776
:10182000003C024008380240546D00081C000020B3
:101830001400002001480068704700001C000020D0
:1018400000B5FFF7F7FF04490968C1F38221034A95
:10185000515CC84000BD000008380240646D0008BB
:1018600000B5FFF7E7FF04490968C1F34231034AB5
:10187000515CC84000BD000008380240646D00089B
:101880002DE9F047002400250026A14625480068E0
:1018900000F00C0020B1042805D008283AD105E05A
:1018A000DFF8849039E0DFF8849036E01D48001FAF
:1018B000006800F03F041B48001F006800F480002F
:1018C00078B11A481749091F0968C1F38811A0FBAC
:1018D00001700146224600233846FEF771FC05469A
:1018E0000EE011480F49091F0968C1F38811A0FBD8
:1018F00001700146224600233846FEF761FC05468A
:101900000848001F0068C0F30140401C4600B5FBBA
:10191000F6F902E0DFF8109000BF00BF4846BDE8CE
:10192000F0870000083802400024F40040787D0170
:10193000F8B504460CB90120F8BD207800F001008C
:10194000002874D0F948006800F00C0004280DD07D
:10195000F648006800F00C00082813D1F348001F77
:10196000006800F48000B0F5800F0BD1EF48083814
:101970000068C0F34040002859D06068002856D164
:101980000120D9E700BF6068B0F5803F08D1E74883
:101990000838006840F48030E449083908601EE0E7
:1019A0006068B0F5A02F0DD1E0480838006840F419
:1019B0008020DE49083908600846006840F480301D
:1019C00008600CE0D9480838006820F48030D74916
:1019D000083908600846006820F48020086000BFCD
:1019E000606890B1FFF788FD054606E0FFF784FDCB
:1019F000401B642801D903209EE7CC4808380068C2
:101A0000C0F340400028F1D011E0FFF775FD054616
:101A100006E0FFF771FD401B642801D903208BE726
:101A2000C24808380068C0F340400028F1D120784F
:101A300000F0020002285FD1BC48006800F00C00F2
:101A400058B1BA48006800F00C0008281CD1B7480B
:101A5000001F006800F48000B0B9B448083800687E
:101A6000C0F3400020B1E068012801D0012063E705
:101A7000AE480838006820F0F800216940EAC1004B
:101A8000AA490839086037E0E06800B30120A84996
:101A90000860FFF731FD054606E0FFF72DFD401B0E
:101AA000022801D9032047E7A04808380068C0F39E
:101AB00040000028F1D09D480838006820F0F80068
:101AC000216940EAC10099490839086014E0002002
:101AD00097490860FFF710FD054606E0FFF70CFD8B
:101AE000401B022801D9032026E7904808380068E7
:101AF000C0F340000028F1D1207800F00800082849
:101B00002CD16069A8B101208A490860FFF7F4FC74
:101B1000054606E0FFF7F0FC401B022801D9032030
:101B20000AE782486C300068C0F340000028F1D01A
:101B300014E000207F490860FFF7DEFC054606E060
:101B4000FFF7DAFC401B022801D90320F4E67748AE
:101B50006C300068C0F340000028F1D1207800F01C
:101B60000400042870D1002770483830006800F065
:101B7000805090B900BF002000906C483830006859
:101B800040F080506949383108600846006800F02C
:101B90008050009000BF00BF01276748006800F434
:101BA0008070B0B96448006840F480706249086091
:101BB000FFF7A2FC054606E0FFF79EFC401B02284B
:101BC00001D90320B8E65C48006800F48070002862
:101BD000F2D000BFA068012808D1544868300068DE
:101BE00040F001005149683108601DE0A0680528F7
:101BF0000DD14E486830006840F004004B49683110
:101C000008600846006840F0010008600CE04748A2
:101C10006830006820F001004449683108600846D7
:101C2000006820F00400086000BFA068A8B1FFF7BA
:101C300063FC054609E0FFF75FFC401B41F2883179
:101C4000884202D9032077E626E0384868300068E9
:101C5000C0F340000028EED013E0FFF74DFC05462E
:101C600008E0FFF749FC401B41F28831884201D966
:101C7000032061E62D4868300068C0F3400000286A
:101C8000EFD1012F07D129483830006820F080506B
:101C900026493831086000BFA069002845D0234894
:101CA000006800F00C0008285DD0A069022845D12A
:101CB00000201F490866FFF71FFC054606E0FFF7F6
:101CC0001BFC401B022801D9032035E617480838C1
:101CD0000068C0F340600028F1D1D4E9070108434F
:101CE000616A40EA81110122A06AC2EB500041EA18
:101CF00000412C20005D41EA00600C49091F08608A
:101D000001200B490866FFF7F7FB054606E0FFF7E1
:101D1000F3FB401B022801D903200DE603480838D5
:101D20000068C0F340600028F1D03FE0083802406E
:101D300000004742800E47420070004000201C49CE
:101D40000866FFF7D9FB054606E0FFF7D5FB401B09
:101D5000022801D90320EFE516480068C0F340606F
:101D60000028F2D122E0A069012800D1E4E5114861
:101D7000001D066806F48001E069814214D106F076
:101D80003F01206A81420FD147F6C0703040616A3E
:101D9000884209D106F44031A06A814204D106F09C
:101DA0007061E06A814201D00120C5E50020C3E5F1
:101DB000000047420038024010B50446FEF79AFC86
:101DC00010BD000070B58AB004460D46032084F8AB
:101DD0003400606C032820D0B5F5805F04D1A06B7F
:101DE00040F08050A0631CE0B5F5006F07D120469D
:101DF00002F0A3FA0646A06B3043A06311E03DB9A0
:101E0000204602F066FA0646A06B3043A06308E065
:101E1000A06B40F00060A06303E0A06B40F0805036
:101E2000A063A06B38B1104821688863012084F852
:101E300034000AB070BD60680490A0680590E06846
:101E40000690079560690890A069099007A807C8DF
:101E50008DE80700206804A90EC901F023FC0120C9
:101E600084F834000020E4E7FF05400070470000DC
:101E700010B50246506E800F0870506EC0F383603C
:101E80004870506EC0F301608870506E000CC870CE
:101E9000B2F86400000A087192F864004871906E0C
:101EA000000DC880906EC0F3034008726820805A0D
:101EB000C0F3C03048726820805AC0F38030887206
:101EC0006820805AC0F34030C8726820805AC0F33E
:101ED0000030087300204873506C002836D1682009
:101EE000805A8005030DD06E43EA90700861D06E71
:101EF000C0F3C2600875D06EC0F302604875D06E42
:101F0000C0F342508875D06EC0F38240C875D06E61
:101F1000C0F3C23008760869401C50650B7E506DD6
:101F200003F007039B1C01249C4060435065087A22
:101F300000F00F03012098409065D2E915035B0A79
:101F40005843D0654FF40073136621E0506C0128AC
:101F500013D16820805C8006830AD06E43EA10406B
:101F600008610869401C83025365536DD3654FF4C3
:101F700000739365936D13660AE02E4813689863A7
:101F8000906B40F080509063012082F8340010BDC7
:101F90006C20805AC0F3803001F8190F6C20805AF1
:101FA000C0F3C61048706C20805C00F07F00887021
:101FB000106FC00FC870106FC0F341700871106FC0
:101FC000C0F382604871106FC0F383508871106F46
:101FD000C0F34050C87100200872106FC0F3004079
:101FE00048727020805AC0F3C03088727020805AC6
:101FF000C0F38030C8727020805AC0F3403008733C
:102000007020805AC0F3003048737020805AC0F3AB
:10201000812088737020805AC0F30120C87370201B
:10202000805CC0F346000874012048741939002010
:10203000ADE70000FF0540000246506C0860906C60
:102040004860D06C8860106DC860506D0861906DFC
:102050004861D06D8861106EC86100207047F8B586
:102060000446002000906946204602F01AF9054611
:1020700015B1A06B2843A0630098C0F343263046F7
:10208000F8BD000070B50446256B2068406BC0F3B6
:10209000C03030B105F0080018B1204602F0DCF87D
:1020A000F8E02068406BC0F30020002862D04FF4B5
:1020B0008070216888632068C06B4CF23A31884395
:1020C0002168C8632068C06A20F001002168C862E6
:1020D00005F0080038B305F0020010B905F0200043
:1020E00050B1206801F09EFC06462EB1A06B304333
:1020F000A0632046FFF7BAFE40F23A502168886399
:10210000012084F834000020206305F0010010B99C
:1021100005F0020018B1204600F048FBBAE0204666
:1021200000F049FBB6E005F080000028B8D005F0CB
:10213000200050B1206801F075FC06462EB1A06B5E
:102140003043A0632046FFF791FE05F00100002810
:10215000A6D105F002000028A2D12068C06A20F0B4
:1021600008002168C862012084F83400204600F08D
:1021700022FB8FE02068406BC0F3803030B105F067
:10218000080018B1204602F00CF983E02068406B8B
:1021900040F23A21084008B1012000E00020002868
:1021A00078D02068406BC0F3400018B1A06B40F0BD
:1021B0000200A0632068406BC0F3C00018B1A06BA0
:1021C00040F00800A0632068406BC0F3401018B1D5
:1021D000A06B40F02000A0632068406BC0F30010AB
:1021E00018B1A06B40F01000A0632068406BC0F3F2
:1021F000402018B1A06B40F00800A06340F23A7094
:10220000216888632068C06B40F23A3188432168B6
:10221000C863206801F006FCA16B0843A06305F0C9
:10222000080040B1012084F83400002020632046DB
:10223000FFF71CFE2EE005F0800000B305F0100053
:1022400010B905F0200050B11348E16B0865E06B50
:10225000FEF7F0FD98B1E06B01F058FE1AE005F0D2
:10226000010010B905F0020050B10C48216C08655E
:10227000206CFEF7DFFD10B1206C01F023FE09E0B9
:102280000020A063012084F8340000202063204651
:10229000FFF792FD70BD00000D3F0008C53E00082D
:1022A00010B504460CB9012010BD94F8340020B9D3
:1022B00000202077204600F053F8032084F83400F3
:1022C000204600F00BF808B10120EDE70020A063E4
:1022D0002063012084F834000020E5E770B58AB05F
:1022E0000446002004900590069007900890762000
:1022F000099007A807C88DE80700206804A90EC93F
:1023000001F0D0F9064616B101200AB070BD0020D8
:1023100012490860206801F0DFF901200F49A03957
:10232000C1F8A000204601F031FF05463DB1012073
:1023300084F83400A06B2843A0630120E5E7204621
:1023400001F0A2FE05463DB1012084F83400A06BE7
:102350002843A0630120D8E70020D6E7A0802542CB
:1023600010B586B00446142101A8FDF773FF584943
:10237000206888427ED100BF002000905548006848
:1023800040F40060534908600846006800F40060AB
:10239000009000BF00BF00BF002000904D481438DF
:1023A000006840F004004B49143908600846006892
:1023B00000F00400009000BF00BF00BF00200090AC
:1023C0000846006840F0080008600846006800F011
:1023D0000800009000BF00BF4FF4F85001900220A9
:1023E000029000200390032004900C20059001A986
:1023F0003948FEF769FF0420019002200290002076
:102400000390032004900C20059001A93348FEF7A7
:102410005BFF3348334908604FF00060486000219B
:1024200030488160C1604FF4806101618900416181
:10243000890081612021C161002101620421416282
:10244000032181624FF40001C16289100163FEF72C
:1024500025FE08B1FEF758FA00BF224820648463C5
:1024600000BF1F484830204908604FF000604860B6
:10247000402100E029E01C4881600021C1604FF448
:102480008061016189004161890081612021C16110
:102490000021016204214162032181624FF40001A5
:1024A000C16289100163FEF7F9FD08B1FEF72CFA4D
:1024B00000BF0D48E063846300BF00220421312087
:1024C000FFF7A4F83120FFF791F806B010BD000027
:1024D000002C01404438024000080240000C024039
:1024E0005864024044010020A40100202DE9FF4F60
:1024F00089B004468B469946DDF858A0FEF7FCFFEC
:1025000002900B9800905D46BBF1000F07D1A06BC5
:1025100040F00060A06301200DB0BDE8F08F94F89A
:10252000340001287ED10020A063009800EB09014F
:10253000E06D814205D9A06B40F00070A0630120DE
:10254000EAE7032084F8340000202168C862606C48
:10255000012802D00098400200904FF400712068DA
:1025600001F01CF98046B8F1000F0AD08E482168AE
:102570008863A06B40EA0800A063012084F834005F
:10258000CAE74FF0FF3003904FEA492004909020B3
:10259000059002200690002007900120089003A9D2
:1025A000206801F051F8B9F1010F07D9022020632A
:1025B0002068009901F05AF9804606E00120206366
:1025C0002068009901F06EF98046B8F1000F0DD037
:1025D000754821688863A06B40EA0800A063012069
:1025E00084F8340000202063012095E7049E3AE03F
:1025F0002068406B00F40040F0B1EEB10020019083
:1026000017E0206801F071F807462F706D1C761EE8
:10261000380A28706D1C761E380C28706D1C761ECA
:10262000380E00E0BAE028706D1C761E0198401C40
:10263000019001980828E4D3FEF75EFF0299401A42
:10264000504502D2BAF1000F0DD157482168886376
:10265000A06B40F00040A063012084F8340000200B
:102660002063032058E72068406B40F22A3108407D
:102670000028BDD02068406B00F48070D0B1B9F163
:10268000010F17D9606C032814D0206801F0CAF933
:102690008046B8F1000F0DD0434821688863A06BD5
:1026A00040EA0800A063012084F834000020206381
:1026B000012031E72068406B00F0080068B13A481B
:1026C00021688863A06B40F00800A063012084F8B3
:1026D00034000020206301201EE72068406B00F0DA
:1026E000020068B1304821688863A06B40F00200A6
:1026F000A063012084F834000020206301200BE750
:102700002068406B00F0200068B12748216888638A
:10271000A06B40F02000A063012084F8340000206A
:1027200020630120F8E629E0206800F0DEFF07467C
:102730002F706D1C761E380A28706D1C761E380CA2
:1027400028706D1C761E380E28706D1C761EFEF7E4
:10275000D3FE0299401A504502D2BAF1000F0DD1B2
:10276000114821688863A06B40F00040A0630120FD
:1027700084F83400002020630120CDE62068406BFF
:1027800000F4001008B1002ECED140F23A5021687A
:102790008863012084F834000020BDE6A06B40F07F
:1027A0000050A0630120B7E6FF05400010B50446C5
:1027B000FDF7F4FF10BD10B50446FEF709F810BD93
:1027C0002DE9F04F89B00446894693469846FEF7B6
:1027D00093FE0290DA464E46B9F1000F07D1A06B86
:1027E00040F00060A063012009B0BDE8F08F94F8CC
:1027F000340001287ED10020A0630AEB0801E06DBF
:10280000814205D9A06B40F00070A0630120EBE786
:10281000032084F8340000202168C862606C01281D
:1028200001D04FEA4A2A4FF40071206800F0B6FF49
:1028300005464DB1764821688863A06B2843A063A4
:10284000012084F83400CFE74FF0FF3003904FEAC7
:1028500048200490902005900020069007900120C9
:10286000089003A9206800F0EFFEB8F1010F07D926
:10287000202020635146206801F0F2F8054606E06A
:10288000102020635146206801F006F9054665B125
:102890005F4821688863A06B2843A063012084F807
:1028A00034000020206301209EE7049F43E020685D
:1028B000406B00F4804040B33FB30020019021E022
:1028C00030780090761C7F1E3078009941EA002015
:1028D0000090761C7F1E3078009941EA00400090FD
:1028E000761C7F1E3078009941EA00600090761CCB
:1028F0007F1E00E085E06946206800F00EFF019829
:10290000401C019001980828DAD3FEF7F5FD0299E2
:10291000411A1298814201D2129860B93C4821684C
:102920008863A06B2843A063012084F83400002052
:102930002063032058E72068406B40F21A310840BA
:102940000028B4D02068406B00F48070B8B1B8F1B2
:10295000010F14D9606C032811D0206801F062F8CF
:10296000054665B12A4821688863A06B2843A063A7
:10297000012084F8340000202063012034E720681F
:10298000406B00F0080068B1214821688863A06BA3
:1029900040F00800A063012084F834000020206388
:1029A000012021E72068406B00F0020068B1184860
:1029B00021688863A06B40F00200A063012084F8C6
:1029C00034000020206301200EE72068406B00F0F7
:1029D000100068B10E4821688863A06B40F01000B9
:1029E000A063012084F83400002020630120FBE66E
:1029F00040F23A5021688863012084F834000020B6
:102A0000F2E6A06B40F00050A0630120ECE600006D
:102A1000FF05400070B504462546681EB0F1807F72
:102A200001D301200FE0681E4FF0E02148610F2123
:102A30004FF0FF3002F016FA00204FF0E0218861DD
:102A400007200861002070BD7047704730B502460E
:102A50000B4600BF92F83C00012801D1022030BD96
:102A6000012082F83C0000BF022082F83D0010687F
:102A700044681068816824F0700418680443106882
:102A80004460184D1068A8421BD01068B0F1804F08
:102A900017D0154D1068A84213D0144D1068A842E5
:102AA0000FD0134D1068A8420BD0124D1068A842E9
:102AB00007D0114D1068A84203D0104D1068A842ED
:102AC00005D121F080015868014310688160012020
:102AD00082F83D0000BF002082F83C0000BF00BF2C
:102AE000BDE7000000000140000400400008004075
:102AF000000C00400004014000400140001800406C
:102B000010B504460CB9012010BD94F83D0028B959
:102B1000002084F83C00204600F00CF8022084F8E5
:102B20003D00211D206801F06BFD012084F83D006F
:102B30000020E9E738B5044626492068884218D1C4
:102B400000BF002000902448006840F0080022499F
:102B500008600846006800F00800009000BF00BF51
:102B6000002209213220FEF751FD3220FEF73EFD02
:102B70002FE01A49206888420FD100BF0020009042
:102B80001548006840F010001349086008460068C6
:102B900000F01000009000BF1BE01149206888423F
:102BA00017D100BF002000900B48006840F02000C3
:102BB000094908600846006800F02000009000BF46
:102BC00000BF002205213720FEF720FD3720FEF749
:102BD0000DFD38BD000C00404038024000100040A0
:102BE0000014004001460868C06840F001000B680E
:102BF000D8600868806800F00702062A05D00868D7
:102C0000006840F001000B681860002070477047B2
:102C100010B5044620680069C0F34000D8B12068B0
:102C2000C068C0F34000B0B16FF0020021680861D5
:102C3000012020772068806900F0030018B1204649
:102C4000FFF7E5FF05E0204600F0DEF8204600F043
:102C500095F90020207720680069C0F38000D8B182
:102C60002068C068C0F38000B0B16FF00400216834
:102C70000861022020772068806900F4407018B154
:102C80002046FFF7C4FF05E0204600F0BDF82046CF
:102C900000F074F90020207720680069C0F3C000BC
:102CA000D8B12068C068C0F3C000B0B16FF00800B0
:102CB00021680861042020772068C06900F00300C3
:102CC00018B12046FFF7A3FF05E0204600F09CF86E
:102CD000204600F053F90020207720680069C0F3F7
:102CE0000010D8B12068C068C0F30010B0B16FF018
:102CF000100021680861082020772068C06900F46E
:102D0000407018B12046FFF782FF05E0204600F032
:102D10007BF8204600F032F9002020772068006917
:102D200000F0010058B12068C06800F0010030B127
:102D30006FF0010021680861204600F04DF920681D
:102D40000069C0F3C01058B12068C068C0F3C0105B
:102D500030B16FF08000216808612046FFF774FEF3
:102D600020680069C0F3801058B12068C068C0F3C3
:102D7000801030B16FF0400021680861204600F0FB
:102D800047F920680069C0F3401058B12068C06856
:102D9000C0F3401030B16FF0200021680861204678
:102DA000FFF753FE10BD000010B586B00446142195
:102DB00001A8FDF74FFA1149206888421CD100BFD5
:102DC000002000900E48006840F002000C490860A6
:102DD0000846006800F00200009000BF00BF10200D
:102DE00001900220029000200390049002200590A0
:102DF00001A90448FEF768FA06B010BD00040040BF
:102E00003038024000040240704770B504460D4659
:102E1000164600BF94F83C00012801D1022070BD85
:102E2000012084F83C0000BF022084F83D0036B148
:102E3000042E1BD0082E31D00C2E5ED145E0294641
:102E4000206801F05BFC2068806940F00800216880
:102E500088612068806920F004002168886120680A
:102E60008069296908432168886147E0294620680C
:102E700001F07CFC2068806940F400602168886172
:102E80002068806920F480602168886120688069FA
:102E9000296940EA0120216888612FE029462068DD
:102EA00001F0A2FC2068C06940F008002168C861F8
:102EB0002068C06920F004002168C8612068C069EA
:102EC000296908432168C86118E02946206801F093
:102ED000C7FC2068C06940F400602168C8612068B0
:102EE000C06920F480602168C8612068C0692969D0
:102EF00040EA01202168C86100E000BF00BF012056
:102F000084F83D0000BF002084F83C0000BF00BFF3
:102F100085E710B504460CB9012010BD94F83D00BA
:102F200028B9002084F83C00204600F00DF802206B
:102F300084F83D00211D206801F062FB012084F827
:102F40003D000020E9E7000008B50A4A0168914207
:102F50000FD100BF002100910749096841F002012B
:102F6000054A11601146096801F00201009100BF95
:102F700000BF08BD00040040403802407047000018
:102F800070B504460E4601223146206801F0A4FBCC
:102F90000F492068884203D00E492068884201D139
:102FA000012000E0002028B12068406C40F400407F
:102FB000216848642068806800F00705062D05D068
:102FC0002068006840F0010021680860002070BDA2
:102FD000000001400004014010B504460949206882
:102FE000884201D1FEF78EFA07492068884208D14D
:102FF000064802684068521C40F1000003490A601C
:10300000486010BD000C0040001400402800002063
:10301000704710B504460CB9012010BDA06900B17D
:1030200000E000BF94F8390028B9002084F8380087
:10303000204600F027F8242084F839002068C06872
:1030400020F400502168C860204601F033FC20685D
:10305000006920F49040216808612068406920F0F0
:103060002A00216848612068C06840F40050216847
:10307000C8600020E063202084F8390084F83A001A
:103080000020CAE710B586B00446142101A8FDF758
:10309000E1F81F492068884237D100BF0020009026
:1030A0001C48006840F400301A490860084600686F
:1030B00000F40030009000BF00BF00BF002000906F
:1030C00014481038006840F00100124910390860B7
:1030D0000846006800F00100009000BF00BF0C200F
:1030E000019002200290002003900320049007200A
:1030F000059001A90848FEF7E7F8002211462620AE
:10310000FEF784FA2620FEF771FA06B010BD000023
:1031100000440040403802400000024000BFFEE78B
:1031200070B500220DA10E4802F08EFC00B170BDFA
:103130000A220CA10E4802F0B7FC0546002409E063
:103140000C4901EB041001F077FE6420FEF71CF837
:10315000601CC4B2042CF3D300BFE8E700000000F9
:103160008C0400206C6F6731302E62696E000000A5
:10317000C00600204C1903081FB5002000900190E4
:10318000029003902C482D4908604FF4803048602D
:1031900000212A488160012101610176002180F827
:1031A0002010C162264981620021C1600521C161F0
:1031B000012180F8301000214161FDF799FD08B12F
:1031C000FDF7A2FB012000900190022002906946C9
:1031D0001A48FDF70BFC08B1FDF796FB04200090A0
:1031E0000220019069461548FDF700FC08B1FDF783
:1031F0008BFB052000900320019069460F48FDF7E6
:10320000F5FB08B1FDF780FB06200090042001903B
:1032100069460A48FDF7EAFB08B1FDF775FB072090
:1032200000900520019069460448FDF7DFFB08B1D6
:10323000FDF76AFB1FBD00000020014004030020D1
:103240000100000F08B500BF002000901248006880
:1032500040F48000104908600846006800F48000CF
:10326000009000BF00BF002211463820FEF7CEF9C3
:103270003820FEF7BBF9002203213B20FEF7C6F9F8
:103280003B20FEF7B3F9002202214520FEF7BEF9EC
:103290004520FEF7ABF908BD3038024000B587B0D5
:1032A000142102A8FCF7D6FF00BF00200190394886
:1032B000006840F00100374908600846006800F0E7
:1032C0000100019000BF00BF00BF00200190084630
:1032D000006840F0020008600846006800F0020044
:1032E000019000BF00BF00BF0020019008460068A9
:1032F00040F0040008600846006800F004000190F7
:1033000000BF00BF00BF002001900846006840F0E9
:10331000080008600846006800F00800019000BF3F
:1033200000BF012002901C4803900020049002A9D5
:103330001A48FDF7C9FF02200290174803900020A9
:10334000049002A91548FDF7BFFF4FF4004002901A
:10335000114803900020049002A91048FDF7B4FF23
:10336000002206210846FEF751F90620FEF73EF935
:10337000002207210846FEF749F90720FEF736F933
:10338000002208212820FEF741F92820FEF72EF917
:1033900007B000BD30380240000031100004024088
:1033A00010B503490348FDF7B0FA0349087010BD92
:1033B0000A000020386D00080900002000B587B021
:1033C000142102A8FCF746FF00BF002001903848F6
:1033D000006840F00100364908600846006800F0C7
:1033E0000100019000BF00BF00BF0020019008460F
:1033F000006840F0020008600846006800F0020023
:10340000019000BF00BF00BF002001900846006887
:1034100040F0040008600846006800F004000190D5
:1034200000BF00BF00BF002001900846006840F0C8
:10343000080008600846006800F00800019000BF1E
:1034400000BF002247F220411A48FEF74EF8002242
:1034500040211948FEF749F847F220400290012028
:10346000039000200490059002A91248FDF72CFF5C
:103470004FF40060029000200390049002A90D48D0
:10348000FDF722FF402002900120039000200490CD
:10349000059002A90848FDF717FF80200290002040
:1034A0000390049002A90448FDF70EFF07B000BD89
:1034B0003038024000040240000802400648074934
:1034C000086000204860002104488160C1600161FB
:1034D0004161816170470000002C0140C000002064
:1034E00000B589B00020079008901C216846FCF7C1
:1034F000B1FE19481949086040F247304860002180
:10350000164881604FF4FA61C16000210161816158
:10351000FFF7FFFC08B1FDF7F7F9002007900890CE
:1035200007A90E48FFF792FA08B1FDF7EDF9602000
:10353000009096200190022002900020049000222A
:1035400069460648FFF761FC08B1FDF7DDF903485D
:10355000FFF72AFC09B000BD00040040040200206F
:103560001CB50020009001900E480F49086040F201
:103570004730486000210C4881604CF25031C160F6
:1035800000218161FFF7BCFA08B1FDF7BDF9002009
:103590000090019069460448FFF758FA08B1FDF71A
:1035A000B3F91CBD00100040840200201CB50020AF
:1035B000009001900E480F49086053204860002198
:1035C0000C4881604CF25031C16000218161FFF7ED
:1035D00097FA08B1FDF798F900200090019069462C
:1035E0000448FFF733FA08B1FDF78EF91CBD00005F
:1035F00000140040C402002010B50F480F490860B5
:103600004FF4E130486000210C488160C1600161E5
:103610000C21416100218161C161FFF7FAFC08B111
:10362000FDF772F905480068C06840F020000349C2
:103630000968C86010BD0000004400404C04002030
:1036400000BFFEE77047704710B5024600230868C8
:10365000506248689062D1E9020420430C6920431B
:103660004C6920430343D06A20F0F7001843D0622E
:10367000002010BD01460869C0B2704701460868C5
:1036800000F003007047024602F114004318186866
:103690007047000010B50248FEF7F4FC10BD0000B2
:1036A000C00000200FB410B504460021DDE903027C
:1036B0001043059A1043069A1043079A1043089A3C
:1036C00010430143606847F6FF629043084360601F
:1036D000002010BC5DF814FB10B5044603202060E8
:1036E0000220FDF751FD002010BD0146D1F88000F9
:1036F000704710B50246002308689060D1E90104C4
:103700002043CC6820430C6920430343D0686FF307
:103710000B001843D060002010BD02460868C2F8B4
:1037200080000020704770B586B005460C460194B5
:103730003720029040200390002004904FF48060D6
:10374000059001A92846FFF7D4FF41F288323721BE
:10375000284600F0DDF90646304606B070BD000090
:1037600070B586B005460C460B48204301902920D1
:10377000029040200390002004904FF48060059058
:1037800001A92846FFF7B5FF284600F0C9FA06460A
:10379000304606B070BD00000000108070B586B0E5
:1037A00005460C4601941020029040200390002012
:1037B00004904FF48060059001A92846FFF799FF17
:1037C00041F288321021284600F0A2F90646304620
:1037D00006B070BD70B586B005460C460194062053
:1037E000029040200390002004904FF480600590E8
:1037F00001A92846FFF77DFF41F2883206212846BD
:1038000000F086F90646304606B070BD30B585B08A
:103810000446002000900190029003904FF48060D5
:10382000049069462046FFF764FF204600F050F9F7
:103830000546284605B030BD30B585B004464FF486
:10384000D570009008200190402002900020039045
:103850004FF48060049069462046FFF74AFF2046F7
:1038600000F0E6FA0546284605B030BD70B586B0D2
:1038700005460C460194122002904020039000203F
:1038800004904FF48060059001A92846FFF731FFAE
:1038900041F288321221284600F03AF906463046B5
:1038A00006B070BD70B586B005460C460194112077
:1038B000029040200390002004904FF48060059017
:1038C00001A92846FFF715FF41F288321121284649
:1038D00000F01EF90646304606B070BDF0B585B062
:1038E000064614461D460094072001904020029091
:1038F000002003904FF48060049069463046FFF743
:10390000F8FE41F288320721304600F001F90746FF
:10391000384605B0F0BD30B585B0044600200090B3
:1039200002200190C0200290002003904FF480609C
:10393000049069462046FFF7DCFE204600F0BEF901
:103940000546284605B030BD70B586B005460C4624
:10395000019409200290C0200390002004904FF4AD
:103960008060059001A92846FFF7C3FE284600F0B5
:10397000A5F90646304606B070BD30B585B00446A0
:1039800000200090332001904020029000200390FE
:103990004FF48060049069462046FFF7AAFE41F28A
:1039A00088323321204600F0B3F80546284605B09A
:1039B00030BD70B586B005460C4601940D200290CE
:1039C00040200390002004904FF48060059001A9EE
:1039D0002846FFF78EFE41F288320D21284600F07E
:1039E00097F80646304606B070BD70B586B00546FD
:1039F0000C460020019003200290402003900020FC
:103A000004904FF48060059001A92846FFF771FEED
:103A100022460321284600F0AFF90646304606B09C
:103A200070BD000030B585B00446002000900C2029
:103A3000019040200290002003904FF48060049099
:103A400069462046FFF755FE044A0C21204600F047
:103A50005FF80546284605B030BD000000E1F505D9
:103A600070B586B005460C4601941920029040209E
:103A70000390002004904FF48060059001A928462F
:103A8000FFF737FE41F288321921284600F040F84E
:103A90000646304606B070BD70B586B005460C4689
:103AA00001941820029040200390002004904FF4CD
:103AB0008060059001A92846FFF71BFE41F288327D
:103AC0001821284600F024F80646304606B070BD9E
:103AD00001460E480068C0084FF47A73B0FBF3F05B
:103AE00041F2883300FB03F200BF101EA2F1010275
:103AF00002D14FF000407047486B00F08000002872
:103B0000F3D0C52088630020F5E700001C000020EA
:103B10002DE9F04305460F46904666480068C00808
:103B20004FF47A71B0FBF1F000FB08F900BFB9F176
:103B30000000A9F1010903D14FF00040BDE8F08376
:103B40006E6B06F045000028F1D006F400600028F6
:103B5000EDD1686B00F0040010B10420A863EDE71C
:103B6000686B00F0010010B10120A863E6E7C520F2
:103B7000A8632846FFF77EFDB84201D00120DDE7AB
:103B800000212846FFF77FFD04464B48204008B936
:103B90000020D3E704F00040B0F1004F02D14FF015
:103BA0000070CBE704F08040B0F1804F01D140209D
:103BB000C4E704F00050B0F1005F01D18020BDE700
:103BC00004F08050B0F1805F02D14FF48070B5E70F
:103BD00004F00060B0F1006F02D14FF40070ADE767
:103BE00004F08060B0F1806F02D14FF48060A5E7EF
:103BF00004F08070B0F1807F02D14FF400609DE747
:103C000004F40000B0F5000F02D14FF4805095E7A6
:103C100004F48000B0F5800F02D14FF400508DE71E
:103C200004F40010B0F5001F02D14FF4804085E786
:103C300004F48010B0F5801F02D14FF400407DE7FE
:103C400004F48020B0F5802F02D14FF4003075E7E6
:103C500004F40030B0F5003F02D14FF480206DE74E
:103C600004F48030B0F5803F02D14FF4002065E7C6
:103C700004F40040B0F5004F02D14FF480105DE72E
:103C800004F48040B0F5804F02D14FF4001055E7A6
:103C900004F40050B0F5005F02D14FF480004DE70E
:103CA00004F00800082801D1000547E74FF48030F0
:103CB00044E700001C00002008E0FFFD10B50146AD
:103CC00016480068C0084FF47A74B0FBF4F041F273
:103CD000883400FB04F300BF181EA3F1010302D1D6
:103CE0004FF0004010BD4A6B02F045000028F3D0B1
:103CF00002F400600028EFD1486B00F0040010B11E
:103D000004208863EEE7486B00F0010010B1012049
:103D10008863E7E7C52088630020E3E71C000020F4
:103D200010B5014613480068C0084FF47A74B0FB20
:103D3000F4F041F2883400FB04F300BF181EA3F135
:103D4000010302D14FF0004010BD4A6B02F0450064
:103D50000028F3D002F400600028EFD1486B00F097
:103D6000040010B104208863EEE7C52088630020BA
:103D7000EAE700001C0000202DE9F04304460F464E
:103D800090462A480068C0084FF47A71B0FBF1F001
:103D900041F2883100FB01F900BFB9F10000A9F13F
:103DA000010903D14FF00040BDE8F083666B06F0D7
:103DB00045000028F1D006F400600028EDD1606BCA
:103DC00000F0040010B10420A063EDE7606B00F088
:103DD000010010B10120A063E6E72046FFF74AFC8E
:103DE000B84201D00120DFE7C520A06300212046B2
:103DF000FFF749FC054605F4604020B9280CA8F8F7
:103E000000000020D0E705F48040B0F5804F02D1DB
:103E10004FF40050C8E705F40040B0F5004F02D160
:103E20004FF48050C0E74FF48030BDE71C00002005
:103E300010B5014618480068C0084FF47A74B0FB0A
:103E4000F4F041F2883400FB04F300BF181EA3F124
:103E5000010302D14FF0004010BD4A6B02F0450053
:103E60000028F3D002F400600028EFD1486B00F086
:103E7000040010B104208863EEE7486B00F00100F5
:103E800010B101208863E7E7486B00F0400008B1FB
:103E9000402088630020DFE71C00002010B50446A6
:103EA000012007490870FCF731FC28B90448007864
:103EB00020F00100024908700148007810BD0000A0
:103EC0000800002070B50546AC6B40F23A502168FE
:103ED00088632046FEF7C3F80646012084F83400C4
:103EE00000202063062E01D0052E05D12068FFF7A3
:103EF00099FDA16B0843A063A06B18B92046FDF79C
:103F00005BFF02E02046FDF7B1FF70BD70B50546CE
:103F1000AC6B40F23A50216888632046FEF79FF868
:103F20000646012084F8340000202063062E01D0CC
:103F3000052E05D12068FFF775FDA16B0843A0632E
:103F4000A06B18B92046FDF737FF02E02046FDF7C9
:103F50008DFF70BD2DE9F04389B004460F46FDF793
:103F6000CBFA81464FF000080020019002903E46B7
:103F700008212068FFF712FC05461DB1284609B04C
:103F8000BDE8F0835022125B11042068FFF7CBFBE1
:103F900005460DB12846F2E74FF0FF3003900820A8
:103FA0000490302005900220069000200790012008
:103FB000089003A92068FFF747FB2068FFF7DDFCA6
:103FC00005460DB12846DAE715E02068406B00F49D
:103FD000001038B12068FFF788FB01A941F82800DC
:103FE00008F10108FDF788FAA0EB0900401C10B9A0
:103FF0004FF00040C3E72068406B40F22A41084080
:104000000028E2D02068406B00F0080018B10820BA
:1040100021688863B3E72068406B00F0020018B1A4
:10402000022021688863AAE72068406B00F0200026
:1040300018B1202021688863A1E740F23A50216836
:10404000886302980006029901F47F4140EA01204A
:10405000029901F47F0140EA1120029940EA1160BF
:104060003060361D01980006019901F47F4140EA55
:104070000120019901F47F0140EA1120019940EAF1
:104080001160306000207AE730B58FB0044601201F
:1040900003902068FFF7F2FA18B94FF080600FB074
:1040A00030BD606C03281BD02068FFF734FC054648
:1040B0000DB12846F3E700212068FFF7E4FA6067B6
:1040C00004212068FFF7DFFAA06708212068FFF7C6
:1040D000DAFAE0670C212068FFF7D5FA8021085151
:1040E000606C032807D003A92068FFF77EFC054613
:1040F0000DB12846D3E7606C032820D0BDF80C1022
:1041000021655022125B11042068FFF71DFC054653
:104110000DB12846C3E700212068FFF7B4FA6066B6
:1041200004212068FFF7AFFAA06608212068FFF796
:10413000AAFAE0660C212068FFF7A5FA206704219F
:104140002068FFF7A0FA010DE16404A92046FDF7FD
:104150008FFE10B14FF08050A1E75020005B0104AA
:104160000A4600232068FFF7B9FB05460DB1284633
:1041700095E7D4E90412A069CDE90012029094E811
:104180000F00FFF78FFA002089E70000F8B504461A
:1041900000200090002600272068FFF737FB054627
:1041A0000DB12846F8BD2068FFF746FB054645B12E
:1041B0000021A1642068FFF729FB05461DB12846B0
:1041C000F0E70121A164A06C012808D1002120683A
:1041D000FFF7A9FA054615B14FF08050E2E71DE060
:1041E00000212068FFF79FFA05460DB12846D9E760
:1041F00018492068FFF7B4FA054615B14FF0805012
:10420000D0E700212068FFF73EFA0646012080EA49
:10421000D67080F001070098401C00904FF6FF71A7
:104220000098884201D2002FDAD04FF6FF71009833
:10423000884202D34FF08070B4E706F08040B0F1BE
:10424000804F02D10120606401E000206064002002
:10425000A8E70000000010C12DE9F0410546AC6A56
:10426000EF6AE7B14FF0000814E02868FFF73DFA65
:1042700006462670641C7F1E300A2070641C7F1E58
:10428000300C2070641C7F1E300E2070641C7F1E5A
:1042900008F10108B8F1080FE7D3AC62EF62BDE89E
:1042A000F08170B504460D4615B94FF0006070BD41
:1042B0005022125B11042068FFF77BFB06460EB10B
:1042C0003046F4E700212068FFF7DDF92860002080
:1042D000EDE77CB5044600200090019000212068A5
:1042E000FFF7D1F900F00070B0F1007F02D14FF478
:1042F00000607CBD69462046FFF72CFE05460DB1E7
:104300002846F6E7019800F4803098B15022125BFD
:1043100011042068FFF707FA05460DB12846E8E7C3
:1043200000212068FFF756FA05460DB12846E0E760
:104330000020DEE74FF08060DBE77CB5044600201C
:104340000090019000212068FFF79DF900F00070B7
:10435000B0F1007F02D14FF400607CBD6946204679
:10436000FFF7F8FD05460DB12846F6E7019800F481
:10437000802098B15022125B11042068FFF7D3F916
:1043800005460DB12846E8E702212068FFF722FA2A
:1043900005460DB12846E0E70020DEE74FF08060DB
:1043A000DBE7F8B505462C6A6E6A1EB300271DE0F0
:1043B00020780090641C761E2078009941EA002045
:1043C0000090641C761E2078009941EA004000901D
:1043D000641C761E2078009941EA00600090641CFD
:1043E000761E69462868FFF798F97F1C082FDFD3EF
:1043F0002C626E62F8BD000010B50446012006492B
:104400000870FCF78FF920B92046FFF747FD0249F5
:1044100008700148007810BD08000020F0B589B090
:1044200007460D46144601261648007800F00100A4
:1044300010B1032009B0F0BD35B1012D06D0022D19
:104440000BD0032D18D10FE0002617E001A8FCF7D0
:1044500053F907982060002610E001A8FCF74CF9FA
:1044600008982080002609E001A8FCF745F9089883
:10447000400A2060002601E0042600BF00BF30464D
:10448000D8E70000080000202DE9F04180460C46E6
:1044900015461E460127BB1E324629462046FCF71C
:1044A00065F928B900BFFCF731F90028FBD10027D6
:1044B0003846BDE8F08110B504462046FFF7EEFC13
:1044C00010BD2DE9F04180460C4615461E460127D9
:1044D000BB1E324629462046FCF762F928B900BFC8
:1044E000FCF714F90028FBD100273846BDE8F0811D
:1044F000704710B5FDF706F810BD000000B593B089
:10450000302107A8FBF7A6FE142102A8FBF7A2FEA4
:1045100000BF002001902548006840F080502349EA
:1045200008600846006800F08050019000BF00BF9E
:1045300000BF002001901E48006840F480401C49E4
:1045400008600846006800F48040019000BF00BF8A
:104550000220079001200A9010200B9002200D905D
:1045600000210E9108210F91A82110910221119193
:104570000721129107A8FDF7DBF908B1FCF7C4F990
:104580000F20029002200390002004904FF4A050CE
:1045900005904FF480500690052102A8FDF788F899
:1045A00008B1FCF7B1F913B000BD0000403802407B
:1045B000007000400548006840F47000034908603E
:1045C0004FF00060014980390860704788ED00E0D5
:1045D00010B50248FEF71CFB10BD0000440200208D
:1045E00010B50248FEF714FB10BD00008402002045
:1045F00010B50248FEF70CFB10BD0000C4020020FD
:1046000010B50268294B98420ED0B0F1804F0BD004
:10461000274B984208D0274B984205D0264B98420A
:1046200002D0264B984203D122F070024B681A4305
:104630001E4B984220D0B0F1804F1DD01C4B9842A9
:104640001AD01C4B984217D01B4B984214D01B4BCE
:10465000984211D01A4B98420ED01A4B98420BD068
:10466000194B984208D0194B984205D0184B9842E4
:1046700002D0184B984203D122F44072CB681A43FF
:1046800022F080034C6943EA040202608B68C36233
:104690000B688362054B984202D0084B984201D1C7
:1046A0000B6903630123436110BD0000000001405A
:1046B0000004004000080040000C004000040140DD
:1046C0000040014000440140004801400018004003
:1046D000001C00400020004030B501F01F050124FF
:1046E00004FA05F3046A9C430462046A01F01F059E
:1046F00002FA05F52C43046230BD000030B5056AAE
:1047000025F001050562026A4368846924F070049B
:1047100024F003040D682C4322F002028D682A4322
:10472000104DA84200D103E00F4DA84206D100BFB2
:1047300022F00802CD682A4322F00402094DA84263
:1047400002D0094DA84207D123F4807323F40073EB
:104750004D692B438D692B43436084614D684563EC
:10476000026230BD000001400004014030B5056A1E
:1047700025F010050562026A4368846924F4E04468
:1047800024F440740D6844EA052422F020028D6868
:1047900042EA0512124DA84200D103E0114DA84291
:1047A00007D100BF22F08002CD6842EA051222F054
:1047B00040020B4DA84202D00A4DA84209D123F471
:1047C000806323F400634D6943EA85038D6943EAFE
:1047D0008503436084614D688563026230BD0000DB
:1047E000000001400004014030B5056A25F48075E1
:1047F0000562026A4368C46924F0700424F003046B
:104800000D682C4322F400728D6842EA0522124D95
:10481000A84200D103E0114DA84207D100BF22F405
:104820000062CD6842EA052222F480620A4DA84265
:1048300002D00A4DA84209D123F4805323F4005337
:104840004D6943EA05138D6943EA05134360C4616A
:104850004D68C563026230BD0000014000040140A4
:1048600030B5056A25F480550562036A4468C2695B
:1048700022F4E04222F440720D6842EA052223F459
:1048800000538D6843EA0533084DA84202D0084D15
:10489000A84204D124F480444D6944EA851444605C
:1048A000C2614D680564036230BD00000000014034
:1048B000000401402DE9F84F04462068006920F407
:1048C0004050E1680843216808612169A0680843F5
:1048D00061690843E169084300902068C06849F2B3
:1048E0000C618843009908432168C86020684069CA
:1048F00020F44070A169084321684861E069B0F57F
:10490000004F75D1E3492068884203D0E24920680E
:1049100088426FD1FCF7A4FF814602206168A0FBAA
:1049200001510B461920A9FB00712A463846FBF7B6
:1049300047FC6421B0FBF1F04FEA001A02206168E5
:10494000A0FB01510B461920A9FB00712A463846ED
:10495000FBF736FC074602206168A0FB01510B46BD
:104960001920A9FB00B12A465846FBF729FC64210F
:10497000B0FBF1F000EBC00101EB0010A7EB8000F1
:10498000322101EBC0006421B0FBF1F000F0F8002F
:104990000AEB400A02206168A0FB01510B46192076
:1049A000A9FB00712A463846FBF70AFC074602209D
:1049B0006168A0FB01510B461920A9FB00B12A46F2
:1049C0005846FBF7FDFB6421B0FBF1F000EBC001A2
:1049D00001EB0010A7EB8000322101EBC000642145
:1049E000B0FBF1F000F007005044216888604FE10F
:1049F0006EE0FFE7FCF724FF814602206168A0FB20
:104A000001510B461920A9FB00712A463846FBF7D5
:104A1000D7FB6421B0FBF1F04FEA001A0220616875
:104A2000A0FB01510B461920A9FB00712A4638460C
:104A3000FBF7C6FB074602206168A0FB01510B464D
:104A40001920A9FB00B12A465846FBF7B9FB64219F
:104A5000B0FBF1F000EBC00101EB0010A7EB800010
:104A6000322101EBC0006421B0FBF1F000F0F8004E
:104A70000AEB400A02206168A0FB01510B46192095
:104A8000A9FB00712A463846FBF79AFB074602202D
:104A90006168A0FB015003461920A9FB00B12A461A
:104AA0005846FBF78DFB6421B0FBF1F000EBC00131
:104AB00001EB0010A7EB8000322101EBC000642164
:104AC000B0FBF1F000F00700504421688860DFE09F
:104AD00070492068884203D06F49206888426BD1B2
:104AE000FCF7BEFE814604206168A0FB01510B4625
:104AF0001920A9FB00712A463846FBF761FB824664
:104B000004206168A0FB01510B461920A9FB00712C
:104B10002A463846FBF754FB6421B0FBF1F000EB6A
:104B2000C00101EB0010AAEB8000322101EB001064
:104B30006421B0FBF1F000F0F00A04206168A0FBF2
:104B4000015003461920A9FB00712A463846FBF79D
:104B500037FB6421B0FBF1F00AEB001A0420616816
:104B6000A0FB01510B461920A9FB00712A463846CB
:104B7000FBF726FB074604206168A0FB01500346B3
:104B80001920A9FB00B12A465846FBF719FB6421FE
:104B9000B0FBF1F000EBC00101EB0010A7EB8000CF
:104BA000322101EB00106421B0FBF1F000F00F00A6
:104BB0005044216888606BE0FCF742FE8146042087
:104BC0006168A0FB015003461920A9FB00712A4629
:104BD0003846FBF7F5FA824604206168A0FB0150D5
:104BE00003461920A9FB00712A463846FBF7E8FA6C
:104BF0006421B0FBF1F000EBC00101EB0010AAEB67
:104C00008000322101EB00106421B0FBF1F000F0D4
:104C1000F00A04206168A0FB015003461920A9FB9B
:104C200000712A463846FBF7CBFA6421B0FBF1F05D
:104C30000AEB001A04206168A0FB017003461920EA
:104C4000A9FB005001463A462846FBF7B9FA074649
:104C500004206168A0FB015003461920A9FB00B1A4
:104C60002A465846FBF7ACFA6421B0FBF1F000EBA2
:104C7000C00101EB0010A7EB8000322101EB001016
:104C80006421B0FBF1F000F00F005044216888600F
:104C9000BDE8F88F001001400014014008B5144829
:104CA00000680068C0F3401070B1114800684068A7
:104CB000C0B200900121684600F01CF86FF020009F
:104CC0000B490968086000BF094800680068C0F324
:104CD000C00060B100BF0020009005480068006877
:104CE0000090034800684068009000BF00BF08BD06
:104CF0004C04002070B504460D46012D05D12178E5
:104D0000064801F0E1F9064605E02A462146034837
:104D100001F0F7F90646304670BD0000C0030020E0
:104D200000BFFEE770B52DED048B04460D46254A05
:104D3000254926A000F00AFE18B10320BDEC048B23
:104D400070BD204909688969891E1E4A1268528906
:104D500001FB02F0FBF71DFB41EC190B9FED1C0B57
:104D600053EC102BFBF78DFA41EC180BFBF71EFBF5
:104D700019490860134909684989134A126801FBF7
:104D800002F0FBF706FB41EC190B9FED110B53EC06
:104D9000102BFBF776FA41EC180BFBF707FB0F49DA
:104DA00008600846006808B90420C7E70C4B2A468B
:104DB00021460C4800F0E5FF0A4800F092FF002071
:104DC000BCE70000780000207C000020000000000C
:104DD000000000000000E03F800000208400002070
:104DE00090000020C006002070B58AB005460E462F
:104DF000144624220F4901A8FBF713FACDF80750F7
:104E0000CDF80B602068CDF80F006068CDF8130076
:104E1000A068CDF81700E068CDF81B002069CDF838
:104E20001F006069CDF82300232101A8FFF77AFF56
:104E30000AB070BD9C19030810B598B0044601A9CA
:104E40002046FBF795FD592101A8FFF76BFF18B02D
:104E500010BD000002480068C0F302207047000047
:104E60000CED00E010B5002804DB0A07130E054A1C
:104E7000135406E00A07140E034A00F00F031B1F29
:104E8000D45410BD00E400E018ED00E002E008C8D2
:104E9000121F08C1002AFAD170477047002001E0B4
:104EA00001C1121F002AFBD17047000070B50446F3
:104EB0000D460020E070401E20632946204601F088
:104EC00033FD08B1042070BD04F2322001F09DFCD6
:104ED0004AF65521884201D00320F4E794F83400C3
:104EE000E92807D094F83400EB2817D13620005D6C
:104EF000902813D104F16A0001F07BFC20F07F4080
:104F00000749884201D10020DDE704F1860001F065
:104F100070FC0449884201D10020D4E70220D2E786
:104F20004641540046415433024600E0521C10787A
:104F300010B110788842F9D11078704730B5024628
:104F40000B460020044601461CE01A4800EB011005
:104F50000068A8B1174800EB011000681568A84266
:104F60000FD1144800EB011040689568A84208D1A1
:104F7000104800EB011080685569A84201D103E098
:104F80000124491C0229E0D300BF022906D10CB933
:104F9000022B01D1002030BD1220FCE733B90548B7
:104FA00000EB01108089B0F5807F01D11020F2E77D
:104FB0000020F0E794000020014600200BE0074AA3
:104FC00002EB001212688A4204D10022034B03EB69
:104FD00000131A60401C0228F1D37047940000208F
:104FE000F0B503460D461E68D86A021D680A778927
:104FF000B0FBF7F400BF02CA09B90020F0BD8C4233
:1050000000D202E0641A121DF5E700BF10682044C8
:10501000F4E70246891E9069801E884201D800206C
:1050200070475389D06A01FB0300F9E72DE9F04787
:1050300080460C4604F11A0001F0E7FB10B1002095
:10504000BDE8F087207800F03F00401E00EB8001B3
:1050500001EBC0054FF00109002621E01849895DE8
:10506000081901F0D2FB0746B9F1000F11D0FF2D4E
:105070000BD2384600F0BAFF824629466D1C38F83C
:10508000110000F0B3FF824501D00020D8E7B946F7
:1050900005E04FF6FF70874201D00020D0E7761C74
:1050A0000D2EDBD3207800F0400038B1B9F1000FAD
:1050B00004D038F8150008B10020C1E70120BFE78F
:1050C0006C6D00082DE9F04782468946DAF8004009
:1050D000B9F1000F06D1276917B1A069B84215D8F8
:1050E000012713E04946504601F07CFA0646022E9D
:1050F00002D20120BDE8F087701C08B93046F9E7FC
:10510000A069B04201D93046F4E74F463D4600BFA2
:105110006D1CA069A84204D80225BD4201D9002017
:10512000E8E72946504601F05DFA064606B909E06F
:10513000012E01D0701C08B93046DBE7BD42E7D133
:105140000020D7E700BF4FF0FF322946204601F08C
:1051500005FC8046B8F1000F08D1B9F1000F05D069
:105160002A464946204601F0F9FB8046B8F1000F77
:105170000DD12561D4E90510801E814202D86069F5
:10518000401E6061207940F00100207107E0B8F115
:10519000010F02D14FF0FF3000E001200546284604
:1051A000A8E700002DE9F34F83B08146049800681A
:1051B0000190D9F80000D0F80CA000200646054662
:1051C00000BF28466D1C01990C5C202C00DA41E0E0
:1051D0002F2C01D05C2C0AD100E06D1C0198405DA1
:1051E0002F28FAD00198405D5C28F6D032E0FF2EDF
:1051F00003D3062005B0BDE8F08FE4B2812C13DBA9
:10520000E0B2FE2810DC28466D1C01990F5C07EB0C
:10521000042084B2402F01DB7E2F05DD802F01DBCF
:10522000FE2F01DD0620E5E70121204600F0A0FE6B
:1052300004460CB90620DDE7802C06DA21466FA073
:10524000FFF772FE08B10620D4E73046761C2AF834
:105250001040B6E700BF0198411904980160202C66
:1052600001DA042000E00020804608E0701E3AF8D1
:105270001040202C02D02E2C00D002E0761E002EF2
:10528000F4D100BF00202AF816000EB90620B1E7BD
:105290000B22202109F1240001F03DFB002500E054
:1052A0006D1C3AF815002028FAD03AF815002E287F
:1052B000F6D00DB148F0030800E0761E26B1701E4E
:1052C0003AF810002E28F8D10020074602904FF03F
:1052D000080B00BF28466D1C3AF8104004B963E083
:1052E000202C03D02E2C04D1B54202D048F0030864
:1052F000F0E70298584501D2B54214D1BBF10B0F2B
:1053000002D148F003084FE0B54201D048F003084D
:10531000B54200D948E03546082002904FF00B0B0B
:10532000B806070ED6E7802C09DB204600F05EFEAB
:105330000021009000F01CFE044648F00208FF2CFB
:1053400011DDABF101000299884204D848F003084E
:10535000CDF808B0BEE722120298411C029109F173
:1053600024010A5419E024B1214627A0FFF7DCFDEF
:1053700018B15F2448F003080FE0412C04DB5A2CDD
:1053800002DC47F0020708E0612C06DB7A2C04DC23
:1053900047F00107A4F1200084B20298411C029159
:1053A00009F124010C5495E700BF99F82400E52881
:1053B00002D1052089F82400BBF1080F01D1B806FD
:1053C000070E07F00C000C2803D007F00300032899
:1053D00001D148F0020808F0020058B907F00300B4
:1053E000012801D148F0100807F00C00042801D171
:1053F00048F0080889F82F800020FBE6222A3A3C72
:105400003E3F7C7F000000002B2C3B3D5B5D00009D
:105410002DE9F04104460E46D4F8008000212046D4
:1054200000F0CBF90546EDB9002700BF4046E16921
:1054300001F07AFA054605B113E0206A0078E52804
:1054400002D0206A007820B9781C0746B04201D10A
:1054500007E000270121204600F088F80546002DCE
:10546000E4D000BF042D00D107252846BDE8F08117
:105470002DE9F0470446D4F800A00021204600F0B2
:105480009CF9064616B13046BDE8F0874FF0FF089C
:10549000C1464FF0FF30206300BF5046E16901F084
:1054A00043FA064606B15EE0206A05780DB9042687
:1054B00059E0206AC07A00F03F07A771E52D04D0BB
:1054C00007F0080038B10F2F05D04FF0FF084FF05C
:1054D000FF30206340E00F2F22D12F20005D00F02D
:1054E000400098BB05F0400038B1206A90F80D905C
:1054F00005F0BF05A8466069206345450CD1206AC8
:10550000407B484508D1216ADAF80C00FFF78EFD90
:1055100010B1A8F1010000E0FF2000F0FF081BE03F
:10552000B8F1000F05D1206A01F065FB484500D1B4
:1055300019E02F20005D00F0010040B90B2204F1BA
:105540002401206A01F0C8F908B90CE004E04FF02A
:10555000FF084FF0FF3020630021204600F006F8DE
:105560000646002E99D000BF30468DE72DE9F04762
:10557000044689462568606900F12007E06910B19A
:10558000B7F5001F02D30420BDE8F087C7F3080079
:10559000002868D1E069401CE061A06938B9288919
:1055A000B0EB571F5FD80020E0610420ECE768896A
:1055B000401E00EA5720002855D12046A16901F07D
:1055C00011F80646012E01D80220DDE7701C08B94B
:1055D0000120D9E7A869B0423FD8B9F1000F03D143
:1055E0000020E0610420CFE72046A169FFF76AFDB3
:1055F00006460EB90720C7E7012E01D10220C3E7F6
:10560000701C08B90120BFE7284601F04DFB08B126
:105610000120B9E74FF40072002105F1340001F0D8
:105620007AF94FF0000831462846FFF7F2FC28636C
:105630000CE00120E870284601F036FB08B101209B
:10564000A2E708F10108286B401C286368894045DF
:10565000EFD8286BA0EB08002863A66131462846E6
:10566000FFF7D7FCE0616761C7F3080105F134007B
:1056700008442062002087E72DE9FE4F0446266893
:105680002F20005D00F0A00010B10620BDE8FE8FC5
:105690004FF0000901E009F10109F06830F8190044
:1056A0000028F8D10C2204F12401684601F026F903
:1056B0009DF80B0000F0010028B340212F20015578
:1056C0004FF001080EE04346694604F12400F268F9
:1056D00000F022FF2046FFF7CBFE054605B104E0AF
:1056E00008F10108B8F1640FEDD300BFB8F1640F01
:1056F00001D10720CAE7042D01D02846C6E79DF84E
:105700000B102F2001559DF80B0000F0020030B166
:1057100009F10C000D21B0FBF1F0401C00E001206C
:10572000074639462046FFF773FE05464DBB781EF7
:10573000071E26D06069A0EB4711204600F03DF817
:105740000546F5B904F1240001F055FA824600BF80
:105750003046E16901F0E8F8054605B110E0FAB21B
:10576000216A5346F06801F095F90120F07000219C
:105770002046FFF7FBFE054615B9781E071EE7D148
:1057800000BFC5B93046E16901F0CEF8054695B9CC
:1057900020220021206A01F0BEF80B2204F124012E
:1057A000206A01F0ABF82F20005D00F01800216A9C
:1057B00008730120F070284668E72DE9F04104469F
:1057C0000D462668B5F5001F02D205F01F0010B186
:1057D0000220BDE8F0816561A7681FB93078032811
:1057E00000DBB76A47B93089B0EB551F01D80220FA
:1057F000EFE7B06AE0611CE070894FEA402811E0F1
:105800003946204600F0EEFE0746781C08B9012014
:10581000DFE7022F02D3B069B84201D80220D8E7EF
:10582000A5EB08054545EBD239463046FFF7F1FBBD
:10583000E061A761E06908B90220CAE7E06900EB0E
:105840005520E061C5F3080106F1340008442062E8
:105850000020BEE770B5044600250848005D58B931
:1058600001200649085501F10802105D0A1D52F891
:105870002420116888470546284670BDB4000020E2
:105880002DE9F04104460D4616460649085D091FFC
:1058900051F8241032460B69294698470746384686
:1058A000BDE8F081BC0000202DE9F04104460D4622
:1058B00016461F460749085D091F51F824103B464C
:1058C0003246D1F808C02946E04780464046BDE848
:1058D000F0810000BC00002070B50446044A105D51
:1058E000121F52F82420516888470546284670BD8B
:1058F000BC0000202DE9F04104460D4616461F4627
:105900000749085D091F51F824103B463246D1F87B
:105910000CC02946E04780464046BDE8F0810000C3
:10592000BC000020002100E0491C022905D20648E5
:1059300000EB011000680028F6D1022901D00120F7
:1059400070470020FCE70000940000202DE9F74F8D
:1059500086B08946002205A906A800F00BFC824605
:10596000BAF1000F6CD10599089801600598D0E94B
:105970000510801E814204D805984069C9F80000CE
:105980005EE000240598007801281BD102250598C7
:10599000009000BF2946684600F024FE0646701CB1
:1059A00010B94FF0010A0CE0012E02D14FF0020AAB
:1059B00007E006B9641C681C054605998969884298
:1059C000E8D333E0059885690598D0F824B000271E
:1059D000B84600BF7FB959460BF1010B059800F09E
:1059E000A3FF8246BAF1000F00D01EE0059800F137
:1059F00034084FF4007705980078022808D1404613
:105A000000F003FF00B9641C08F10208BF1E09E0A2
:105A1000404600F0EEFE20F0704000B9641C08F132
:105A200004083F1F681E051ED4D100BFC9F80040FE
:105A3000059844610598007940F0010005990871C6
:105A4000504609B0BDE8F08FF7B582B0164603980E
:105A5000019001A800F038FE0546002D02DA0B2067
:105A600005B0F0BD0F4850F8254024B12046FFF79F
:105A7000A3FA00202070029810B10020029908704B
:105A80000849029841F82500029808B1012E01D07A
:105A90000020E5E7002202A903A800F06BFB0746FF
:105AA0003846DDE7200000202DE9F74FADF5107DE9
:105AB0000446164624B909200DF5137DBDE8F08F84
:105AC00006F03F06324682A991A800F053FB054636
:105AD000002D7CD18298839001A88299C86083A808
