:020000040800F2
:1000000030C400209D010008F3220008911E000862
:10001000F12200086D0400085529000800000000C6
:10002000000000000000000000000000C1240008E3
:100030003905000800000000F5220008C32400086C
:10004000B7010008B7010008B7010008B7010008B0
:10005000B7010008B70100083B0500084905000882
:10006000B7010008B7010008B7010008B701000890
:10007000B7010008B7010008B7010008B701000880
:10008000B7010008B701000839030008B7010008EC
:10009000B7010008B7010008B7010008B701000860
:1000A000B7010008B7010008B7010008B701000850
:1000B000B7010008B7010008B7010008B701000840
:1000C000B7010008B7010008B7010008B701000830
:1000D000B7010008B70100081D290008B701000892
:1000E00041050008B7010008B7010008B701000882
:1000F000B7010008B7010008B7010008B701000800
:10010000B7010008FD22000869250008B7010008B2
:10011000B7010008B701000875250008812500080F
:1001200071040008B7010008B70100087D04000849
:10013000B70100080000000000000000B70100083F
:10014000B7010008B7010008B7010008B7010008AF
:10015000B701000889040008B7010008B7010008CA
:10016000B7010008B7010008B7010008B70100088F
:10017000B7010008B701000800000000B70100083F
:10018000B7010008B7010008DFF80CD000F07AF8DA
:1001900000480047092A000830C40020064880476C
:1001A00006480047FEE7FEE7FEE7FEE7FEE7FEE75C
:1001B000FEE7FEE7FEE7FEE74D250008890100089F
:1001C0002DE9F05F0546002092469B46884606468C
:1001D000814640241BE0284641464746224600F01F
:1001E00041F853465A46C01A914110D31146184659
:1001F000224600F028F82D1A67EB01084F462246E8
:100200000120002100F01FF817EB00094E41201ECD
:10021000A4F10104DFDC484631462A464346BDE8E6
:10022000F09FD2B201E000F8012B491EFBD27047CB
:100230000022F6E710B513460A4604461946FFF7B2
:10024000F0FF204610BD202A04DB203A00FA02F11C
:10025000002070479140C2F1200320FA03F31943B4
:1002600090407047202A04DB203A21FA02F0002156
:10027000704721FA02F3D040C2F1200291400843B6
:1002800019467047064C074D06E0E06840F0010350
:1002900094E8070098471034AC42F6D3FFF778FF94
:1002A000D02A0008F02A000810B50146806B026CC5
:1002B00012F0500F05D0026CD20626D500F00AFAD3
:1002C00010BD016C41F40071016401688A6812F08C
:1002D000405F17D1027EAAB9CA6A12F4700F02D029
:1002E0008A6852050ED44A6822F020024A60016CE6
:1002F00021F480710164016CC90403D4016C41F0E4
:100300000101016400F0E4F910BD806BC26CBDE82E
:1003100010400846104710B5806B40210164416CC5
:1003200041F00401416400F0D5F910BD10B5806BB7
:1003300000F0CFF910BD0000014800F0CCB900007A
:1003400064000020464910B54A6822F440324A60F1
:100350004A6843681A434A6001684A6822F4807216
:100360004A6001684A68036942EA03224A600168F8
:100370004A6822F040724A6001684A6883681A43FA
:100380004A6001688A6822F400628A6001688A68AB
:10039000C3681A438A60816A6FF07062D142016853
:1003A0008A6822F070628A6001688A680CD0836A69
:1003B0001A438A6001688A6822F040528A600168A4
:1003C0008A68C36A1A4301E022F040528A600168D9
:1003D0008A6822F002028A6001688A68037E42EA23
:1003E00043028A6090F82010002901684A680FD003
:1003F00042F400624A6001684A6822F460424A603E
:1004000001684A68174C436A04EB43331A4301E01E
:1004100022F400624A600168CA6A22F47002CA6269
:100420000168CA6A838B104C04EB03531A43CA62F7
:1004300001688A6822F400728A6001688A6890F80C
:10044000303042EA43228A6001688A6822F480627E
:100450008A6001688A68406942EA8020886010BD2D
:100460000023014000E0FFFF0000F0FFFEE7000076
:10047000014800F0F9BA0000AC000020014800F08B
:10048000F3BA00008C010020014800F0EDBA000032
:10049000EC01002001681823CAB2103AB2FBF3F253
:1004A000054B6FF30901032A9B5CC36500D9091D45
:1004B0008165084670470000B02A000810B5014663
:1004C00000208B698A6A4FF0C07453B1B3F5005FA6
:1004D00015D072B1012A0CD0022A0AD0032A09D100
:1004E00004E01AB1012A06D0022A03D1C96AC9015F
:1004F00000D5012010BDC96AA142FAD010BD002A62
:10050000F7D0012AF2D0022AF3D0032AF3D010BD8B
:1005100030B50468256825F480252560046863608B
:100520008368402B036803D099600068C26030BDC7
:100530009A600068C16030BD7047012000F06CBC5B
:100540004FF4004000F068BC022000F065BC70472A
:1005500070B509480068094A80B2116854684CF2C5
:100560005033A1FB032604FB0363002501FB053187
:100570001018694170BD00002414004000000020E4
:100580007047000078B50024009490F83C20012AC0
:1005900019D0012280F83C200A6807230568092A3F
:1005A00013D9EE680A3A02EB420293409E43EE6092
:1005B0000B788A680A3B03EB43039A400368DD68C3
:1005C0002A43DA6010E0022078BD2E6902EB420275
:1005D00093409E432E610B788A6803EB43039A4055
:1005E00003681D692A431A614A681F23072A13D228
:1005F00005686E6B521E02EB820293409E436E634F
:100600000B790A885B1E92B203EB83039A4003685E
:100610005D6B2A435A6327E005680D2A12D22E6BC0
:10062000D21F02EB820293409E432E630B790A880D
:10063000DB1F92B203EB83039A4003681D6B2A43CE
:100640001A6311E0EE6A0D3A02EB820293409E4378
:10065000EE620B790A880D3B92B203EB83039A405A
:100660000368DD6A2A43DA62164B0568144A9D4224
:1006700006D10D68122D03D1556845F480055560EB
:1006800005689D4218D10B68102B01D0112B13D196
:10069000536843F400035360096810290CD10A49D8
:1006A0000A4A0968B1FBF2F101EB8101490000E05F
:1006B000491E00910029FBD180F83C40002078BD04
:1006C00000230140002001406000002040420F0054
:1006D00070477047704770B504460068016842680B
:1006E000C1F34001C2F3401251B34AB3216CC906B1
:1006F00003D4216C41F400712164816811F0405FE2
:1007000017D1217EA9B9C16A11F4700F02D0816896
:1007100049050ED4416821F020014160206C20F48D
:1007200080702064206CC00403D4206C40F0010071
:1007300020642046FFF7CCFF21686FF012000860AC
:10074000206801684268C1F38001C2F3C01289B316
:1007500082B3216CC90603D4216C41F40051216499
:10076000816811F4401F1ED1816B11F4401F02D02B
:100770008168490517D44168490514D4816811F08E
:10078000405F10D1217E71B9416821F08001416044
:10079000206C20F480502064206CC00503D4206CB1
:1007A00040F0010020642046FFF7EAFE21686FF068
:1007B0000C00086020680168426811F0010FC2F364
:1007C00080120ED06AB10068C0070AD0206C40F4D5
:1007D00080302064204600F046F821686FF0010068
:1007E0000860206801684268C1F34011C2F380626A
:1007F00000290DD0002A0BD0616C41F00201616428
:100800006FF0200505602046FFF764FF2068056053
:1008100070BD70B504004FF0000503D0206C0026B9
:1008200010B107E0012070BD204600F01DF866649D
:1008300084F83C60206CC00610D4206C20F48850F2
:1008400040F0020020642046FFF77CFD6664206CC7
:1008500020F0020040F00100206400E0012584F84F
:100860003C60284670BD704770B586B006461421BE
:100870006846FFF7DDFC2249306888423DD12148B7
:100880000025016841F480710160006800F4807007
:1008900005901C481438016841F0010101600068AE
:1008A000694600F001000590F22000900320CDE998
:1008B0000105154800F0BCFA154C1448C4E90005C0
:1008C0000015A560C4E90350800060618000A0614C
:1008D0008011E0614002C4E90805204600F094F967
:1008E00008B1FFF734FEB463002211461220A6635C
:1008F00000F00EFD122000F0FDFC06B070BD0000FF
:1009000000200140443802400000024010640240D0
:10091000AC000020F8B50E4600210446009190F886
:100920003C00012807D0012084F83C00206883683F
:10093000DB0702D011E00220F8BD836843F0010319
:1009400083603748374B0068B0FBF3F000EB4000A2
:1009500000E0401E00900028FBD120688368DB0780
:100960005CD0236C40F20165AB4343F48073236495
:100970004068400505D5206C20F4005040F48050BC
:100980002064206CC00404D5606C20F00600606414
:1009900000E0616484F83C10A16B2448224DC863D8
:1009A000A16B23480864A16B2248C86421686FF0DA
:1009B000220008602068416841F080614160206841
:1009C000816841F4807181602168134632464C3160
:1009D000A06B00F083F968681749C006206806D04C
:1009E00088421BD1816811F0405F13D016E0884225
:1009F000F8D0124A904203D1D1F80423D206F1D0A4
:100A00000F4A90420AD1D1F8041301F01F011029B6
:100A1000E8D303E0816841F0804181600020F8BDA7
:100A20006000002040420F0000230140A90200089E
:100A30002D03000817030008002001400021014099
:100A40000022014090F83510022903D08021416531
:100A500001207047052180F835100068016821F0F9
:100A600001010160002070472DE9F84304464FF072
:100A70000009CDF8009063484FF41651A56D006849
:100A8000B0FBF1F72E6894F85C10082000FA01F131
:100A900031420FD021680A6852070BD50A6822F04C
:100AA00004020A6094F85C108840A860606D40F011
:100AB0000100606594F85C104FF0010808FA01F03D
:100AC000304208D021684969090604D5A860606DE4
:100AD00040F00200606594F85C10042088403042C9
:100AE00008D021680968890704D5A860606D40F0C6
:100AF0000400606594F85C1010208840304218D0E3
:100B000021680968090714D5A860206801684903AD
:100B100004D50068000308D5A16C07E00168C90589
:100B200003D4016821F008010160216C09B120465D
:100B3000884794F85C1020208840304231D02168EA
:100B40000968C9062DD5A86094F8350005282068E5
:100B5000016806D0490347D5006800031DD4616CC5
:100B60001CE021F0160101602068416921F080013C
:100B70004161206C08B9A06C20B12068016821F0A7
:100B80000801016094F85C103F208840A86084F858
:100B9000349084F83580216D1FE0E16B09B1204667
:100BA0008847606D00282BD0606DC00714D00520E9
:100BB00084F835002068016821F001010160009887
:100BC000401C0090B84203D820680068C007F6D1E6
:100BD00084F8349084F83580E16C002910D001B09D
:100BE0002046BDE8F04308470168C905D5D401682F
:100BF00021F01001016084F8349084F83580CCE74E
:100C0000BDE8F883600000202DE9F041044600F0C3
:100C1000FDF906465CB1002584F83450022084F8C2
:100C200035002068016821F0010101600DE001201C
:100C3000BDE8F08100F0EAF9801B052805D92020E5
:100C40006065032084F83500F2E720680068C0077B
:100C5000F0D12268116820480140D4E9010318430B
:100C6000D4E903363343184363691843A36918432F
:100C7000E3691843236A18430843616A042903D1CE
:100C8000D4E90B1319430843106020684069666A71
:100C900020F0070130460E43012704280CD1A06A3A
:100CA0000643E06A40B12046FFF708FC20B140202F
:100CB000606584F83570BAE7206846612046FFF722
:100CC000E9FB94F85C203F2191408160656584F8E0
:100CD00035700020ACE700003F8010F02DE9F041B6
:100CE0000446866D90F83400002501280DD00120BF
:100CF00084F8340094F835700020012F07D084F870
:100D0000340002252846BDE8F0810220FBE70227D7
:100D100084F8357060652046FFF7FAFB94F85C10A4
:100D20003F208840B0602068016841F016010160F2
:100D3000206C20B12068016841F008010160206842
:100D4000016841F001010160DCE7000070B5304C42
:100D5000304D01281DD0022838D04FF40046B04253
:100D600016D13146284600F03FF901284BD03146D4
:100D7000284600F039F900280AD1FFF7E9FBC4E959
:100D80000E01D4E90C23801A61EB0301C4E91001C0
:100D900070BD0121284600F027F9012811D001215A
:100DA000284600F021F90028F2D1FFF7D1FBC4E971
:100DB0000201D4E90023801A61EB0301C4E90401B4
:100DC00070BDFFF7C5FBC4E9000170BD02212846D4
:100DD00000F00AF9012811D00221284600F004F998
:100DE0000028F2D1FFF7B4FBC4E90801D4E90623D7
:100DF000801A61EB0301C4E90A0170BDFFF7A8FB8B
:100E0000C4E9060170BDFFF7A3FBC4E90C0170BD86
:100E10000800002000040240044910B50A6802429C
:100E200002D00860FFF792FF10BD0000143C0140A3
:100E30002DE9F84F00224FF0010803254FF00F0E67
:100E40000B6808FA02F42340A3426ED14E68012ECB
:100E500005D0022E03D0112E01D0122E12D1866899
:100E60004FEA420C05FA0CF7BE43CF6807FA0CF7BD
:100E7000374387604668A6430C79C4F30014944056
:100E800034434460C668570005FA07FC8C6826EABC
:100E90000C06BC403443C4604C68022C01D0122CB8
:100EA00013D1D40800EB8404A346D4F8209054074F
:100EB0004FEAD46A0EFA0AF629EA06090E6906FA1A
:100EC0000AF646EA0906CBF8206006680C7926EA9D
:100ED0000C0604F00304BC40344304604C68E40096
:100EE00065D5364C266846F480462660246822F094
:100EF000030604F480440094314C3444A446D4F8EE
:100F000008489607370F0EFA07F6B4432D4EB04245
:100F100001D1002624E02C4EB04201D101261FE071
:100F20002A4EB04202D102261AE040E0284EB042DA
:100F300001D1032614E0274EB04201D104260FE070
:100F4000254EB04201D105260AE0244EB04201D11F
:100F5000062605E0224EB04201D1072600E0082611
:100F6000BE402643CCF808681E4E34684F689C4348
:100F7000FF0300D51C4334601A4C241D26684F68BB
:100F80009E43BF0300D51E432660164E08363468C4
:100F90004F689C43FF0200D51C433460114E0C3651
:100FA00034684F689C43BF0200D51C433460521C18
:100FB000102AFFF445AFBDE8F88F00004438024026
:100FC00000300140000002400004024000080240DE
:100FD000000C0240001002400014024000180240C1
:100FE000001C0240003C01400069084000D0012084
:100FF0007047426931EA020200D1090481617047F9
:101000000AB1816170470904FBE70000014880686C
:1010100070470000540000200248816802781144A3
:1010200081607047540000200B4810B5016841F4FE
:1010300000710160016841F480610160016841F460
:1010400080710160032000F083F9002000F006F8B1
:1010500000F038F9002010BD003C024070B50D4D85
:1010600004464FF47A712878B1FBF0F00A49096818
:10107000B1FBF0F000F018FC48B9102C07D20022A8
:101080002146501E00F044F900206C6070BD012024
:1010900070BD0000540000206000002070477047C1
:1010A00070B50446B0F84C0000250104206801F03A
:1010B00043F918B1A16B0143A16304E0002120684A
:1010C00001F019F90546C5F3432070BDF8B5056B6D
:1010D00004460068416B09041BD5290719D5D4E9DA
:1010E0000A56002E14D00027206801F00DF905F8EB
:1010F000010B010A05F8011B010C05F8021B000E8B
:10110000361F7F1C05F8010C082FEDD3C4E90A56E1
:10111000F8BD416B4FF00106CA0540F23A3141D5A6
:10112000320282632068C26B8A43C2632068C16A4C
:1011300021F00101C162280615D5A80609D520684D
:1011400001F014F928B1A16B0143A1632046FFF718
:10115000A6FFA807DCD12068C16A21F00801C1629E
:1011600084F834601AE02807D2D515F0220F09D090
:10117000206801F0FBF828B1A16B0143A163204670
:10118000FFF78DFF216840F23A50886384F834609D
:10119000A80703D0204600F093F8F8BD204600F0E1
:1011A00090F8F8BD426B520423D52A0721D5D4E923
:1011B0000856002EF5D0002715F8010B009015F801
:1011C000011B361F40EA0120009015F8021B40EA7F
:1011D0000140009015F8011C40EA0160009069464A
:1011E000206801F0A4F87F1C082FE5D3C4E9085655
:1011F000F8BD426B40F23A231A42F9D0426B920793
:1012000003D5A26B42F00202A263426B120703D520
:10121000A26B42F00802A263426B920603D5A26B56
:1012200042F02002A263426BD20603D5A26B42F0C9
:101230001002A263426B920503D5A26B42F0080232
:10124000A26340F23A7282632068C26B8A43C2632F
:10125000206801F08BF8A16B0843A063280705D52F
:1012600084F834602046FFF71AFFF8BD2806FCD545
:10127000206C58B110490165206CFFF7E3FB002892
:10128000F3D0206CBDE8F84000F027BEE06B58B109
:101290000A490165E06BFFF7D5FB0028E5D0E06B5C
:1012A000BDE8F84000F0F5BD0020A06384F834608C
:1012B0002046FFF7F3FEF8BDDB1E0008931E000872
:1012C000704770470A4808B5016841F480410160E1
:1012D000006800F4804000900548001F016841F05C
:1012E00080510160006800F08050009008BD00004F
:1012F00044380240002809DB00F01F020121914020
:101300004009800000F1E020C0F8001170470000A3
:10131000F0B40E4B1B680C46C3F30223C3F1070560
:10132000042D00D90425191D072901D2002300E04E
:10133000DB1E012606FA05F1491E214099409E4018
:10134000761E16403143F0BC01F012BB0CED00E0FC
:10135000064900F0070208684FF6FF03184040EA0C
:101360000220034A10430860704700000CED00E0C3
:101370000000FA052DE9F0470E46050065D0DFF8BC
:101380001481D8F80000F7B200F00F00B04207D285
:1013900088F80070D8F8000000F00F00B04254D177
:1013A00028683D4C810712D5400703D5206840F4DA
:1013B000E05020602878000703D5206840F46040A2
:1013C00020602068A96820F0F00008432060287899
:1013D000C0072DD0304968680839012812D002288A
:1013E00013D0032811D00968890700292DDA216854
:1013F00021F0030101432160FFF708FE814641F21D
:10140000883A0EE009688903EFE709688901ECE78B
:10141000FFF7FCFDA0EB0901514502D90320BDE80F
:10142000F0872068696800F00C00B0EB810FEFD105
:10143000D8F80010404601F00F01B14207D90770FB
:10144000006800F00F00B04201D00120E7E72878E3
:10145000400705D52068E96820F4E0500843206083
:101460002878000706D52068296920F4604040EA02
:10147000C100206000F038F82168084AC1F3031168
:10148000515CC8400649086006480068FFF7E6FD61
:101490000020C4E7003C024008380240B82A000897
:1014A00060000020580000200448054900680968D1
:1014B000044AC1F38221515CC8407047600000209B
:1014C00008380240C82A000804480549006809682D
:1014D000044AC1F34231515CC840704760000020AB
:1014E00008380240C82A0008154810B5006810F0F6
:1014F0000C02144813D01449042A0FD0082A0ED124
:101500000F4C241F2268236802F03F025B0207D5BC
:101510002068C0F38810A0FB010106E0084610BD5A
:101520002168C1F38811A1FB00010023FEF748FEEA
:101530002168C1F30141491C4900B0FBF1F010BD25
:10154000083802400024F40040787D012DE9F84F6E
:1015500004006ED02078DFF83C93C007A9F10405A1
:101560004AD009F104000168C1F38101012908D0C2
:101570000068C0F3810002280AD1D9F800004002B7
:1015800006D52868800337D560680028E1D033E0AD
:101590006068B0F5803F10D0B0F5A02F286810D05B
:1015A00020F480302860286820F48020286060685B
:1015B000A8B1FFF72BFD06460DE0286840F4803007
:1015C000F4E740F480202860F7E700BFFFF71EFD36
:1015D000801B642873D828688003F7D50CE0FFF7D8
:1015E00015FD064605E000BFFFF710FD801B6428CF
:1015F000F0D828688003F7D42078DFF89C82800731
:101600004FF0000A3ED5A348001D016811F00C0FF1
:1016100008D00068C0F3810002280BD1D9F800007F
:10162000400207D42868800716D5E068012800D159
:1016300012E02BE1E068B8B10120C8F80000FFF724
:10164000E5FC064605E000BFFFF7E0FC801B022832
:10165000C0D828688007F7D52868216920F0F800ED
:1016600040EAC10028600DE0C8F800A0FFF7CEFCFA
:10167000064604E0FFF7CAFC801B02281FD8286832
:101680008007F7D42078000722D5824E834861690D
:10169000703671B101210160FFF7B8FC074604E024
:1016A000FFF7B4FCC01B022809D830688007F7D5C3
:1016B0000EE0C0F800A0FFF7A9FC074605E082E0B5
:1016C000FFF7A4FCC01B02287DD830688007F7D440
:1016D0002078400768D5DFF8BCB100270BF13C0B40
:1016E000DBF80000C0000BD4DBF8001041F08051A3
:1016F000CBF80010DBF80000012700F080500090CC
:10170000674E3068C00510D4306840F48070306097
:10171000FFF77CFC009005E0FFF778FC0099401A89
:10172000022850D83068C005F6D55A4EA0686C36ED
:1017300001280FD00528306810D020F0010030605B
:10174000306820F004003060A068B8B1FFF75EFC9C
:1017500000900FE0306840F00100F4E740F0040032
:101760003060F7E7FFF752FC0099411A41F28830E8
:10177000814266D830688007F4D50EE0FFF746FC5A
:10178000009007E0FFF742FC0099411A41F28830CF
:10179000814256D830688007F4D42FB1DBF80010AE
:1017A00021F08051CBF80010A069C8B33949091D58
:1017B0000968C1F3810102294AD00228504607D0A6
:1017C000C8F8600000E03CE0FFF720FC04463BE086
:1017D0004746C8F86000FFF719FC064605E000BF61
:1017E000FFF714FC801B02282BD828688001F7D44F
:1017F000D4E907010843A16A2A4A490802EB0141DA
:10180000626A41EA8211084394F82C1040EA0161AF
:10181000C9F8001001203866FFF7F8FB044606E01F
:1018200036E000BFFFF7F2FB001B022809D828684A
:101830008001F7D52CE000BFFFF7E8FB001B022872
:1018400002D90320BDE8F88F28688001F4D41FE096
:101850000128F7D0D9F80000E26900F48001914234
:1018600014D1226A00F03F0191420FD147F6C071B6
:10187000626A0140914209D1A26A00F4403191426A
:1018800004D1E16A00F07060884201D00120D9E7FC
:101890000020D7E70438024000004742800E47424C
:1018A000007000400000FFFF10B5401EB0F1807FC7
:1018B00001D3012010BD4FF0E02460610F216017BB
:1018C00001F056F80020A06107202061002010BD23
:1018D0007047704770B590F83C20012A32D001243F
:1018E00080F83C40022280F83D2003685A689D68D9
:1018F00022F070060A6832435A60134B02689A421B
:1019000014D0B2F1804F11D0104B9A420ED0104B30
:101910009A420BD00F4B9A4208D00F4B9A4205D0F7
:101920000E4B9A4202D00E4B9A4204D1496825F0E0
:1019300080031943916080F83D40002180F83C10FD
:10194000084670BD022070BD000001400004004048
:1019500000080040000C004000040140004001402D
:101960000018004010B5040003D094F83D0010B1F9
:1019700007E0012010BD002084F83C00204600F064
:101980000DF8022084F83D00211D206800F0FEFDC6
:10199000012084F83D00002010BD000008B51E4A5B
:1019A00001681E4891420ED1016841F008010160B2
:1019B0000068002200F00800009011463220FFF776
:1019C000A7FC322022E0164A91420ED1016841F074
:1019D000100101600068002200F010000090114624
:1019E0003620FFF795FC362010E00E4A914211D1C7
:1019F000016841F0200101600068002200F0200031
:101A0000009011463720FFF783FC3720BDE80840DF
:101A1000FFF770BC08BD0000000C004040380240D9
:101A200000100040001400400168CA6842F0010242
:101A3000CA600068816801F00701062903D00168C7
:101A400041F00101016000207047704770B5044605
:101A5000006801694FF00005C943890715D4C168C2
:101A6000C943890711D4E91E01610120207720684C
:101A700080698007204602D0FFF7E7FF04E000F00E
:101A8000C1F8204600F056F9257720680169C9435E
:101A9000490717D4C168C943490713D46FF004013B
:101AA0000161022020772068806910F4407F204681
:101AB00002D0FFF7CAFF04E000F0A4F8204600F0CF
:101AC00039F9257720680169C943090716D4C16827
:101AD000C943090712D46FF008010161042020777F
:101AE0002068C0698007204602D0FFF7AEFF04E0FF
:101AF00000F088F8204600F01DF92577206801697C
:101B0000C943C90617D4C168C943C90613D46FF0C5
:101B100010010161082020772068C06910F4407F1F
:101B2000204602D0FFF791FF04E000F06BF820465A
:101B300000F000F9257720680169C943C90708D179
:101B4000C168C943C90704D1891E0161204600F05C
:101B500015F920680169C943090609D4C168C94358
:101B6000090605D46FF0800101612046FFF7B0FE41
:101B700020680169C943490609D4C168C9434906B7
:101B800005D46FF040010161204600F013F9206890
:101B90000169C94389060BD4C168C943890607D4C2
:101BA0006FF0200101612046BDE87040FFF791BE53
:101BB00070BD000010B586B0044614216846FEF7DB
:101BC00037FB0D492068884214D10C480021026877
:101BD00042F002020260006800F00200059010204E
:101BE00000900220CDE90101CDE9031069460448C7
:101BF000FFF71EF906B010BD000400403038024067
:101C000000040240704770B5044690F83C000D4651
:101C100001280DD0012684F83C60022084F83D00A4
:101C200042B1042A18D0082A2AD00C2A4DD139E012
:101C3000022070BD206800F01BFD2068816941F022
:101C4000080181612068816921F0040181612068B7
:101C500081692A69114311E0206800F039FD20688C
:101C6000816941F4006181612068816921F48061AA
:101C70008161206881692A6941EA0221816124E049
:101C8000206800F05BFD2068C16941F00801C16176
:101C90002068C16921F00401C1612068C1692A6915
:101CA000114311E0206800F07DFD2068C16941F416
:101CB0000061C1612068C16921F48061C16120684F
:101CC000C1692A6941EA0221C16184F83D600020AE
:101CD00084F83C0070BD10B5040003D094F83D00BA
:101CE00010B107E0012010BD002084F83C00204620
:101CF00000F00CF8022084F83D00211D206800F05F
:101D000045FC012084F83D00002010BD08B50068A6
:101D10000649884208D10648016841F00201016085
:101D2000006800F00200009008BD000000040040C0
:101D3000403802407047000010B504460068012298
:101D400000F088FC0B492068884202D00A4988428A
:101D500003D1416C41F4004141642068816801F085
:101D60000701062903D0016841F00101016000204C
:101D700010BD0000000001400004014010B5044601
:101D800000680949884201D1FFF746F907492068F0
:101D9000884207D1064801684268491C42F10002A6
:101DA0000160426010BD0000000C004000140040C3
:101DB00000000020704770B5040004D094F839008A
:101DC000002510B106E0012070BD84F8385020468F
:101DD00000F022F8242084F839002068C16821F43A
:101DE0000051C160204600F005FD2068016921F422
:101DF000904101612068416921F02A014161206818
:101E0000C16841F40051C160E563202084F83900C5
:101E100084F83A00002070BD10B586B00446142145
:101E20006846FEF705FA17492068884228D1164807
:101E30000021026842F400320260006800F40030C1
:101E4000059011481038026842F0010202600068F3
:101E500000F0010005900C2000900220CDE9010166
:101E6000032003900720049069460848FEF7E0FF2E
:101E7000002211462620FFF74BFA2620FFF73AFAF8
:101E800006B010BD0044004040380240000002404F
:101E9000FEE770B5846B0025E06B00B1E563206C54
:101EA000002816D12046FFF7FBF8A563012184F82E
:101EB0003410062801D005280BD1206800F056FA0E
:101EC000A16B0843A063A06B0028204602D0FFF757
:101ED000E5F870BDFFF7E3F870BD70B5846B0025C1
:101EE000206C00B12564E06B002816D12046FFF776
:101EF000D7F8A563012184F83410062801D00528FD
:101F00000BD1206800F032FAA16B0843A063A06BEC
:101F10000028204602D0FFF7C1F870BDFFF7BFF8D8
:101F200070BD00007FB500212A4800910191029107
:101F3000274A0391026001244FF480320461C0E912
:101F40000121047680F82010234AC0E90A210525E2
:101F5000C561C16080F830404161FEF75AFC08B1AC
:101F6000FEF7F5FA02260094CDE9014669461948C4
:101F7000FEF708FB08B1FEF7EAFA0424CDE90046B3
:101F800069461448FEF7FEFA08B1FEF7E0FA0320AE
:101F9000CDE9005069460F48FEF7F4FA08B1FEF7A4
:101FA000D6FA0620CDE9000469460A48FEF7EAFAA7
:101FB00008B1FEF7CCFA0720CDE9000569460548CF
:101FC000FEF7E0FA002801D0FEF7C1FA7FBD00005D
:101FD00000200140640000200100000F114808B5F6
:101FE000016841F4800101600068002200F4800073
:101FF000009011463820FFF78BF93820FFF77AF967
:10200000002211463B20FFF783F93B20FFF772F9CE
:10201000002211464520FFF77BF9BDE80840452026
:10202000FFF768B93038024070B586B014216846B1
:10203000FEF7FEF82B480024016841F00101016021
:10204000016801F001010591016841F002010160A0
:10205000016801F002010591016841F0040101608D
:10206000016801F004010591016841F00801016077
:1020700000681D4D00F0080005900120CDE9000525
:102080001A4E694602943046FEF7D2FE0220CDE990
:102090000005694602943046FEF7CAFE4FF4004040
:1020A000CDE90005694602943046FEF7C1FE0022E4
:1020B00011460620FFF72CF90620FFF71BF9002236
:1020C00011460720FFF724F90720FFF713F9002234
:1020D00011462820FFF71CF92820FFF70BF906B05E
:1020E00070BD000030380240000031100004024092
:1020F000F0B587B014216846FEF79AF82948002405
:10210000016841F001010160016801F001010591E0
:10211000016841F002010160016801F002010591CE
:10212000016841F004010160016801F004010591BA
:10213000016841F00801016000681B4E00F00800D2
:1021400047F220450590002229463046FEF758FF09
:10215000164F002240213846FEF752FF0095012518
:10216000CDE90154694630460394FEF761FEE8026A
:10217000CDE90004694630460294FEF759FE40203E
:102180000090CDE90154694638460394FEF750FEAD
:102190008020CDE90004694638460294FEF748FEE7
:1021A00007B0F0BD30380240000402400008024091
:1021B00010B58AB0002407941C2168460894FEF7E5
:1021C00037F818481649016040F24731C0E9011458
:1021D0004FF4FA61C0E903148461FFF77CFD08B194
:1021E000FEF7B5F9079407A90E480894FFF772FBAC
:1021F00008B1FEF7ACF96020009096200190022013
:1022000002900022694604940648FFF7FCFC08B1DE
:10221000FEF79DF90348FFF7CDFC0AB010BD0000A2
:10222000000400404C0200201CB500240E4800941D
:102230000C49019401605321C0E901144CF2503162
:102240008461C160FFF78EFB08B1FEF780F900944E
:10225000694605480194FFF73DFB002801D0FEF7D1
:1022600076F91CBD00100040CC0200201CB50024F3
:102270000E4800940C49019401605321C0E90114F7
:102280004CF250318461C160FFF76CFB08B1FEF77E
:102290005EF90094694605480194FFF71BFB00288E
:1022A00001D0FEF754F91CBD001400400C030020BF
:1022B00010B50E4C0C480C2120604FF4E1306060EA
:1022C0000020A060E060C4E90401A061E061204654
:1022D000FFF771FD08B1FEF73AF92068C16841F0D7
:1022E0002001C16010BD000000440040D803002060
:1022F000FEE7704770470844406970470148FEF7A1
:10230000E5BE00000C010020D0F8800070470A688C
:102310008260D1E901231A43D1E903310B43C1683B
:102320001A436FF30B011143C16000207047096825
:10233000C0F880100020704710B586B004460D200C
:10234000CDE9001040200290002003904FF48060FF
:10235000049069462046FFF7DAFF41F288320D21EA
:10236000204600F01DF806B010BD000010B586B084
:10237000044600210C20CDE900104020CDE90201E7
:102380000001049069462046FFF7C1FF034A0C2173
:10239000204600F005F806B010BD000000E1F5058C
:1023A000454B10B51B684FF4FA54B3FBF4F3534399
:1023B0005B1E02D24FF0004010BD426B12F0450F81
:1023C000F6D01205F4D4426B520703D50421816381
:1023D000084610BD426BD20702D00121816305E09F
:1023E000C52282630269D2B28A4201D0012010BDA7
:1023F0000021FFF780FF3149084201D1002010BDC4
:10240000002802DA4FF0007010BD410001D54020D5
:1024100010BD810001D5802010BDC10002D54FF450
:10242000807010BD010102D54FF4007010BD410154
:1024300002D54FF4806010BDC10102D54FF4006099
:1024400010BD010202D54FF4805010BD410202D5EB
:102450004FF4005010BD810202D54FF4804010BDF2
:10246000C10202D54FF4004010BD410302D54FF424
:10247000003010BD810302D54FF4802010BDC10390
:1024800002D54FF4002010BD010402D54FF4801096
:1024900010BD410402D54FF4001010BD810402D5D7
:1024A0004FF4800010BD000702D54FF4000010BDAE
:1024B0004FF4803010BD00006000002008E0FFFDF8
:1024C0007047FEF7A9BD000030B593B030216846D3
:1024D000FDF7AEFE14210CA8FDF7AAFE1948002551
:1024E000016841F080510160006800F08050119057
:1024F0001548016841F4804101600068022400F43D
:1025000080401190012003901020049000940694C4
:102510000820CDE90750A820CDE9090407200B9039
:102520006846FFF713F80CA90F2081E831004FF43B
:10253000A0500F90E002109005210CA8FEF71AFFA2
:1025400013B030BD403802400070004005480168BB
:1025500041F47001016003494FF000608039086068
:102560007047000088ED00E00148FFF76FBA0000F7
:102570008C0200200148FFF769BA0000CC0200205D
:102580000148FFF763BA00000C030020F0B50268B1
:10259000254C264D264E274F274B4FF0804CA0420E
:1025A00009D0604507D0A84205D0B04203D0B84258
:1025B00001D0984204D122F0700E4A6842EA0E021D
:1025C000A0421BD0604519D0A84217D0B04215D008
:1025D000B84213D0984211D0184DA8420ED0184DD1
:1025E000A8420BD0174DA84208D0174DA84205D0DD
:1025F000164DA84202D0164DA84203D122F44075D0
:10260000CA682A434D6922F080022A4302608A6820
:10261000C2620A688262A04201D0984201D109696F
:10262000016301214161F0BD000001400004004050
:1026300000080040000C0040000401400040014040
:10264000004401400048014000180040001C0040C8
:102650000020004010B501F01F030121046A9940D9
:102660008C430462016A9A401143016210BD00006C
:10267000F0B5026A22F001020262036A42688469CC
:10268000124E24F073050C682C4323F002058B686E
:102690002B430D4DA84201D0B04205D123F00807CD
:1026A000CB683B4323F00403A84201D0B04205D1DC
:1026B0004D6922F4407215438A692A43426084615D
:1026C000496841630362F0BD00000140000401401D
:1026D000F0B5026A22F010020262026A436884695D
:1026E0000D6824F4E64444EA05248D6822F02002B3
:1026F00042EA05120F4D104EA84201D0B04206D159
:10270000CF6822F0800242EA071222F04002A8427B
:1027100001D0B04207D14D6923F4406343EA8503F9
:102720008D6943EA8503436084614968816302627D
:10273000F0BD00000000014000040140F0B5026A55
:1027400022F480720262026A4368C46922F4007251
:1027500024F073050C68124E2C438D6842EA052262
:102760000E4DA84201D0B04206D1CF6822F40062DB
:1027700042EA072222F48062A84201D0B04207D187
:102780004D6923F4405343EA05138D6943EA051369
:102790004360C4614968C1630262F0BD000001404A
:1027A0000004014030B5026A22F480520262046AD9
:1027B0004268C3690D6823F4E64343EA05238D6844
:1027C00024F4005444EA0534084DA84202D0084DD0
:1027D000A84204D14D6922F4804242EA8512426047
:1027E000C36149680164046230BD0000000001401B
:1027F000000401402DE9F041044600680169E268E7
:1028000021F44051114301612169A068E269084344
:102810006169114308432168CA6849F20C639A430D
:102820000243CA6020684169A26921F440711143E2
:102830004161E069192764253226B0F5004F354A19
:10284000354920684FF0000806D0884201D09042F8
:1028500036D1FEF739FE35E0884201D0904202D1F0
:10286000FEF732FE01E0FEF71FFE61684A18A0FB8A
:10287000070148EB0803FDF7A3FC0146B0FBF5F0A8
:102880000201B1FBF5F06FF01803584301EB800033
:1028900006EBC000B0FBF5F000F0F80002EB4002E0
:1028A000B1FBF5F0584301EB800006EBC000B0FB34
:1028B000F5F000F00700216810448860BDE8F08161
:1028C000FEF7F2FD61688B0F8A00A0FB0701FDF7A0
:1028D00077FC0146B0FBF5F06FF01802504301EBB6
:1028E000800006EB0010B0FBF5F000F0F002B1FB49
:1028F000F5F002EB0012B1FBF5F06FF0180358434E
:1029000001EB800006EB0010B0FBF5F000F00F00CB
:10291000D1E70000001401400010014038B50C4C14
:1029200020680168C943890609D44068C1B2A4F18E
:102930008C0000F052F821686FF0200008602068D9
:102940000168C943090702D401684068009038BD96
:10295000D8030020FEE7000004494A6A824201D2FF
:1029600001207047002048627047000000100040BE
:102970000907090E002804DB00F1E02080F80014AC
:10298000704700F00F0000F1E02080F8141D704740
:1029900002E008C8121F08C1002AFAD17047704728
:1029A000002001E001C1121F002AFBD1704710B5C1
:1029B000048900F003F8201A80B210BD8288C18813
:1029C00000898B1A9BB2914202D2821A11448BB2B7
:1029D000B3FBF0F100FB113070472DE9F041C588E1
:1029E0008846044607890668FFF7E1FF002808D0FB
:1029F00006F805806D1CA8B2B84200D30020E08024
:102A00000120BDE8F0810000FEF70EFBFFF75CFD42
:102A1000FFF76EFBFFF708FBFFF7E0FAFFF782FA1C
:102A200005221B491B48FDF775FFFFF741FCFFF727
:102A3000BFFB00211848FFF77FF91849962008606E
:102A4000FFF714FC1648FEF7EFFF164D0122202178
:102A50002846FEF7D5FAFFF7E7FB1348FEF7E4FF39
:102A6000124C4FF47A794FF4FA7700264FF4E0488D
:102A70004846FFF771FF0028FAD12068401C20600B
:102A8000B842F5D3414628462660FEF7B2FAEFE792
:102A900018040020640000204C0200203404004090
:102AA0000C03002000040240CC0200205000002053
:102AB00000061016000610160000000000000000BE
:102AC00001020304060708090000000001020304D4
:102AD000F02A00080000002064000000902900088F
:102AE000542B000864000020CCC30000A02900087B
:102AF00000000000000000000000000000000000D6
:102B000000000000000000000000000000000000C5
:102B100000000000000000000000000000000000B5
:102B200000000000000000000000000000000000A5
:102B30000000000000000000000000000000000095
:102B40000000000001000000100000000000000074
:042B50000024F40069
:040000050800018965
:00000001FF
